:020000040800F2
:10000000C81A0020314F0008ED030008EF03000874
:10001000F3030008F7030008FB03000800000000DA
:10002000000000000000000000000000FF030008C6
:100030000104000800000000030400080504000893
:100040004B4F00084B4F00084B4F00084B4F000828
:100050004B4F00084B4F00084B4F00084B4F000818
:100060004B4F00084B4F00084B4F00088B300008E7
:100070004B4F00084B4F00084B4F00084B4F0008F8
:100080004B4F00084B4F00084B4F00084B4F0008E8
:100090004B4F00084B4F00084B4F00084B4F0008D8
:1000A0004B4F00084B4F00084B4F00084B4F0008C8
:1000B0004B4F0008733500084B4F00084B4F0008AA
:1000C0004B4F00084B4F00084B4F00084B4F0008A8
:1000D0004B4F00084B4F00084B4F00084B4F000898
:1000E0004B4F00084B4F00084B4F00084B4F000888
:1000F0004B4F00084B4F00084B4F00084B4F000878
:100100004B4F00084B4F00084B4F00084B4F000867
:100110004B4F00084B4F00084B4F00084B4F000857
:100120004B4F00084B4F00084B4F00084B4F000847
:1001300000F002F800F05AF80AA090E8000C82449F
:100140008344AAF10107DA4501D100F04FF8AFF27C
:10015000090EBAE80F0013F0010F18BFFB1A43F0A5
:1001600001031847B08C0000D08C00000A444FF007
:10017000000C10F8013B13F0070408BF10F8014B06
:100180001D1108BF10F8015B641E05D010F8016B4B
:10019000641E01F8016BF9D113F0080F1EBF10F8AF
:1001A000014BAD1C0C1B09D16D1E58BF01F801CBD2
:1001B000FAD505E014F8016B01F8016B6D1EF9D555
:1001C0009142D6D37047000000230024002500266A
:1001D000103A28BF78C1FBD8520728BF30C148BFAA
:1001E0000B6070471FB51FBD10B510BD07F057F865
:1001F0001146FFF7F7FF00F007F907F075F803B4B1
:10020000FFF7F2FF03BC07F07DF800000CB50020FB
:10021000019000906C48006840F480306A490860A2
:1002200000BF6948006800F4003000900198401C4D
:100230000190009818B90198B0F5A06FF1D162480B
:10024000006800F4003010B10120009001E00020AF
:1002500000900098012843D15C48006840F01000ED
:100260005A4908600846006820F003000860084604
:10027000006840F0020008605348406852494860F6
:100280000846406848600846406840F4806048601E
:100290000846406820F47C1048600846406840F4F6
:1002A000E81048600846006840F08070086000BFB1
:1002B0004548006800F000700028F9D042484068C6
:1002C00020F00300404948600846406840F00200C2
:1002D000486000BF3C48406800F00C000828F9D195
:1002E0000CBD10B5FFF792FF10BD10B53648006881
:1002F00040F001003449086008464068344908402D
:100300003149486008460068324908402E49086073
:100310000846006820F4802008600846406820F401
:10032000FE0048604FF41F008860FFF7DAFF4FF0CF
:1003300000602949086010BD10B50021002000228E
:10034000214B5B6803F00C0121B1042906D0082978
:1003500028D107E0214B224C236027E01F4B204C83
:10036000236023E0184B5B6803F47010164B5B6846
:1003700003F48032022303EB904022B9194B43432C
:10038000174C23600DE0104B5B6803F4003323B17E
:10039000144B4343124C236003E0104B4343104C77
:1003A000236003E00D4B0E4C236000BF00BF064BE3
:1003B0005B68C3F303130C4CE15C094B1B68CB4037
:1003C000074C236010BD00000010024000200240D6
:1003D0000000FFF8FFFFF6FE08ED00E000127A00D3
:1003E0000000002000093D0004000020704700BF0D
:1003F000FEE700BFFEE700BFFEE700BFFEE7704775
:10040000704770477047000004F08CFD04F01AFD3F
:1004100002F04AFE02F02CFF03F022F802F014FD75
:1004200003F03EF802F05DFC02F044FD02F004FE31
:100430000B4803F04BF902F037F902F0D2FA00BF93
:1004400002F032FF0028FBD009E002F02DFF044645
:10045000204603F0A3FC03F0AAFC03F04BF9F4E7F9
:100460001400002010B505220021062004F002F837
:10047000EF4AF0A1002004F070FCF14AF1A1012044
:1004800004F06BFCF24AF3A1022004F066FCF6498A
:10049000032004F016F9F549042004F012F910BD08
:1004A00010B507220021062003F0E4FFF0490020E8
:1004B00004F007F9EF49012004F003F9EE490220A6
:1004C00004F0FFF8ED49032004F0FBF8EC490420A8
:1004D00004F0F7F8EB49052004F0F3F8EA4AEBA141
:1004E000062004F03AFC10BD10B5EBA1002004F08A
:1004F0000EFCEDA1012004F00AFCF0A1022004F0A2
:1005000006FCF3A1032004F002FC10BD00B585B089
:1005100009220021062003F0ADFFF24800210291DC
:10052000CDE90310F0480222CDE90010EFA1002030
:1005300004F03DF9EB48801C00210291CDE9031045
:10054000E9480222CDE90010EBA1012004F02FF9C7
:10055000E448001D00210291CDE90310E248022287
:10056000CDE90010E7A1104604F021F9DD48801D17
:1005700004900020029001460390DB480222CDE95E
:100580000010E4A1032004F012F9D64808300490CA
:100590000020029001460390D3480222CDE90010CA
:1005A000DFA1042004F003F9CE480A3000210291B3
:1005B000CDE90310CC480222CDE90010DBA10520D3
:1005C00004F0F5F8DB4ADCA1062004F0C6FBDC4AA7
:1005D000DCA1072004F0C1FBDC4ADDA1082004F007
:1005E000BCFB05B000BD00B585B003220421062088
:1005F00003F040FFD84800210291CDE90310D7480D
:100600000222CDE90010D6A1002004F0D0F8D74A8C
:10061000C9A1012004F0A1FBD549022004F051F842
:10062000D448408A0090D348408ACB49498B8842BD
:1006300001DDFD2000E002200246CFA300211A20A8
:1006400004F0DBFBCB48408B0090CA48408BC2498A
:10065000898B884201DDFD2000E002200246C6A30E
:1006600000212E2004F0C9FBC248808A0090C148B6
:10067000808AB949098C884201DDFD2000E0022012
:100680000246BDA30021422004F0B7FBB9484088D0
:100690000090B8484088B049098B884201DDFD20B0
:1006A00000E002200246B4A30021562004F0A5FB7E
:1006B000B048008A0090AF48008AA74989898842DB
:1006C00001DDFD2000E002200246ABA306211A2036
:1006D00004F093FBA748C0890090A648C0899E49B2
:1006E0004989884201DDFD2000E002200246A2A3E4
:1006F0000C211A2004F081FB9E48808900909D48BF
:10070000808995490989884201DDFD2000E00220A9
:10071000024699A312211A2004F06FFB9548008B22
:1007200000909448008B8C49C988884201DDFD20E7
:1007300000E00220024690A30621562004F05DFB53
:100740008C48008800908B480088834989888842BB
:1007500001DDFD2000E00220024687A30C21562087
:1007600004F04BFB8348C08A00908248C08A7A49D3
:100770004988884201DDFD2000E0022002467EA378
:100780001221562004F039FB7A48408900907948BC
:1007900040897149098A884201DDFD2000E002207C
:1007A000024675A318211A2004F027FB714800891E
:1007B0000090704800896849C98A884201DDFD209F
:1007C00000E0022002466CA318212E2004F015FB45
:1007D0006848C08B00906748C08B5F49898A88420F
:1007E00001DDFD2000E00220024663A31221382033
:1007F00004F003FB5F48808B00905E48808B564975
:10080000C98B884201DDFD2000E0022002465AA388
:100810000621382004F0F1FA5648C0880090554867
:10082000C0884D49498A884201DDFD20A9E0A7E042
:100830004D1A000850555348204348455353000073
:10084000AB1E000841545441434B20434152000029
:100850009521000841545441434B204341522053B9
:10086000494E474C45000000200000202C0000208D
:1008700044000020500000203800002068000020C4
:100880005C00002074000020D1260008524553452A
:100890005420414C4C0000004E414D453A20202050
:1008A0002058545A0000000051513A2020202020A6
:1008B000203534333031353337380000434F4D5015
:1008C000414E593A203530355F4C4142000000001E
:1008D000444154453A20202020323031382E3130E6
:1008E0002E323000D4070020001C9C4050574D2D64
:1008F000434845535300000050574D2D41564F4932
:100900004400000050574D2D53545241494748541C
:100910000000000050574D2D5455524E000000006D
:1009200050574D2D44454641554C540050574D2D80
:100930004D41580025220008534156450000000053
:10094000392200084C4F4445000000004D220008A9
:100950005245534554000000E607002000B0AD406A
:100960005448524553484F4C440000001723000898
:10097000800000202408002025303464000000009E
:1009800002200246AFF210031821422004F035FA8B
:10099000FE4880880090FD488088FD49C9898842CA
:1009A00001DDFD2000E002200246AFF234031821F1
:1009B000562004F022FA05B000BD00B585B0022231
:1009C0000421062003F056FDF14822300021029157
:1009D000CDE90310EF480222CDE90010AFF280010B
:1009E000002003F0E4FEEC4AAFF2B401012004F071
:1009F000B4F9E648408A0090E448408AE449498CCA
:100A0000884201DDFD2000E002200246AFF298039B
:100A100000211A2004F0F1F9DC48408B0090DB48FB
:100A2000408BDB49498C884201DDFD2000E002203B
:100A30000246AFF2BC0300212E2004F0DEF9D348B9
:100A4000808A0090D148808AD149498C884201DD52
:100A5000FD2000E002200246AFF2E4030021422024
:100A600004F0CBF9C94840880090C8484088C8497C
:100A7000498C884201DDFD2000E002200246AFF2F1
:100A800008130021562004F0B8F9C048008A0090ED
:100A9000BE48008ABE49498C884201DDFD2000E045
:100AA00002200246AFF2301306211A2004F0A5F905
:100AB000B648C0890090B548C089B549498C88427C
:100AC00001DDFD2000E002200246AFF254130C21AC
:100AD0001A2004F092F9AD4880890090AB488089D3
:100AE000AB49498C884201DDFD2000E0022002462E
:100AF000AFF27C1312211A2004F07FF9A348008B77
:100B00000090A248008BA249498C884201DDFD205B
:100B100000E002200246AFF2A0130621562004F0A6
:100B20006CF99A4800880090984800889849498C48
:100B3000884201DDFD2000E002200246AFF2C8132A
:100B40000C21562004F059F99048C08A00908F4833
:100B5000C08A8F49498C884201DDFD2000E00220D7
:100B60000246AFF2EC131221562004F046F98748F2
:100B700040890090854840898549498C884201DD3B
:100B8000FD2000E002200246AFF2142318211A20B3
:100B900004F033F97D48008900907C4800897C4945
:100BA000498C884201DDFD2000E002200246AFF2C0
:100BB000382318212E2004F020F97448C08B0090AF
:100BC0007248C08B7249498C884201DDFD2000E0EB
:100BD00002200246AFF260231221382004F00DF902
:100BE0006A48808B00906948808B6949498C8842AB
:100BF00001DDFD2000E002200246AFF28423062141
:100C0000382004F0FAF86148C08800905F48C08836
:100C10005F49498C884201DDFD2000E00220024648
:100C2000AFF2AC231821422004F0E7F8574880883F
:100C30000090564880885649498C884201DDFD2045
:100C400000E002200246AFF2D0231821562004F023
:100C5000D4F805B000BD10B507220021062003F02E
:100C600009FC4E4A4EA1002004F077F84F48028854
:100C70004FA1012004F04BF84C48428851A10220BA
:100C800004F045F84948828853A1032004F03FF856
:100C90004648C28855A1042004F039F84348027A36
:100CA00057A1052004F033F84048427A59A10620A4
:100CB00004F02DF810BD00B585B00B2200210620F0
:100CC00003F0D8FB584A59A1002004F046F85A4ACC
:100CD0005AA1012004F041F85C4A5DA1022004F011
:100CE0003CF85E4800210291CDE903105C480222E5
:100CF000CDE900105BA1032003F059FD5748801C8B
:100D000000210291CDE90310084655490222CDE9A0
:100D1000000157A1042003F04AFD5048001D049033
:100D2000002002904E4903900222CDE9000153A118
:100D3000052003F03CFD5448002104905348CDE9C0
:100D40000210084652490222CDE9000151A10620B5
:100D500003F02DFD4C48801C049000204B49CDE948
:100D6000020101464A480222CDE900104CA10720A9
:100D700003F01DFD4448001D049000204349CDE9C7
:100D8000020101464248022290E0000024080020AF
:100D9000E607002000B0AD401723000863240008D8
:100DA0004155544F20534554000000000C080020CA
:100DB000464F52574F5244202020202020202020F0
:100DC000256400004241434B574F524420202020CD
:100DD000202020202564000052494748542020202C
:100DE0002020202020202020256400004C4546544F
:100DF00020202020202020202020202025640000EA
:100E00004552524F522052414E47452053202020F8
:100E1000256400004552524F522052414E47452012
:100E200054202020256400003F13000854455354EB
:100E3000204A554D500000003B16000854455354BD
:100E40002046414C4C494E47000000005F1300080B
:100E50005245534554204D4F544F5200E007002057
:100E6000001C9C4050574D2D525553480000000027
:100E700050574D2D4A554D500000000050574D2DF4
:100E800046414C4C494E47001C0800200000F03FF2
:100E900000408F40525553482054494D45000000B2
:100EA0004A554D502054494D45000000CDE90010F1
:100EB000CCA1082003F07BFCCD4800210490CD4854
:100EC000CDE90210CC480222CDE90010CBA10920C7
:100ED00003F06DFCCD4AAFF2A0510A2003F03DFFB4
:100EE00005B000BD00B585B006220021104603F014
:100EF000C1FABF480C3800210291CDE90310C44863
:100F00000222CDE90010C3A1002003F050FCB84834
:100F10000A3804900020029001460390BC48022247
:100F2000CDE90010BEA1012003F041FCB048083813
:100F300004900020AF49CDE902010146B4480222E5
:100F4000CDE90010B9A1104603F031FCBA4AAFF266
:100F50001861032003F001FFB84AAFF218610420C2
:100F600003F0FBFEB64AAFF21861052003F0F5FE70
:100F700005B000BD00B585B011220021062003F0A8
:100F800079FAB0484289B0A1002003F0C0FEAD4814
:100F90008289B0A1012003F0BAFEAA48C289B0A19B
:100FA000022003F0B4FEA748028AB0A1032003F098
:100FB000AEFEA448428AB0A1042003F0A8FEA148D6
:100FC000428BB0A1052003F0A2FE9E48828AB0A108
:100FD000062003F09CFE9B484288B0A1072003F046
:100FE00096FE9848028BB0A1082003F090FE954829
:100FF0000288B0A1092003F08AFE9248C28AB0A1FB
:101000000A2003F084FE8F488288B0A10B2003F0F1
:101010007EFE8C480289B0A10C2003F078FE89483E
:10102000C288B0A10D2003F072FEB14800210291E8
:10103000CDE90310AF480222CDE9001084A10020C1
:1010400003F0B5FBAA48083804900020029001463E
:101050000390A8480222CDE900107DA1012003F0F1
:10106000A6FBA348801F00210291CDE9031008468A
:10107000A0490222CDE9000175A1104603F097FBBB
:101080009B48001F00210291CDE9031008469949B1
:101090000222CDE900016EA1032003F088FB9448F1
:1010A0000A30049000200290924903900222CDE978
:1010B000000167A1042003F07AFB8D480C300490F6
:1010C00000200290014603908A480222CDE90010D8
:1010D0005FA1052003F06BFB8548103004900020D1
:1010E00002900146039083480222CDE9001058A1E6
:1010F000062003F05CFB7E4808300490002002903C
:101100007C4903900222CDE9000151A1072003F0A0
:101110004EFB77480A3800210291CDE9031075484B
:101120000222CDE900104AA1082003F040FB7048DC
:101130000C38049000200290014603906D48022272
:10114000CDE9001042A1092003F031FB68480E38B8
:1011500000210291CDE9031066480222CDE900107A
:101160003BA10A2003F023FB6148801E002102916D
:10117000CDE903105F480222CDE9001034A10B2015
:1011800003F015FB5A48801D00210291CDE90310A0
:1011900058480222CDE900102DA10C2003F007FBD6
:1011A0005348801C00210291CDE9031051480222CE
:1011B000CDE9001026A10D2003F0F9FA4E4AAFF652
:1011C00088010E2003F0C9FD4C4AAFF688010F20BC
:1011D00003F0C3FD4A4AAFF68801102003F0BDFDBD
:1011E00005B000BD4241434B2054494D450000002D
:1011F000220800200000F03F00408F4041494D2070
:10120000505245434953494F4E000000892600087B
:1012100000407F404D4953532020434F554E5400CA
:101220004C4F434B2020434F554E54004D415247A5
:10123000494E2054494D45003526000849260008EE
:101240005D26000824080020464F4C2020202564FD
:10125000000000004D4C46202020256400000000C6
:101260004D4C4D2020202564000000004D4C4220B4
:101270002020256400000000424F4C2020202564DF
:1012800000000000424D4C2020202564000000009A
:10129000424D52202020256400000000424F522081
:1012A00020202564000000004D52422020202564AB
:1012B000000000004D524D20202025640000000059
:1012C0004D5246202020256400000000464F522049
:1012D0002020256400000000464D4C20202025647D
:1012E00000000000464D5220202025640000000030
:1012F000F607002000B0AD40172300082F23000898
:1013000043230008FE480088FE498988884201DDA1
:10131000012070470020FCE710B5FB4C2389E288D0
:10132000FA4CE189A08901F0E8FC2046818901207E
:1013300001F027FD4FF4FA7003F0C1FD10BD10B5A8
:1013400001F04FFB022001F098FD00BFFFF7DAFF2C
:101350000028FBD0FFF7E0FF01F008FD10BD10B53D
:1013600001F03FFB022001F088FD03E0E748C0895F
:10137000E749088001F098FF18B9E648006800289E
:10138000F4D10020E249088010BD10B5DC48808B04
:10139000DC49C98B88427DDDD948408AD949498BCF
:1013A000884205DCD6484088D649098B884212DD40
:1013B000D348C089D349498988420CDDD048008888
:1013C000D0498988884206DDD048018A032001F08F
:1013D000D8FC002010BDCA48408ACA49498B8842BF
:1013E00005DCC7484088C749098B884238DDC448B6
:1013F000C089C4494989884232DDC148C08AC1498F
:10140000498888420BDCBE480089BE49C98A8842A7
:1014100005DCBB48C088BB49498A884206DDBB4819
:10142000018A032001F0ADFC0020D3E7B748018A10
:10143000022001F0A6FC642003F041FD01F096FCBF
:10144000642003F03CFDB148018A012001F099FCC1
:101450004FF4FA7003F033FD01F088FC0020B9E787
:10146000A748408AA749498B884205DCA4484088A0
:10147000A449098B88423ADDA1480088A14989889E
:10148000884234DD9E4880899E49098988420DDC66
:101490009B4800E0B2E000899A49C98A884205DC8D
:1014A0009748C0889749498A884206DD9748018A4B
:1014B000032001F066FC00208CE79448018A02209A
:1014C00001F05FFC642003F0FAFC01F04FFC6420A3
:1014D00003F0F5FC8D48018A012001F052FC4FF425
:1014E000FA7003F0ECFC01F041FC002072E7844844
:1014F000408A8449498B884205DD8148408881497A
:10150000098B88420BDC7E48008A7E4989898842A3
:101510002FDD7B48008B7B49C988884229DD7848CC
:10152000C08B7849898A884215DD7848018A032072
:1015300001F027FC4FF4C87003F0C1FC7348018A26
:10154000012001F01EFC4FF4FA7003F0B8FC01F02A
:101550000DFC00203EE76A4840896A49098A8842B2
:1015600007DD674880886749C989884201DD012015
:1015700030E76348408A6349498B884205DC60480C
:1015800040886049098B884212DD5D48408A5D4988
:10159000498B884205DD5D48018A032001F0F1FB9B
:1015A00004E05A48018A042001F0EBFB002011E717
:1015B0005348008A53498989884205DC5048008B8A
:1015C0005049C988884212DD4D48008A4D498989B1
:1015D000884205DD4D48018A032001F0D2FB04E07A
:1015E0004A48018A042001F0CCFB0020F2E647487B
:1015F000018A032001F0C5FB0020EBE64348018A85
:10160000032001F0BEFB0020E4E610B53F48018A4C
:10161000022001F0B6FB3C49488903F050FC01F080
:10162000A5FB642003F04BFC3848018A012001F03F
:10163000A8FB282003F043FC10BD10B501F0D1F940
:10164000022001F01AFC4FF4FA7003F038FC01207C
:1016500001F013FC00BFFFF798FE0028FBD0FFF756
:10166000D4FFFFF759FE01F081FB10BD10B52A48E9
:10167000007800287ED02748001D006818B925484A
:101680001038006878B11E4800891E49C98A88420E
:1016900005DC1B48C0881B49498A884201DD0120BE
:1016A00010E000200EE0164800891649498C884257
:1016B00005DC1348C0881349498C884201DD0120AC
:1016C00000E0002028B111480188012001F059FBF9
:1016D00010BD10480C38006820B30948408B0949F8
:1016E000898B88420BDC0648808A0649098C88422F
:1016F00005DC0348808B0349C98B884210DD0DE06F
:1017000024080020E607002016080020D407002047
:101710003C080040188122428F000020012010E088
:1017200000200EE0FE48408BFE49498C884205DCD3
:10173000FB48808AFB49498C884201DD012000E09A
:10174000002028B1F8480188022001F01AFBBFE709
:10175000F64801880088401CF44A1080F44800884C
:10176000814217DB0020F349087011460880EE48DB
:10177000018800E00EE0052001F003FBEB490C8836
:10178000E11704EB5171C910A4EBC101C8B201F01B
:10179000A4FC9DE7E848006818B9E74810380068DD
:1017A000A8B1DF484089DF49098A88420BDCDC4860
:1017B0008089DC490989884205DCD948C089D94932
:1017C0004989884201DD012016E0002014E0D44858
:1017D0004089D449498C88420BDCD1488089D14961
:1017E000498C884205DCCE48C089CE49498C884264
:1017F00001DD012000E0002040B10120CD4908704A
:10180000C9480188042001F0BCFA61E7CA481438CD
:10181000006818B9C84810380068A8B1C048808866
:10182000C049C98988420BDCBD48C08ABD49498886
:10183000884205DCBA480088BA498988884201DDB7
:10184000012016E0002014E0B5488088B549498C95
:1018500088420BDCB248C08AB249498C884205DC18
:10186000AF480088AF49498C884201DD012000E083
:10187000002040B10120AF490870AB480188032027
:1018800001F07FFA24E7AC481438006818B9AA4878
:101890001038006878B1A248008BA249C9888842F4
:1018A00005DC9F4840889F49098B884201DD012063
:1018B00010E000200EE09A48008B9A49498C88423B
:1018C00005DC974840889749498C884201DD012012
:1018D00000E0002040B1012096490870924801883C
:1018E000042001F04EFAF3E693481438006818B962
:1018F00091481038006878B18948008A89498989F7
:10190000884205DC8648408A8649498B884201DD49
:10191000012010E000200EE08148008A8149498CB6
:10192000884205DC7E48408A7E49498C884201DD38
:10193000012000E0002040B101207E4908707A4873
:101940000188032001F01DFAC2E600BFC0E610B511
:10195000794810380068F0B177480068D8B1764807
:1019600014380068B8B174480838006898B17248F3
:101970001C38006878B170480C38006858B16F485E
:10198000006840B101F0F2F9022001F076FA4FF45C
:10199000FA7003F094FA6948006818B966480C3880
:1019A0000068E0B1624800886049088062481C38DD
:1019B000006850B160480838006830B15A48418822
:1019C000032001F0DEF9002010BD574841880220B5
:1019D00001F0D7F903205A4908700020F4E756486F
:1019E0001C38006818B9544808380068D8B1504805
:1019F00000884E4908805148006850B14E480C3864
:101A0000006830B148484188032001F0BAF900204D
:101A1000DAE745484188012001F0B3F9042048493C
:101A200008700020D0E74648007868B13E484188F9
:101A30004348007801F0A5F93D49888803F03FFA52
:101A400000203F490870BFE70120BDE710B5002026
:101A50003649088000F0C5FF022001F00EFA00BFF1
:101A6000FFF750FC0028FBD033480068B0B1324883
:101A70001438006890B130481038006870B14FF4E5
:101A80002F71022001F07DF9642003F018FA01F0B3
:101A90006DF9642003F013FAFFF73EFC08E0FFF74E
:101AA00056FF10B1FFF7E2FD02E000202549087063
:101AB00001F0FAFB0028F2D001F058F910BD10B582
:101AC0001C48007800287CD01B48006818B91A48C8
:101AD0001438006878B1124800891249C98A8842CE
:101AE00005DC0F48C0880F49498A884201DD012082
:101AF0002BE0002029E00A4800890A49498C8842E5
:101B00000BDC0748C0880749498C884205DC04483B
:101B1000C08B0449898A884216DD012015E0000047
:101B200024080020E6070020D40700208C000020B5
:101B3000160800208F0000201C8122423001224222
:101B4000900000208E000020002090B1FE48006828
:101B500018B9FD481438006828B1FC488188012074
:101B600001F00FF910BDF9484189012001F009F990
:101B7000F8E7F5481038006878B1F548408BF5492A
:101B8000898B884205DCF248808AF249098C8842B8
:101B900001DD012017E0002015E0ED48408BED4904
:101BA000498C88420BDCEA48808AEA49498C8842A1
:101BB00005DCE748808BE749C98B884202DD0120BC
:101BC00001E031E0002078B1DF481038006828B12A
:101BD000DE488188012001F0D4F8C3E7DB48418961
:101BE000022001F0CEF8BDE7DB4801880088401CE8
:101BF000D94A1080D9480088814215DB0020D84995
:101C0000087011460880D1480189052001F0B9F813
:101C1000D1490C88E11704EB5171C910A4EBC10143
:101C2000C8B201F05AFA9DE7C748006818B9C6481B
:101C300010380068A8B1C6484089C649098A884258
:101C40000BDCC3488089C3490989884205DCC04848
:101C5000C089C0494989884201DD012016E0002081
:101C600014E0BB484089BB49498C88420BDCB8482A
:101C70008089B849498C884205DCB548C089B54996
:101C8000498C884201DD012000E0002040B10120A4
:101C9000B3490870AD48C188042001F072F861E7CB
:101CA000A9481438006818B9A74810380068A8B1C6
:101CB000A7488088A749C98988420BDCA448C08A04
:101CC000A4494988884205DCA1480088A14989883F
:101CD000884201DD012016E0002014E09C48808845
:101CE0009C49498C88420BDC9948C08A9949498CA7
:101CF000884205DC964800889649498C884201DD77
:101D0000012000E0002040B10120954908708F4873
:101D1000C188032001F035F824E78B4814380068A7
:101D200018B989481038006878B18948008B89490A
:101D3000C988884205DC864840888649098B8842E4
:101D400001DD012010E000200EE08148008B814978
:101D5000498C884205DC7E4840887E49498C88420F
:101D600001DD012000E0002040B101207C49087025
:101D70007648C188042001F004F8F3E6724814386C
:101D8000006818B970481038006878B17048008A47
:101D900070498989884205DC6D48408A6D49498BC4
:101DA000884201DD012010E000200EE06848008A32
:101DB0006849498C884205DC6548408A6549498CF8
:101DC000884201DD012000E0002040B1012064498B
:101DD00008705E48C188032000F0D3FFC2E600BF50
:101DE000C0E610B55F48006818B957480C3800685D
:101DF00000B35A4800885849088053481C38006886
:101E000070B151480838006850B1FFF7BEFA28B1E8
:101E1000FFF7FBFBFFF780FA002010BD0020FCE776
:101E20004A484188022000F0ACFF03204E49087068
:101E30000020F2E744481C38006818B942480838C6
:101E40000068F8B145480088434908804548006863
:101E500070B13D480C38006850B1FFF796FA28B1D0
:101E6000FFF7D3FBFFF758FA0020D6E70020D4E7AE
:101E700036484188012000F084FF04203A49087068
:101E80000020CAE73848007868B1304841883648B1
:101E9000007800F076FF3149888803F010F80020C0
:101EA00031490870B9E70120B7E710B500202A4989
:101EB000088000F096FD022000F0DFFF00BFFFF772
:101EC00021FA0028FBD020480068B0B11E48143821
:101ED000006890B11C481038006870B14FF42F7141
:101EE000022000F04EFF642002F0E9FF00F03EFF08
:101EF000642002F0E4FFFFF70FFA08E0FFF771FF3C
:101F000010B1FFF7DCFD02E000201549087001F078
:101F1000CBF90028F2D000F029FF10BD10B5104811
:101F20000078002873D00848006818B906481438AB
:101F3000006810B3064800890649C98A884218DC3F
:101F40000348C088034911E01C812242D4070020C5
:101F500024080020E60700208C000020160800203E
:101F60008F0000203001224290000020498A8842E0
:101F700001DD012016E0002014E0A3480089A349F8
:101F8000498C88420BDCA048C088A049498C884213
:101F900005DC9D48C08B9D49898A884201DD01206E
:101FA00000E0002090B19A48006818B998481438A9
:101FB000006828B197488188012000F0E2FE10BD3A
:101FC00094484189012000F0DCFEF8E7924801883E
:101FD0000088401C904A108090480088814216DB9F
:101FE00000208F490870114608808A480189052021
:101FF00000F0C7FE88490C88E11704EB5171C91045
:10200000A4EBC101C8B201F068F8D8E7FFE7804847
:10201000006818B97E481038006838B37A4840899B
:102020007A49098A88421DDC77488089774909897D
:10203000884217DC7448C08974494989884211DC98
:102040007148008A7149898988420BDC6E48408A50
:102050006E49498B884205DC6B48408B6B49898B04
:10206000884201DD012028E0002026E06648408902
:102070006649498C88421DDC634880896349498CE4
:10208000884217DC6048C0896049498C884211DC6D
:102090005D48008A5D49498C88420BDC5A48408A79
:1020A0005A49498C884205DC5748408B5749498C2E
:1020B000884201DD012000E0002040B101205849A4
:1020C00008705448C188042000F05BFE77E7504850
:1020D0001438006818B94E481038006838B34A48B8
:1020E00080884A49C98988421DDC4748C08A4749D7
:1020F0004988884217DC44480088444989888842D6
:1021000011DC4148008B4149C98888420BDC3E48BC
:1021100040883E49098B884205DC3B48808A3B4920
:10212000098C884201DD012028E0002026E03648A5
:1021300080883649498C88421DDC3348C08A33493F
:10214000498C884217DC304800883049498C8842E5
:1021500011DC2D48008B2D49498C88420BDC2A4824
:1021600040882A49498C884205DC2748808A2749CB
:10217000498C884201DD012000E0002040B10120AF
:10218000274908702348C188032000F0FAFD16E7AC
:1021900000BF14E710B500201F49088000F021FCA3
:1021A000022000F06AFE00BFFFF7ACF80028FBD069
:1021B00017480068B0B116481438006890B1144848
:1021C0001038006870B14FF42F71022000F0D9FD73
:1021D000642002F074FE00F0C9FD642002F06FFE7E
:1021E000FFF79AF808E0FFF7FCFD10B1FFF796FE45
:1021F00002E000200A49087001F056F80028F2D0E9
:1022000000F0B4FD10BD000024080020E607002007
:102210001C812242D40700208C00002016080020D8
:102220008F00002010B50922F749F84801F0DBF9CA
:10223000012000F022FE10BD10B50922F249F3483A
:1022400001F0C0F9012000F018FE10BD4FF4167027
:10225000ED49088040F24C4048804FF42F70888050
:102260004FF44870C8804FF4FA70088140F2135060
:1022700048814FF4487088814FF4AF60C8814FF4B3
:10228000FA700882704710B5FFF7E0FFFFF7CAFF4A
:1022900010BDDF490988DE4A928C881ADC4909881A
:1022A000DB4A91841146498B014451831146898B45
:1022B000014491831146098C014411841146098B14
:1022C000014411831146098A014411821146C98AC9
:1022D0000144D1821146498A014451821146C9897B
:1022E0000144D181114689890144918111460989AE
:1022F0000144118111464989014451811146C9881F
:102300000144D18011464988014451801146898891
:1023100001449180704710B51322BD49BD4801F0BA
:1023200062F9FFF7B6FF012000F0A7FD10BD10B560
:102330001322B749B74801F045F9012000F09DFD8F
:1023400010BD40F21450B249088008460088488306
:102350000846008888834FF46170C88388820846E5
:102360000088088408460088088308460088088298
:1023700008460088C88208460088488208460088C7
:10238000C881084600888881084600880881084678
:102390000088488108460088C88008460088488030
:1023A00008460088888008460088888440F24C40AF
:1023B0004884704710B5FFF7C4FFFFF7ACFF10BDAE
:1023C00010B506229449954801F00DF9012000F05E
:1023D00054FD10BD10B506228F49904801F0F2F867
:1023E000012000F04AFD10BD00208B490880488084
:1023F0008880C88008724872704710B5FFF7F4FFF4
:10240000FFF7DEFF10BD10B503460024002205E0F3
:1024100033F81200204484B2501CC2B28A42F7DB67
:1024200094FBF1F080B210BD2DE9F04105460E4657
:1024300031462846FFF7E7FF804600240AE035F8DA
:102440001400B84202DA35F8140000E038460746B6
:10245000601CC4B2B442F2DBA8EB070080B2BDE856
:10246000F08130B58FB000F0BCFA022000F005FD1D
:1024700065488188012000F084FC4FF4967002F0DA
:102480001EFD002409E001F060F80CA921F81400F9
:10249000322002F014FD601CC4B2052CF3DB0521D0
:1024A0000CA8FFF7B0FF5C49088005210CA8FFF7D6
:1024B000BBFFADF804004FF4967002F000FD00F091
:1024C00055FC4FF4FA7002F0FAFC4F488188022064
:1024D00000F057FC4FF4967002F0F1FC002409E084
:1024E00001F033F809A921F81400322002F0E7FCCA
:1024F000601CC4B2052CF3DB052109A8FFF783FF9C
:1025000045494880052109A8FFF78EFFADF8060070
:102510004FF4967002F0D3FC00F028FC4FF4FA70F0
:1025200002F0CDFC3848C188042000F02AFC4FF4AA
:10253000967002F0C4FC002409E001F006F803A93B
:1025400021F81400322002F0BAFC601CC4B2052C41
:10255000F3DB052103A8FFF756FF2F49C8800521AB
:1025600003A8FFF761FFADF808004FF4967002F082
:10257000A6FC00F0FBFB4FF4FA7002F0A0FC22482E
:10258000C188032000F0FDFB4FF4967002F097FC29
:10259000002409E000F0D9FF06A921F81400322038
:1025A00002F08DFC601CC4B2052CF3DB052106A8EB
:1025B000FFF729FF18498880052106A8FFF734FF97
:1025C000ADF80A004FF4967002F079FC00F0CEFBF3
:1025D0004FF4FA7002F073FCBDF80600BDF8041069
:1025E000884202DDBDF8060001E0BDF80400C5B276
:1025F000681D09490872BDF80800BDF80A10884234
:102600000EDDBDF808000DE0D407002000F0000842
:10261000E607002000F400080C08002000F800087D
:10262000BDF80A00C5B2681D2C494872FFF7C8FE04
:102630000FB030BD10B5072229492A4800F0D3FF5A
:10264000012000F01AFC10BD10B5072224492548CE
:1026500000F0B8FF012000F010FC10BD0A20204956
:10266000088014204880962088800A20C880642032
:10267000088148814FF496708881704710B5FFF744
:10268000EDFFFFF7D7FF10BD10B5FFF7CBFDFFF74C
:10269000D1FF10BD10B5FFF7C5FDFFF73CFEFFF7FA
:1026A000C9FFFFF78DFE10BD10B5FFF7C5FDFFF7A1
:1026B0003EFEFFF7C9FFFFF78DFE10BD00B5FFF727
:1026C000C5FDFFF73EFEFFF7C9FFFFF78DFE00BD1A
:1026D00010B5FFF7F3FFFFF7DDFF10BD0C0800207A
:1026E0001608002000FC000870B504460E462EB106
:1026F0004FF48061FE4802F048FD04E04FF4806131
:10270000FB4802F044FD4FF48051F94802F03FFDD0
:1027100000251BE04FF40051F54802F038FD04F0AD
:10272000800028B14FF40041F14802F02EFD04E092
:102730004FF40041EE4802F02AFD4FF40051EC48FE
:1027400002F023FD6006040E681CC5B2082DE1DB13
:102750004FF48051E64802F018FD4FF48061E448E0
:1027600002F013FD70BD70B504460D4605F1B001D1
:10277000C8B20021FFF7B8FF102141EA1410002170
:10278000FFF7B2FF04F00F0141F001000021FFF755
:10279000ABFF70BD10B500218D20FFF7A5FF002114
:1027A0001420FFF7A1FF0021AF20FFF79DFF10BD10
:1027B00010B500218D20FFF797FF00211020FFF7B3
:1027C00093FF0021AE20FFF78FFF10BD70B50024EE
:1027D00019E004F1B001C8B20021FFF785FF002124
:1027E0000220FFF781FF00211020FFF77DFF002569
:1027F00005E001210020FFF777FF681CC5B2802D9E
:10280000F7DB601CC4B2082CE3DB70BD2DE9F0419E
:1028100007460E46904600250024A8F12000C5B2C8
:102820007F2F02DD0027B01CC6B231463846FFF7C5
:102830009AFF002408E004EB0511AE4A505C012128
:10284000FFF752FF601CC4B2082CF4DB701CC1B24D
:102850003846FFF788FF002409E004EB0511083132
:10286000A44A505C0121FFF73FFF601CC4B2082C52
:10287000F3DBBDE8F08110B50246012000E05043D3
:102880000B1EA1F10104E1B2F9D110BD2DE9FF5FEA
:10289000074691461D460E9E4FF0000A002433E085
:1028A000281B401EC1B20A20FFF7E5FFB9FBF0F07C
:1028B0000A21B0FBF1F201FB1208BAF1000F13D1AB
:1028C000681EA04210DDB8F1000F0BD1B34606EB35
:1028D000DB71491001FB0471C8B220220199FFF796
:1028E00095FF0FE04FF0010AB34606EBDB7149108C
:1028F00001FB0471C8B208F13001CAB20199FFF7B7
:1029000085FF00BF601CC4B2AC42C9DBBDE8FF9FBD
:102910002DE9F04104460F46154600260EE0AA5D5B
:1029200039462046FFF772FF04F10800C4B2782C44
:1029300002DD0024B81CC7B2701CC6B2A85D002816
:10294000EDD1BDE8F0812DE9F04180460E461546F7
:10295000002731464046FFF706FF00240AE0664A9A
:1029600002EB8511085D0121FFF7BEFE781CC7B29E
:10297000601CC4B2102CF2DB701CC1B24046FFF7E1
:10298000F2FE00240CE06900491C5B4A02EB411195
:10299000085D0121FFF7A8FE781CC7B2601CC4B215
:1029A000102CF0DBBDE8F0812DE9F04107460C4624
:1029B0001646254611E0311B491C8022A2EB011866
:1029C00008EBD8714A10291B02EB0111C8B22A4644
:1029D0003946FFF7B8FF681CC5B2B542EBDDBDE86C
:1029E000F08110B5FFF7F2FE052200210120FFF76C
:1029F000DBFF092206210520FFF7D6FF10BD08B531
:102A00000121402002F0D0FD4020ADF80000102050
:102A10008DF8030003208DF802006946374802F064
:102A200007FB4021354802F0B0FB0121082002F0ED
:102A3000BBFD4FF43440ADF8000069462C4802F06D
:102A4000F7FA4FF434412A4802F09FFB40212B480B
:102A500002F09BFB642002F032FA4021274802F08A
:102A600096FB642002F02BFA4021244802F08DFBF3
:102A70000021AE20FFF738FE00210220FFF734FED0
:102A800000211020FFF730FE00214020FFF72CFE30
:102A900000218120FFF728FE0021CF20FFF724FE30
:102AA0000021A120FFF720FE0021C820FFF71CFE17
:102AB0000021A620FFF718FE0021A820FFF714FE32
:102AC00000213F20FFF710FE0021D320FFF70CFE6E
:102AD00000210846FFF708FE0021D520FFF704FE7D
:102AE00000218020FFF700FE0021D92008E000002F
:102AF000000C0140468200089100002000180140AF
:102B0000FFF7F2FD0021F120FFF7EEFD0021DA20B2
:102B1000FFF7EAFD00211220FFF7E6FD0021DB2090
:102B2000FFF7E2FD00214020FFF7DEFD002120201D
:102B3000FFF7DAFD00210220FFF7D6FD00218D20EE
:102B4000FFF7D2FD00211420FFF7CEFD0021A420C5
:102B5000FFF7CAFD0021A620FFF7C6FD0021AF2028
:102B6000FFF7C2FD0021AF20FFF7BEFDFFF72EFEED
:102B700008BD000030B589B005460C46012104208F
:102B800002F01FFD0121082002F00EFD4FF44070FD
:102B9000ADF8200018208DF8230003208DF82200C6
:102BA00008A9A44802F044FAA34802F0CFFDADF80A
:102BB0001850ADF814400020ADF81A00ADF816001A
:102BC00005A99D4802F096FE7020ADF80400012092
:102BD000ADF806000020ADF80A000220ADF80C00A8
:102BE00001A9954802F052FF01A9934802F099FF0C
:102BF0000121914803F0E6F908218F4803F01CFBFE
:102C000008218D4803F021FB01218B4803F0CEFA07
:102C10000121894803F0CAF909B030BD30B589B047
:102C200005460C460121C80202F0BEFC0121042029
:102C300002F0BAFC4FF47060ADF8200018208DF857
:102C4000230003208DF8220008A97C4802F0F0F947
:102C50007B4802F07BFDADF81850ADF81440002021
:102C6000ADF81A00ADF8160005A9754802F042FE4D
:102C70007020ADF804000120ADF806000020ADF88A
:102C80000A00ADF80C0001A96D4802F070FE01A920
:102C90006B4802F0AEFE01A9694802F0F7FE01A9F7
:102CA000674802F03EFF0121654803F08BF90821D7
:102CB000634803F0ABFA0821614803F0B0FA082139
:102CC0005F4803F0B9FA08215D4803F0BEFA01211C
:102CD0005B4803F06BFA0121594803F067F909B02A
:102CE00030BD10B5002140F20770FFF797FF0021BB
:102CF00040F20770FFF73EFF10BD2DE9F04104469A
:102D00000D4616461F46B4F5E16F01DB40F207742D
:102D1000B5F5E16F01DB40F2077546B14848343044
:102D20000480474840300480304602F0C8F84248EA
:102D30003C30058000BF434800680028FBD00A20D3
:102D400002F0BDF800BF3F4800680028FBD13A49B7
:102D50003C310880384602F0B2F80020384934315E
:102D60000880374940310880BDE8F08100203449AF
:102D700034310880091D0880091D0880091D08805C
:102D80007047B1F5E16F01DB40F20771052843D2CE
:102D9000DFE800F037030F1C2A00294A3432118083
:102DA0000022274B38331A801B1D1A801A1D1180F0
:102DB0003EE00022224B34331A801A1D1180121D6E
:102DC000118000221E4B40331A8031E01C4A3432FD
:102DD000118000221A4B38331A801A1D11800022EC
:102DE000174B40331A8023E00022154B34331A80EE
:102DF0001A1D11800022124B3C331A801A1D1180BB
:102E000016E000220E4B34331A801B1D1A801B1D46
:102E10001A801B1D1A8000BF094A3432118000221B
:102E2000074B38331A801B1D1A801A1D118000BFF2
:102E300000BF7047000C014000080040000801403E
:102E4000002C01401881224208B50121202002F007
:102E5000ABFB4FF48070ADF8000010208DF803003C
:102E600003208DF8020069460F4802F0E1F84FF4A4
:102E700080710D4802F08BF908BD10B504460CE0D6
:102E800001200A490860642002F019F8002008496E
:102E9000C1F8A001642002F012F8201EA4F1010183
:102EA000CCB2EDD110BD000000140140A08122423F
:102EB0000080224200B587B001214FF4077002F074
:102EC00073FB4FF4004002F0D3FAFF20ADF804008A
:102ED00000208DF8070001A9534802F0A9F803204B
:102EE000ADF8040001A9514802F0A2F83F20ADF866
:102EF000040001A94E4802F09BF84E4803F034FB51
:102F00000020029001208DF80C008DF80D004FF488
:102F1000602004900020059010208DF8180002A970
:102F2000444803F048FB072301220021414803F0F5
:102F3000DAFB0723022201213E4803F0D4FB0723DA
:102F4000032202213B4803F0CEFB07230422032186
:102F5000384803F0C8FB072305220421354803F055
:102F6000C2FB072306220521324803F0BCFB0723DE
:102F70001A4606212F4803F0B6FB072308221946FC
:102F80002C4803F0B0FB072309220821294803F04D
:102F9000AAFB07230A220921264803F0A4FB0723E2
:102FA0000B220A21234803F09EFB07230C220B214E
:102FB000204803F098FB07230D220C211D4803F045
:102FC00092FB07230E220D211A4803F08CFB0723E6
:102FD0000F220E21174803F086FB072310220F2132
:102FE000144803F080FB0121124803F01BFB012170
:102FF000104803F00CFB0F4803F02BFB00BF0D48FB
:1030000003F02CFB0028FAD10A4803F031FB00BF83
:10301000084803F032FB0028FAD10121054803F0EB
:1030200036FB07B000BD000000080140000C014065
:10303000001001400024014000B58BB0012108467A
:1030400002F0A5FA154803F0B7FC154800901548A2
:103050000190002002901020039000200490802016
:103060000590400006908000079020200890000204
:10307000099000200A906946084803F03FFD0121AD
:10308000064803F066FD0BB000BD10B5022003F04A
:103090009AFD10B1022003F0AAFD10BD0800024005
:1030A0004C2401402408002008B50121202002F012
:1030B0007BFA4FF46060ADF8000010208DF803003B
:1030C00003208DF802006946684801F0B1FF4FF413
:1030D0006061664802F05BF808BD10B50446092C33
:1030E00076D2DFE804F0860515253545556576006E
:1030F0004FF400615D4802F048F84FF480615B488E
:1031000002F043F84FF40071584802F03EF880E0B6
:103110004FF40061554802F03AF84FF4806153488B
:1031200002F033F84FF40071504802F02EF870E0CE
:103130004FF400614D4802F028F84FF480614B488D
:1031400002F025F84FF40071484802F01EF860E0E4
:103150004FF40061454802F01AF84FF4806143488B
:1031600002F015F84FF40071404802F00EF850E0FC
:103170004FF400613D4802F008F84FF480613B488D
:1031800002F003F84FF40071384802F000F840E014
:103190004FF40061354801F0FAFF4FF48061334885
:1031A00001F0F3FF4FF40071304801F0F0FF30E020
:1031B0004FF400612D4801F0E8FF4FF480612B4887
:1031C00001F0E5FF4FF40071284801F0E0FF20E036
:1031D0000FE04FF40061254801F0D9FF4FF4806102
:1031E000224801F0D4FF4FF40071204801F0CFFFD6
:1031F0000FE04FF400611D4801F0C7FF4FF48061FC
:103200001A4801F0C2FF4FF40071184801F0BDFFE9
:1032100000BF00BF10BD2DE9F04106460C468EB937
:1032200001250CE02846FFF758FF2746E11704EB7D
:103230005171C1F3CF0001F042FE681CC5B2082DE8
:10324000F0DD10E008250CE02846FFF746FF274692
:10325000E11704EB5171C1F3CF0001F030FE681E9D
:10326000C5B2012DF0DABDE8F08100000014014084
:1032700008B50121302002F097F94FF47040ADF805
:10328000000048208DF8030003208DF802006946F5
:103290006F4801F0CDFE4FF40460ADF800006946C0
:1032A0006C4801F0C5FE08BD10B500246A480068EE
:1032B00090B16A48006878B167480C38006858B126
:1032C00066481438006838B16348001F006818B1B8
:1032D000614808380068F0B90A2001F0F0FD5E4846
:1032E0000C38006800B903245B48001F006800B96F
:1032F00004245A481438006800B905245648083890
:10330000006800B906245448006800B901245348F5
:10331000006800B9022400BF4F4800680028FBD0B5
:103320004E4800680028F7D04B480C380068002849
:10333000F2D04A48143800680028EDD04648001FF3
:1033400000680028E8D04448083800680028E3D026
:10335000204610BD10B54048006860B90A2001F051
:10336000AEFD3D48006830B900BF3B48006800280A
:10337000FBD0012010BD0020FCE710B537480068E5
:1033800060B90A2001F09BFD3448006830B900BFE5
:10339000324800680028FBD0012010BD0020FCE767
:1033A00010B52D480C38006870B90A2001F087FD6F
:1033B00029480C38006838B900BF27480C38006825
:1033C0000028FAD0012010BD0020FCE710B52248EB
:1033D000001F006870B90A2001F071FD1E48001F2F
:1033E000006838B900BF1C48001F00680028FAD0E8
:1033F000012010BD0020FCE710B518481438006803
:1034000070B90A2001F05BFD14481438006838B91F
:1034100000BF1248143800680028FAD0012010BDFF
:103420000020FCE710B50C480838006870B90A2085
:1034300001F045FD08480838006838B900BF064863
:10344000083800680028FAD0012010BD0020FCE7F1
:1034500000140140001001403C8122422C01224214
:1034600008B50121302002F09FF8FF20ADF80000E0
:1034700004208DF8030003208DF8020069460648F9
:1034800001F0D6FD4FF48050ADF8000069460348C6
:1034900001F0CEFD08BD0000001401400010014005
:1034A00000B587B00121022002F08BF8012109202C
:1034B00002F07AF801F0B2FD0121344801F089FEF2
:1034C0003020ADF8180004208DF81B0003208DF883
:1034D0001A0006A92E4801F0ABFD2E4802F036F97D
:1034E00003A802F033FD40F29C50ADF8100000201C
:1034F000ADF80C00ADF81200ADF80E0003A9254898
:1035000002F0F8F90A231A460321224802F001FECC
:10351000684602F02EFD0620ADF8080069461D48F9
:1035200002F07BFC01211B4803F006F80122114642
:10353000184802F056FD0020164924310880012168
:10354000144802F033FD07B000BD124A243210883F
:10355000C21700EB9272911000200E4A24321080A4
:10356000B32903DD40F26710401A00E0084680B23C
:10357000704708481030008806481030008820F056
:1035800001000449103108807047000000081A004B
:10359000000C0140000400400146088870472DE9F6
:1035A000F04105460E461746002407E036F8141091
:1035B000284603F092FCAD1C601C84B2BC42F5DBD3
:1035C000BDE8F08130B503460C461546002207E001
:1035D0001846FFF7E1FF24F812009B1C501C82B232
:1035E000AA42F5DB30BD2DE9F05F80468A461746DA
:1035F000B8F1006F02D33348804501D3BDE8F09F96
:1036000003F023FBA8F1006B4FEADB25CBF349095C
:10361000C9F58064A74200DC3C464DE04FF00061F4
:1036200001EBC5204A142849FFF7CCFF00260BE028
:1036300009EB0600244931F810004FF6FF7188426B
:1036400000D003E0701C86B2A642F1DB00BFA642A8
:103650001BDA4FF0006101EBC52003F03BFB0026B5
:1036600008E03AF8160006EB0901174A22F81100A3
:10367000701C86B2A642F4DB4FF0006101EBC5205E
:103680004A141149FFF78BFF04E022465146404699
:10369000FFF785FFA74200D10FE06D1C4FF0000936
:1036A0000AEB440AA044381B87B2B7F5806F02DDED
:1036B0004FF4806400E03C46B0E700BF03F0D1FA6D
:1036C00000BF9BE7000008084408002010B504462E
:1036D00000F000FA4FF480611E4803F094FD20468C
:1036E00000F055FB10BD10B54FF48061194803F090
:1036F0008AFD10BD10B5174800F09CFAFFF7F3FFE4
:1037000010BDF0B50B460024802801D2402B00D319
:10371000F0BD0726A6EBD306F1B203F00705C5F10D
:1037200007070126BE40F4B24AB10A4E06EBC006B6
:10373000765C2643074F07EBC0077E5408E0054E32
:1037400006EBC006765CA643024F07EBC0077E542B
:1037500000BFDDE7441000202DE9F04106460F468A
:1037600015461C4605F0030030B1012829D0022877
:1037700008D0032826D114E0002239463046FFF74E
:10378000C0FF25E004F0010028B10122394630468F
:10379000FFF7B7FF04E0002239463046FFF7B1FFDC
:1037A00016E004F00300022805D301223946304612
:1037B000FFF7A7FF04E0002239463046FFF7A1FFDC
:1037C00006E000BF012239463046FFF79AFF00BFEE
:1037D00000BFBDE8F0812DE9FF4F81B0814603981D
:1037E000A0EB090004B202990498401A05B2002C1B
:1037F00001DD012000E000200121C1EB400A002D85
:1038000001DD012000E000200121C1EB400B0FFA97
:1038100089F702980FFA80F8002000900026002C0B
:1038200001DA604200E0204604B2002D01DA68426D
:1038300000E0284605B2AC421EDD0FFA89F716E01B
:103840000098401C009041463846009B0E9AFFF7B6
:1038500083FF701906B2B4EB460F05DC08EB0B00D2
:103860000FFA80F8301B06B207EB0A0007B2039884
:103870005044B842E4D11EE002980FFA80F816E0F6
:103880000098401C009041463846009B0E9AFFF776
:1038900063FF301906B2B5EB460F04DC07EB0A00F4
:1038A00007B2701B06B208EB0B000FFA80F8049801
:1038B00058444045E4D105B0BDE8F08F2DE9F84FFC
:1038C00004460D4690464FF0000B002D01DCBDE88C
:1038D000F88F012D08D154F8049BD4F800A00122E0
:1038E00051464846FFF70DFF54F8049B54F804ABCB
:1038F0004FF0010B0FE040CC80CC3B4632465146A6
:103900004846CDF80080FFF766FFB146BA460BF196
:10391000010000F0FF0BAB45EDDB00BFD7E72DE961
:10392000F84F07460C4690461E460A9D4FF0000A87
:10393000D14605F0040008B9002D33D1474502D91E
:10394000BA464746D046B44202D9A2463446564605
:1039500015B94FF0000901E04FF00109B44209D157
:103960002346424621463846CDF80090FFF733FF04
:10397000BDE8F88F474508D133463A4621463846D8
:10398000CDF80090FFF727FFF2E708E02346424614
:1039900021463846CDF80090FFF71DFF641CB44265
:1039A000F4D91BE033463A46214638460095FFF7E6
:1039B00012FF33464246314638460095FFF70BFF6B
:1039C00033464246214640460095FFF704FF234612
:1039D0004246214638460095FFF7FDFE00BFC7E787
:1039E0002DE9F84F06460F469046994600241FFAE7
:1039F00088F50320A0EB48000FFA80FA65E0B9F1E2
:103A0000040F20D101207B19321B79190090301945
:103A1000FFF7E1FE01207B1B321B791B0090301960
:103A2000FFF7D9FE01203B19721B3919009070195C
:103A3000FFF7D1FE01203B1B721B391B0090701950
:103A4000FFF7C9FE27E0791930194A46FFF759FEFA
:103A50007919301B4A46FFF754FE791B30194A4644
:103A6000FFF74FFE791B301B4A46FFF74AFE391914
:103A700070194A46FFF745FE3919701B4A46FFF791
:103A800040FE391B70194A46FFF73BFE391B701B7D
:103A90004A46FFF736FE601C84B2BAF1000F0EDB17
:103AA000681E85B2A0000FFA80FBABEB85000FFA11
:103AB00080FB0BF10A0050440FFA80FA05E0062063
:103AC00000EB840050440FFA80FAA54297DCBDE871
:103AD000F88F000008B50121402001F065FD40206D
:103AE000ADF8000010208DF8030003208DF80200CF
:103AF0006946724801F09CFA4021704801F045FB8C
:103B00000121082001F050FD4FF43440ADF80000D1
:103B100069466B4801F08CFA4FF43441684801F073
:103B200034FB4021654801F030FB642001F0C7F907
:103B30004021624801F02BFB642001F0C0F94021D4
:103B40005E4801F022FB0021AE20FEF7CDFD0021F2
:103B50000220FEF7C9FD00211020FEF7C5FD00215F
:103B60004020FEF7C1FD00218120FEF7BDFD0021B0
:103B7000CF20FEF7B9FD0021A120FEF7B5FD002101
:103B8000C820FEF7B1FD0021A620FEF7ADFD002103
:103B9000A820FEF7A9FD00213F20FEF7A5FD00218A
:103BA000D320FEF7A1FD00210846FEF79DFD002170
:103BB000D520FEF799FD00218020FEF795FD00211C
:103BC000D920FEF791FD0021F120FEF78DFD0021A7
:103BD000DA20FEF789FD00211220FEF785FD002185
:103BE000DB20FEF781FD00214020FEF77DFD002156
:103BF0002020FEF779FD00210220FEF775FD00214F
:103C00008D20FEF771FD00211420FEF76DFD0021CF
:103C1000A420FEF769FD0021A620FEF765FD002126
:103C2000AF20FEF761FD0021AF20FEF75DFDFEF73E
:103C3000CDFD08BD70B506460024002500BF19E083
:103C400004F1B001C8B20021FEF74EFD00210220B0
:103C5000FEF74AFD00211020FEF746FD002506E094
:103C600006EBC501085D0121FEF73EFD6D1C802DB0
:103C7000F6DB641C082CE3DB70BD70B5002419E092
:103C800004F1B001C8B20021FEF72EFD0021022090
:103C9000FEF72AFD00211020FEF726FD002505E095
:103CA00001210020FEF720FD681CC5B2802DF7DB46
:103CB000601CC4B2082CE3DB70BD0000001801409A
:103CC000000C01404C4800210160017100204A496C
:103CD00048718871704748498979474A505411465C
:103CE0008979491CC9B29171052901DB00219171C3
:103CF000704741484079404A9279904201D1002072
:103D000070473D4840793C4A115C10464079401C60
:103D1000C0B25071052801DB002050710846EFE762
:103D2000F8B5044600BF00BF206803F04DFA001D3F
:103D300000EB40004006060EC6F18000C0F34705C8
:103D400020682EA3012238210090A81C00F05FFB00
:103D500001203923AA1C194600900620FFF73BFDDD
:103D60000120A9190090881E392379221946FFF7EE
:103D700032FD606850B12348007838B9852022A30D
:103D8000012238210090002000F041FBF8BD00B571
:103D900002461E480260FFF795FF00BD00B50346CE
:103DA0001846FFF798FF00BD19480078704710B516
:103DB000FFF79FFF1649087014480068FFF7B0FF2F
:103DC000124909688868804711480078022812D192
:103DD0000C48007878B90D480068406858B10B4825
:103DE000006840680949086000200A4909680870AD
:103DF00008490968487010BD980700205B202573AA
:103E0000205D0000A007002025630000940700202B
:103E10009F070020B4070020022910D003DC41B125
:103E2000012912D104E0FD290AD0FE290DD101E0BB
:103E300000BF00BFF94A0CCAC0E90023704700BFA9
:103E4000F74B0CCBC0E90023F8E7F44B0CCBC0E9EF
:103E5000002300BFF2E72DE9FE4F044688461546D1
:103E60001E460120029004F0FF0B31466846FFF722
:103E7000D3FF9DF8000030400290A5F12000C5B2AC
:103E80009DF80200401E47B233E09DF802100198F1
:103E900005FB010010F807904FF0000A23E009F03D
:103EA000800028B141462046029AFFF72AFC09E02B
:103EB000029808B9012000E0002002464146204651
:103EC000FFF71FFC4FEA49604FEA1069641CA4EB3E
:103ED0000B00082803D15C4608F1010806E00AF14E
:103EE000010000F0FF0ABAF1080FD8DB00BF781E0E
:103EF00047B2002FC9DABDE8FE8F2DE9FC41064626
:103F0000884614461F46002539466846FFF784FF59
:103F10000AE0625D3B4641463046FFF79CFF9DF854
:103F200001000644681CC5B2605D0028F1D1BDE8FF
:103F3000FC812DE9FF4F9FB01D461F9800F0FF0840
:103F400000201C9003201B9001200C90219908A8B0
:103F5000FFF762FF0020129010904FE215F8011B4E
:103F60004CB204B94FE2252C0BD0E2B24046DDE959
:103F70002013FFF770FF9DF82100404400F0FF0878
:103F800037E200208146834600BF199015F8011BD7
:103F90004CB2302C05D14FF0010915F8011B4CB281
:103FA0000EE02D2C05D14FF0020915F8011B4CB283
:103FB00006E02E2C04D101201C9015F8011B4CB2F8
:103FC00018E01C9801280BD1199800EB800004EB35
:103FD00040003038C0B2199015F8011B4CB209E00E
:103FE0000BEB8B0004EB4000303800F0FF0B15F8B2
:103FF000011B4CB2302C01DB392CE2DD1C9801286E
:1040000006D11998072801DD072000E019981B90B8
:104010006C2C01D04C2C04D149F0040915F8011B7B
:104020004CB204B9EFE12746612C04DB7A2C02DCA8
:10403000A7F1200047B24F2F79D008DC422F77D06C
:10404000432F64D0442F74D0462F73D174E0532F84
:1040500004D0552F6FD0582FF7D127E12C98006846
:1040600013902C98001D2C904FF0000A03E00AF1E9
:10407000010000F0FF0A139810F80A000028F6D19A
:10408000CDF83CA0119009F00200A8B90EE0202262
:104090004046DDE92013FFF7DEFE1198401C00B218
:1040A00011909DF82100404400F0FF085046411C4B
:1040B00001F0FF0A5845EADB4046DDE92013139A78
:1040C000FFF71BFF9DF821100F9801FB008000F007
:1040D000FF080F991198084400B211900EE02022B9
:1040E0004046DDE92013FFF7B6FE1198401C00B2F0
:1040F00011909DF82100404400F0FF085046411CFB
:1041000001F0FF0A5845EADB1198109071E12C98F4
:1041100010F8041BCAB22C904046DDE92013FFF7CB
:104120009AFE9DF82100404400F0FF0861E1B6E0EE
:10413000B2E0B7E0BDE0B6E02C98C01D20F007006B
:1041400001462C90006849682C9A08322C92CDE9DF
:104150000A0100221346DDE90A0103F0A1FB0BD29C
:104160001B9840F008001B9000222E4BDDE90A014D
:1041700003F0D2FBCDE90A01DDE90A0103F008FBF7
:1041800000B20E9001200C901B9800F007001A90CE
:1041900009E00C9800EB8000400000B20C901A98E7
:1041A000401EC0B21A901A98401E0028F1D50E98F1
:1041B00003F04BFBCDE90001DDE90A2303F0E0FC4D
:1041C000CDE904010C9803F040FBCDE90201DDE9E3
:1041D000042303F0A1FBCDE9060103F0D9FA00B2F4
:1041E0000D9000261B9800F007001A9022E00D9811
:1041F000D0B10A210D9890FBF1F201FB120047B2F9
:104200000D9890FBF1F000B20D9007F1300042B232
:104210003046711CCEB214A90A540BE0A40700204A
:10422000AC0700200000F0BF30223046711CCEB237
:1042300014A90A541A98411EC9B21A910028D6D15D
:104240002E223046711CCEB214A90A5400BF0A2196
:104250000E9890FBF1F201FB120047B20E9890FB12
:10426000F1F000B20E9007F1300042B23046711CFE
:10427000CEB214A90A540E9808B1102EE7D31B9899
:1042800000F0080028B12D223146701CC6B214A8D7
:10429000425400201C906AE002201D9017E0082084
:1042A0001D9014E000BF0A201D9010E010201D900A
:1042B0000DE0E2B24046DDE92013FFF7CCFD9DF8AA
:1042C0002100404400F0FF080120109091E000BF61
:1042D00009F0040028B12C9800682C99091D2C9134
:1042E0000CE0442F05D12C9800682C99091D2C91C5
:1042F00004E02C9800682C99091D2C911890442FEB
:1043000008D1189800F0004020B118984042189049
:1043100049F00809002600BF1D991898B0FBF1F27A
:1043200001FB120047B21D991898B0FBF1F01890EC
:10433000092F06DD782C01D1272000E00720384422
:1043400047B207F1300042B23046711CCEB214A918
:104350000A54189808B1102EDED309F0080028B1CD
:104360002D223046711CCEB214A90A5400BFB246A9
:1043700009F0010008B1302000E0202007460AE0E3
:10438000FAB24046DDE92013FFF765FD9DF82100F4
:10439000404400F0FF0809F0020028B95046411CD3
:1043A00001F0FF0A5845EBDB00BF701EC0B20646A5
:1043B00014A90A5C4046DDE92013FFF74CFD9DF887
:1043C0002100404400F0FF08002EEED10AE0FAB2CE
:1043D0004046DDE92013FFF73EFD9DF821004044F3
:1043E00000F0FF085046411C01F0FF0A5845EEDB83
:1043F00000BF10991298084400B212901098401C07
:1044000000287FF4ABAD00BF23B0BDE8F08F0FB440
:104410007CB504460D4616460AA801900198009006
:10442000324629462046099BFFF783FD0020019074
:104430007CBC5DF814FB00000146F8480068407839
:10444000081A0AD4F54800684078081AF34A126836
:10445000D278904201DC012070470020FCE7014641
:10446000EE4800688078401AEC4A1268527810448E
:10447000C00070472DE9F04F8BB004460E4615463C
:104480004FF0000900200A9082460990834600BF41
:104490000890B44202DA0A9434460A9E122D00DDD6
:1044A0001225DE4800688470A01BDC490968C870CA
:1044B000DA480068C078A84203DB681ED74909685B
:1044C000C870FFF771FC8246BAF1030F1FD1D348C1
:1044D0000068007800280ADDD148007838B9CF4854
:1044E00000680078401ECD490968087039E0CB4863
:1044F00000684078002834DDC948007888BBC74888
:1045000000684078401EC5490968487029E0BAF142
:10451000040F26D1C14800680078C0490968C978ED
:1045200088420ADABE48007838B9BC48006800788A
:10453000401CBA490968087013E0B848006841781F
:10454000B6480068C078281A401E814209DAB4488B
:10455000007830B9B14800684078401CAF4909681C
:104560004870AE4800684078AC490968097808444A
:1045700000F0FF0BE000A94909684860F000A74976
:1045800009688860A54800680179A4480068007837
:10459000A1EBC000C0B209908620A2A30122009026
:1045A00000200999FFF733FF062C0FD0022000905E
:1045B0009A480068406800F108039848006840681D
:1045C00000F108017F220020FFF705F96CB10220FD
:1045D0000090924800688068431E90480068806898
:1045E000411E7F220020FFF7F6F8284603F044F929
:1045F000CDE90601894909684968884A12689268C4
:10460000891A01F1080003F037F9CDE90401DDE969
:10461000062302F065FF074688460BF1010003F010
:1046200014F93A464346CDE9000103F075F9CDE9A6
:1046300004017A4909684968C81D03F01DF9CDE9EC
:104640000201DDE9042303F0A7FACDE9060103F036
:10465000CFF80890089803F00FF93A464346CDE9A1
:10466000020102F089FECDE9040103F0C1F80790D0
:10467000042000907F227C20DDE90731FFF74FF90D
:1046800001200090654800684068C31D63480068C9
:104690007F2281687C20FFF742F94FF000090BE090
:1046A000CB4501D1012000E000205F4901F809005D
:1046B00009F1010000F0FF09A945F1DD0BB0BDE8EB
:1046C000F08FF8B504460D460026002754480078C0
:1046D00000F0020000B1F8BD122C00DBFBE7204621
:1046E000FFF7AAFE012836D12046FFF7B8FE06469E
:1046F0004D48005D01280DD1FFF756FB0746012FFD
:1047000008D14A48056000204449096808704349B7
:1047100009684870286846A30122314600900620A7
:10472000FFF775FE87203FA30122314600907320DA
:10473000FFF76DFE39480068407838490968097804
:104740000844A04207D1842036A3012238210090DA
:104750007A20FFF75CFE00BFBDE72DE9F041064679
:104760000027002E01DB304600E070424FFA80F84F
:104770000024304D002714E0002E08DB00222E4BD1
:104780002046294603F0C8F804460D4607E02B4AA8
:104790002B4B2046294603F0BFF804460D46781CF3
:1047A00007B24745E8DB20462946BDE8F0812DE900
:1047B000FF4F8FB092461CAE96E8C00300200B90CE
:1047C0000A9000210C460D460990089083460790F8
:1047D000069005901248007800F0020010B113B066
:1047E000BDE8F08F42464B463046394603F058F854
:1047F00005D2CDE90C6746464F46DDE90C890F9896
:10480000122800DBEBE7BAF1060F28D2DFE80AF046
:10481000031A261D20232098099023E0B4070020C6
:10482000A0070020256300005014002094070020FA
:10483000257300000000F03F000024409A999999E8
:104840009999B93F209808900CE02098079009E0CA
:104850002098069006E02098059003E000BFDDF860
:1048600080B000BF00BF0F98FFF7E6FD01287DD1A3
:104870000F98FFF7F4FD0B90F9490F98085C012899
:1048800075D1FFF791FA0A900A98012805D1F548E9
:10489000007880F00100F3490870F248007800F0D9
:1048A0000100002863D0F04890F90000FFF755FFA1
:1048B00004460D460A9803287CD1BAF1060F7AD235
:1048C000DFE80AF00320943C5A7A099991F9000034
:1048D00002F0BBFF22462B46CDE9000102F04CFD61
:1048E00032463B46CDE9020102F0DAFF09D8204604
:1048F000294602F04DFF09990978084441B2099808
:10490000017090E00899087802F0B6FF22462B4625
:10491000CDE9000102F030FD32463B46CDE902010F
:1049200002F0BEFF09D82046294602F061FF08992F
:1049300009780844C1B20898017074E007990868C2
:1049400002F083FF22462B46CDE9000102F014FD60
:1049500032463B46CDE9020102F0A2FF0BD82046C9
:10496000294602F015FF0799096801E0CDE120E131
:1049700001440798016056E00699086803F0F6F9CB
:1049800022462B46CDE9000102F0F6FC32463B46BA
:10499000CDE9020102F084FF0BD82046294602F03F
:1049A000B9FC049006980168049803F00BFA069984
:1049B000086038E038E01AE0059903C922462B4622
:1049C000CDE9000102F0D8FC32463B46CDE90201B8
:1049D00002F066FF09D8059803C822462B46CDE9A8
:1049E000020102F0C9FC059A03C21CE000BFBBF93A
:1049F000000002F02AFF22462B46CDE9000102F01A
:104A0000BBFC32463B46CDE9020102F049FF09D822
:104A10002046294602F0BCFEBBF80010084400B254
:104A2000ABF8000000BFE5E00A98042879D1BAF19C
:104A3000060F77D2DFE80AF00320913C57770999F7
:104A400091F9000002F001FF22462B46CDE900015A
:104A500003F0A2F842464B46CDE9020103F05AF8B2
:104A600009D82046294602F093FE09990978081AC8
:104A700041B2099801708DE00899087802F0FCFEB7
:104A800022462B46CDE9000103F086F842464B460C
:104A9000CDE9020103F03EF809D82046294602F08C
:104AA000A7FE08990978081AC1B20898017071E048
:104AB0000799086802F0C9FE22462B46CDE900019D
:104AC00003F06AF842464B46CDE9020103F022F8B2
:104AD00008D82046294602F05BFE07990968091AA2
:104AE0000798016056E00699086803F03FF92246EE
:104AF0002B46CDE9000103F04FF842464B46CDE985
:104B0000020103F007F80BD82046294602F002FC08
:104B1000049006980168049803F001FA0699086069
:104B200038E038E01AE0059803C822462B46CDE964
:104B3000000103F031F842464B46CDE9020102F094
:104B4000E9FF09D8059903C922462B46CDE90201A0
:104B500003F022F8059A03C21CE000BFBBF9000075
:104B600002F073FE22462B46CDE9000103F014F853
:104B700042464B46CDE9020102F0CCFF09D820465F
:104B8000294602F005FEBBF80010081A00B2ABF887
:104B9000000000BF2EE00A9806280BD1324890F999
:104BA0000000022826DA30480078401C40B22E4926
:104BB00008701FE00A9805281CD1BAF1040F02D032
:104BC000BAF1050F0BD1284890F90000002811DD3B
:104BD00025480078401E40B2234908700AE0224868
:104BE00090F90000002805DD1F480078401E40B203
:104BF0001D490870BAF1060F49D2DFE80AF0030E2A
:104C00004718223B099890F9000018A30122009050
:104C10005A200B99FFF7FBFB44E00898007813A398
:104C2000012200905A200B99FFF7F1FB3AE0079818
:104C300000680EA3012200905A200B99FFF7E7FBB2
:104C400030E00699086803F091F8CDE9020108A365
:104C50000122CDE900015A200B99FFF7D8FB21E092
:104C600050140020A0070020B80700202564000091
:104C700025660000059903C9AFF20C030122CDE9B6
:104C800000015A200B99FFF7C2FB0BE000BFBBF9F4
:104C90000000AFF22803012200905A200B99FFF781
:104CA000B6FB00BF00BF6248007800F0010088B189
:104CB00060490F98085C01280CD18320CDE902459A
:104CC000049082205CA3FE22009000200B99FFF745
:104CD0009EFB08E01098AFF2A84301220090062046
:104CE0000B99FFF794FB56480068407854490968CF
:104CF000097801440F98814207D184204FA30122F3
:104D0000382100907A20FFF782FB00BF67E50FB4DF
:104D10007CB5044600254648007800F0020010B13A
:104D20007CBC5DF814FB122C00DBF9E72046FFF792
:104D300083FB01280FD12046FFF791FB054608A809
:104D4000019001980090012229460620079BFFF759
:104D5000F0F80020019000BFE2E72DE9F843044697
:104D60000D4616460027B846B9463148007800F08F
:104D7000020008B1BDE8F883122C00DBFAE72046F8
:104D8000FFF75AFB012836D12046FFF768FB07469C
:104D90002848005D012807D1FFF706F88046B8F1E2
:104DA000010F01D14FF00109AFF27C5301223946C6
:104DB00006200095FFF72BFB872020A30122394610
:104DC00000907320FFF723FBB9F1010F02D14FF0E0
:104DD0000009B0471A4800684078194909680978FD
:104DE0000844A04207D1842014A301223821009056
:104DF0007A20FFF70CFB00BFBCE70FB47CB504467C
:104E00000D4616460A48007800F0020010B17CBC3E
:104E10005DF814FB0AA801900198009032462946DB
:104E20002046099BFFF785F80020019000BFEEE7C0
:104E3000A00700205014002025632566256300008C
:104E4000B407002010B56FF0040000F060FC2E489D
:104E500000682E49B0FBF1F02D4908700846007833
:104E600000EB4001C1EBC0104FF6FF7101EAC0003A
:104E70002849088010BD0146254A12784A434FF060
:104E8000E0235A6100229A611A46126942F0010237
:104E90001A6100BF4FF0E022106900F001021AB160
:104EA00000F48032002AF5D04FF0E022126922F09F
:104EB00001024FF0E0231A6100229A617047014617
:104EC000144A12884A434FF0E0235A6100229A6143
:104ED0001A46126942F001021A6100BF4FF0E02247
:104EE000106900F001021AB100F48032002AF5D0F6
:104EF0004FF0E022126922F001024FF0E0231A6124
:104F000000229A61704700000000002000127A0021
:104F1000BA070020BC07002030BF704772B6704748
:104F200062B6704710B54FF4806000F0A1FB10BD71
:104F30000948804709480047FEE7FEE7FEE7FEE72D
:104F4000FEE7FEE7FEE7FEE7FEE7FEE70448054969
:104F5000054A064B70470000EB02000831010008CB
:104F6000C8140020C81A0020C8160020C816002047
:104F700010B50446CC48844208D10121042000F039
:104F80002DFB0021042000F029FB46E0C7488442A5
:104F900008D10121082000F021FB0021082000F0A9
:104FA0001DFB3AE0C248844208D10121102000F0E4
:104FB00015FB0021102000F011FB2EE0BD488442BB
:104FC00008D10121202000F009FB0021202000F061
:104FD00005FB22E0B848844208D10121402000F0BE
:104FE000FDFA0021402000F0F9FA16E0B3488442AF
:104FF00008D10121802000F0F1FA0021802000F08A
:10500000EDFA0AE0AE48844207D10121801500F094
:10501000E5FA0021A01500F0E1FA10BD10B501215C
:10502000084600F0DBFA0021012000F0D7FA10BD9D
:105030002DE9F0410246002500260020002300242F
:10504000002791F803C00CF00F0591F803C00CF095
:10505000100CBCF1000F03D091F802C04CEA05051A
:1050600091F800C0BCF1000F31D0146800202BE093
:105070004FF0010C0CFA00F3B1F800C00CEA030683
:105080009E4220D183004FF00F0C0CFA03F7BC4373
:1050900005FA03FC4CEA040491F803C0BCF1280FA4
:1050A00006D14FF0010C0CFA00FCC2F814C00AE063
:1050B00091F803C0BCF1480F05D14FF0010C0CFA78
:1050C00000FCC2F810C0401C0828D1D31460B1F80D
:1050D00000C0BCF1FF0F34DD546800202EE000F169
:1050E000080C4FF0010808FA0CF3B1F800C00CEA04
:1050F00003069E4221D183004FF00F0C0CFA03F7F8
:10510000BC4305FA03FC4CEA040491F803C0BCF16B
:10511000280F05D100F1080C08FA0CF8C2F8148029
:1051200091F803C0BCF1480F07D100F1080C4FF013
:10513000010808FA0CF8C2F81080401C0828CED3E9
:105140005460BDE8F0814FF6FF710180022181704B
:105150000421C17070470246002093680B400BB1D8
:10516000012000E0002070470146886880B2704747
:1051700002460020D3680B400BB1012000E0002064
:1051800070470146C86880B270470161704741614D
:1051900070470AB1016100E041617047C16070472A
:1051A0004FF480320A43826181618261826982693F
:1051B000704702460020434B18684FF68073184032
:1051C00040EA021008433F4B186070473E49C861EF
:1051D0007047F0B50A46002300240021002500F0A6
:1051E0000046B6F1004F02D1364EF16901E0354E6E
:1051F0007168C0F3034583B200F44016B6F5401F52
:1052000008D121F070612F4E766826F070662D4F20
:105210007E6012E000F48016B6F5801F06D10326EA
:1052200006FA05F4A14341F0706106E0460D36012F
:1052300003FA06F6B14341F0706122B1460D360122
:1052400003FA06F6314300F00046B6F1004F02D1F2
:105250001C4EF16101E01B4E7160F0BD30B50022C3
:105260008B071C0F0F2303FA04F2164B08338C1024
:1052700053F824309343134C08348D1044F82530F0
:1052800023468C1053F824308C07240F00FA04F4C2
:1052900023430C4C08348D1044F8253030BD0A49A6
:1052A000DC3108607047000000080140000C01403C
:1052B000001001400014014000180140001C014092
:1052C000002001400000014000002042DF4800684B
:1052D00040F00100DD49086008464068DC490840AC
:1052E000DA49486008460068DA490840D74908604A
:1052F0000846006820F4802008600846406820F4D2
:10530000FE0048604FF41F0088607047CF4909686D
:1053100021F48031CD4A11601146096821F48021C1
:105320001160B0F5803F03D0B0F5802F0ED106E0BC
:10533000C649096841F48031C44A116007E0C34995
:10534000096841F4A021C14A116000E000BF00BF1C
:10535000704710B501460022002300204A11012A9F
:1053600002D1BA4C236806E0022A02D1B74C236A64
:1053700001E0B64C636A01F01F02012494401C4016
:105380000CB1012000E0002010BD38B500200090D5
:105390000024002500BF3120FFF7DBFF0546009801
:1053A000401C00900098B0F5A06F01D0002DF2D005
:1053B0003120FFF7CEFF08B1012400E00024204691
:1053C00038BD01460020A14A106820F0F80040EAEC
:1053D000C10010607047A049086070470246002075
:1053E0009A4B586820F47C1042EA01031843974B0B
:1053F0005860704798490866704701460020934AF4
:10540000506820F003000843506070478F484068A0
:1054100000F00C007047014600208C4A506820F0D4
:10542000F00008435060704701460020874A5068EA
:1054300020F4E06008435060704701460020834A32
:10544000506820F4605040EAC1005060704729B1B4
:105450007E4A527A02437D4B5A7204E07B4A527A6A
:1054600082437A4B5A7270477B49D8310860704743
:1054700001460020754A506820F4404008435060BF
:1054800070470021714A20321170704A82F8201052
:10549000012802D004280AD104E001216B4A2032FD
:1054A000117005E00521694A2032117000E000BF4B
:1054B00000BF70476949086070476449096A014341
:1054C000624A11627047654944390860704730B5D7
:1054D00000210022002400235C4D6D6805F00C01C2
:1054E00021B1042905D0082923D105E05C4D0560D0
:1054F00022E05B4D05601FE0544D6D6805F47012AD
:10550000524D6D6805F48034022505EB92421CB9BA
:10551000544D554305600BE04C4D6D6805F4003566
:105520001DB1504D5543056002E04D4D554305609A
:1055300002E04B4D056000BF00BF444D6D6805F0B3
:10554000F0010909484D6B5C0568DD4045603F4D41
:105550006D6805F4E061090A434D6B5C4568DD4008
:1055600085603A4D6D6805F46051C90A3E4D6B5C2B
:105570004568DD40C560354D6D6805F44041890BD7
:105580003A4D6B5CC568B5FBF3F5056130BD29B1DB
:105590002E4A526902432D4B5A6104E02B4A52694C
:1055A00082432A4B5A61704729B1284A92690243C3
:1055B000264B9A6104E0254A92698243234B9A6103
:1055C000704729B1214AD2690243204BDA6104E0D5
:1055D0001E4AD26982431D4BDA61704729B11B4ACA
:1055E000D2680243194BDA6004E0184AD268824359
:1055F000164BDA60704729B1144A12690243134B03
:105600001A6104E0114A12698243104B1A61704713
:1056100012494039086070470F49C86470470B4908
:10562000C87170470948406A40F080700749486275
:10563000704701460020054A92680A400AB10120DD
:1056400000E0002070470149887270470010024056
:105650000000FFF8FFFFF6FE0000424280044242D5
:1056600000127A0000093D00BE070020CE0700208E
:1056700031490143314A1160704770B50021002360
:105680000F22C47804B32D4C246804F4E064C4F5FC
:10569000E064210AC1F10403CA40447804FA03F12A
:1056A0008478144021430901254C0678A1550478DB
:1056B00004F01F050124AC4005786D11AD0005F123
:1056C000E025C5F8004109E0047804F01F05012435
:1056D000AC401C4D0678761145F8264070BD1A4A3C
:1056E0000A400243154B1B1F1A60704739B1134A19
:1056F000121D12680243114B1B1D1A6006E00F4A6F
:10570000121D126882430D4B1B1D1A60704704283E
:1057100008D14FF0E021096941F004014FF0E02287
:10572000116107E04FF0E021096921F004014FF019
:10573000E0221161704700000000FA050CED00E066
:1057400000E400E080E100E080FFFF1F10B50446A8
:10575000FE48844208D10121C014FFF73FFF002119
:10576000E014FFF73BFFC4E0B4F1804F08D1012102
:105770000846FFF740FF00210120FFF73CFFB8E09B
:10578000F348844208D101210220FFF734FF0021B1
:105790000220FFF730FFACE0EE48844208D101213F
:1057A0000420FFF728FF00210420FFF724FFA0E0DA
:1057B000E948844208D101210820FFF71CFF00219D
:1057C0000820FFF718FF94E0E448844208D1012143
:1057D0001020FFF710FF00211020FFF70CFF88E0DA
:1057E000DF48844208D101212020FFF704FF002177
:1057F0002020FFF700FF7CE0DA48844208D1012135
:105800004014FFF7EBFE00216014FFF7E7FE70E0A5
:10581000D548844209D10121C804FFF7DFFE0021E9
:105820004FF40020FFF7DAFE63E0D048844209D14C
:1058300001210805FFF7D2FE00214FF48010FFF789
:10584000CDFE56E0CA48844209D101214805FFF740
:10585000C5FE00214FF40010FFF7C0FE49E0C54827
:10586000844208D101214020FFF7C5FE00214020DD
:10587000FFF7C1FE3DE0C048844208D101218020ED
:10588000FFF7B9FE00218020FFF7B5FE31E0BB48ED
:10589000844208D101218015FFF7ADFE0021A0153B
:1058A000FFF7A9FE25E0B648844209D1012108048A
:1058B000FFF794FE00214FF48030FFF78FFE18E0D1
:1058C000B048844209D101214804FFF787FE002136
:1058D0004FF40030FFF782FE0BE0AB48844208D162
:1058E00001218804FFF77AFE00214FF48020FFF7A2
:1058F00075FE10BD00220288944B98420ED0994B41
:1059000098420BD0B0F1804F08D0914B984205D00F
:10591000904B984202D0904B984204D14FF68F732F
:105920001A404B881A438D4B984207D08C4B9842B3
:1059300004D04FF6FF431A40CB881A4302808B886D
:1059400083850B880385814B98420BD0854B984209
:1059500008D08B4B984205D08A4B984202D08A4B94
:10596000984201D10B7A038601238382704770B578
:10597000002400220023058C4FF6FE763540058476
:10598000028C8388048B4FF68F752C40B51E2C40FB
:105990000D882C43751E2A400D892A434D882A43C1
:1059A0006A4DA8420BD06F4DA84208D0744DA84252
:1059B00005D0744DA84202D0734DA84213D14FF6C2
:1059C000F7752A404D892A434FF6FB752A408D888A
:1059D0002A434FF6FF652B404FF6FF552B408D892C
:1059E0002B43CD892B4383800483CD888586028415
:1059F00070BD70B5002400220023058C4FF6EF76B1
:105A000035400584028C8388048B48F6FF752C4052
:105A10004FF6FF452C400D884FF6FF7606EA052528
:105A20002C434FF6DF752A400D8906EA05152A43F7
:105A30004D8806EA05152A43444DA84202D0494D37
:105A4000A8421DD14FF67F752A404D894FF6FF764B
:105A500006EA05152A434FF6BF752A408D8806EAE7
:105A600005152A434FF6FF352B404FF2FF752B40AB
:105A70008D8906EA85052B43CD8906EA85052B43EA
:105A800083800483CD880587028470BD70B50024AF
:105A900000220023058C4FF6FF6635400584028CFA
:105AA0008388848B4FF68F752C404FF6FC752C4005
:105AB0000D882C434FF6FF552A400D894FF6FF768F
:105AC00006EA05252A434D8806EA05252A431F4D87
:105AD000A84202D0234DA8421DD14FF2FF752A40A3
