:020000040800F2
:100000009015002085210008610E0008630E00088D
:10001000670E00086B0E00086F0E0008000000005D
:10002000000000000000000000000000730E000847
:10003000750E000800000000770E0008790E000819
:100040009F2100089F2100089F2100089F21000890
:100050009F2100089F2100089F2100089F21000880
:100060009F2100089F2100089F210008631A0008B3
:100070009F2100089F2100089F2100089F21000860
:100080009F2100089F2100089F2100089F21000850
:100090009F2100089F2100089F2100089F21000840
:1000A0009F2100089F2100089F2100089F21000830
:1000B000D91900089F2100089F2100089F210008EE
:1000C0009F2100089F2100089F2100089F21000810
:1000D0009F210008FB2000089F2100089F210008A5
:1000E0009F2100089F2100089F2100089F210008F0
:1000F0009F2100089F2100089F2100089F210008E0
:100100009F2100089F2100089F2100089F210008CF
:100110009F2100089F2100089F2100089F210008BF
:100120009F2100089F2100089F2100089F210008AF
:1001300000F002F800F05AF80AA090E8000C82449F
:100140008344AAF10107DA4501D100F04FF8AFF27C
:10015000090EBAE80F0013F0010F18BFFB1A43F0A5
:100160000103184784490000A44900000A444FF0E5
:10017000000C10F8013B13F0070408BF10F8014B06
:100180001D1108BF10F8015B641E05D010F8016B4B
:10019000641E01F8016BF9D113F0080F1EBF10F8AF
:1001A000014BAD1C0C1B09D16D1E58BF01F801CBD2
:1001B000FAD505E014F8016B01F8016B6D1EF9D555
:1001C0009142D6D37047000000230024002500266A
:1001D000103A28BF78C1FBD8520728BF30C148BFAA
:1001E0000B6070471FB51FBD10B510BD04F041F87E
:1001F0001146FFF7F7FF00F011FC04F05FF803B4BD
:10020000FFF7F2FF03BC01F01DFF000010B504462C
:10021000092C15D2DFE804F085051525354555650F
:1002200075004FF40061F84802F0DBF84FF480618C
:10023000F54802F0D6F84FF40071F34802F0D1F817
:100240006FE04FF40061F04802F0C9F84FF48061AC
:10025000ED4802F0C6F84FF40071EB4802F0C1F827
:100260005FE04FF40061E84802F0BBF84FF48061B2
:10027000E54802F0B4F84FF40071E34802F0B1F839
:100280004FE04FF40061E04802F0A9F84FF48061BC
:10029000DD4802F0A4F84FF40071DB4802F0A1F849
:1002A0003FE04FF40061D84802F09BF84FF48061C2
:1002B000D54802F096F84FF40071D34802F08FF859
:1002C0002FE04FF40061D04802F089F84FF48061CC
:1002D000CD4802F086F84FF40071CB4802F07FF869
:1002E0001FE04FF40061C84802F07BF84FF48061D2
:1002F000C54802F074F84FF40071C34802F06FF87B
:100300000FE04FF40061C04802F069F84FF48061DB
:10031000BD4802F064F84FF40071BB4802F05FF88A
:1003200000BF00BF002010BD10B5B84800780028FD
:1003300074D101F0E8FBB648006840F214518842DD
:100340003BD9B4480078012803D0B348007801288D
:1003500008D14FF4FA71084601F094FC0120AF492E
:10036000087026E0AD48007801281BD14FF4FA71DF
:10037000084601F087FC642001F02BFEA8480068C5
:10038000012804D14FF4FA7001F01FFD03E04FF48F
:10039000FA7001F04FFD962001F01BFE00209F49EE
:1003A000087003E04FF4FA7001F0B4FB01209D499E
:1003B000087000209C4908706BE09648007801287E
:1003C00003D09548007801280DD14FF4FA71084602
:1003D00001F058FC012094490870002093490860FE
:1003E0008E49087055E09248006840F214518842E6
:1003F0000FD89048006888420BD88F480068884220
:1004000007D88E480068884203D88D480068884223
:1004100005D94FF4FA7001F00DFD3AE062E0894829
:10042000006840F2145188420FD88748006888421B
:100430000BD886480068884207D8854800688842FB
:1004400003D884480068884204D94FF4FA7001F058
:10045000BCFC1EE000207149087073480078012838
:1004600013D16F480068012804D14FF4FA7001F0ED
:10047000ACFC03E04FF4FA7001F0DCFCC82001F0A2
:10048000A8FD00206849087003E04FF4FA7001F0FD
:1004900076FB64480078012805D16F480068401C4D
:1004A0006D49086002E000206B4908606B480068F5
:1004B00018B101206A49087002E0002068490870FC
:1004C0006648006810B900206449086001F0E8FA45
:1004D0000020644908706449087060480068401E44
:1004E0005E49086010BD08B56048408960490860F1
:1004F0005E4800894E4908605C48C0884D490860E4
:100500005A4880884C490860584840884B490860E0
:10051000564800884A490860544880893C49086028
:100520005248C089474908605048008A46490860D7
:100530004E48408A454908604C48808A44490860D2
:100540004A48C08A434908604848408B4949086086
:100550004648008B4849086080212B4801F06EF91D
:100560002C4908704021284801F068F94349087077
:100570000421254801F062F9274908700221224828
:1005800001F05CF93E4908703948006840F21451A6
:10059000884209D90C2004230090354800210268C4
:1005A000084600F083FE07E00C20042300221146D9
:1005B0000090104600F07AFE1D48006840F2145189
:1005C000884209D90C2004230090194802210268AE
:1005D000002000F06BFE07E00C2004230022022123
:1005E0000090104600F062FE1248006840F214517C
:1005F000884247D90C20042300900E48194602680F
:10060000002000F053FE45E0001401407B00002074
:10061000180000206F000020710000207D000020E5
:10062000980000207C00002082000020E8000020CC
:1006300004000020080000200C0000201000002012
:10064000140000201C0000202000002024000020B6
:10065000280000202C0000209C000020A400002086
:10066000880000208500002086000020480E002021
:100670000000002030000020340000207000002026
:10068000720000200C20042300221946009010461E
:1006900000F00CFEF948006840F21451884209D974
:1006A0000C2004230090F54806210268002000F089
:1006B000FDFD07E00C2004230022062100901046D7
:1006C00000F0F4FDEE48006840F21451884209D968
:1006D0000C2004230090EA48022102681A2000F04E
:1006E000E5FD07E00C2004230022022100901A20DF
:1006F00000F0DCFDE348006840F21451884209D95B
:100700000C2004230090DF48194602681A2000F0EC
:10071000CDFD07E00C2004230022194600901A208A
:1007200000F0C4FDD848006840F21451884209D94D
:100730000C2004230090D448002102684E2000F0D1
:10074000B5FD07E00C2004230022114600904E2046
:1007500000F0ACFDCD48006840F21451884209D940
:100760000C2004230090C948022102684E2000F0AA
:100770009DFD07E00C2004230022022100904E2062
:1007800000F094FDC248006840F21451884209D933
:100790000C2004230090BE48194602684E2000F049
:1007A00085FD07E00C2004230022194600904E200E
:1007B00000F07CFDB748006840F21451884209D926
:1007C0000C2004230090B348062102684E2000F05C
:1007D0006DFD07E00C2004230022062100904E202E
:1007E00000F064FDAC48006840F21451884209D919
:1007F0000C2004230090A84802210268342000F055
:1008000055FD07E00C200423002202210090342033
:1008100000F04CFDA148006840F21451884209D90B
:100820000C20042300909D4819460268342000F0F3
:100830003DFD07E00C2004230022194600903420DF
:1008400000F034FD9648006840F21451884209D9FE
:100850000C2004230090924800210268272000F019
:1008600025FD07E00C2004230022114600902720DC
:1008700000F01CFD8B48006840F21451884209D9F1
:100880000C2004230090874806210268272000F0EE
:100890000DFD07E00C2004230022062100902720F4
:1008A00000F004FD0520042300907F480278002119
:1008B000682000F0FBFC0520042300907B480278B0
:1008C0000221682000F0F2FC08BD2DE9F04100246F
:1008D000002500260027A0464021754800F0BAFFF9
:1008E00004464FF40051734800F0B4FF05464FF43E
:1008F0008051704800F0AEFF06464FF480416D48CD
:1009000000F0A8FF07464FF400416A4800F0A2FF3C
:100910008046012C02D1012067490870012D02D1C7
:10092000022065490870012E02D103206249087037
:10093000012F02D1042060490870B8F1010F02D1E3
:1009400005205D4908705C480078BDE8F08110B56D
:10095000FFF7BBFF06281CD2DFE800F01B4C3A2B48
:100960001C03002054490870962001F032FB5348C4
:100970000078012803D100205049087005E04F4855
:10098000007810B901204D490870962001F021FB34
:1009900042E041E0002048490870782001F019FB4E
:1009A00047480068401E46490860782001F011FB66
:1009B00032E0002040490870782001F00AFB4048EE
:1009C0000068401C3E490860782001F002FB23E0EB
:1009D0003C48006868B9002037490870782001F069
:1009E000F8FA37480068323035490860782001F05D
:1009F000F0FA11E03348006868B900202E49087009
:100A0000782001F0E6FA2E48006832382C49086058
:100A1000782001F0DEFA00BF00BF10BD01F09CFAA3
:100A20004FF47A7001F0D5FA4FF47A7001F0D1FAF0
:100A300001F002FB00F028FF00F0F4FC0E23224A34
:100A40002249234800F0E2FF00F0BCFD002140F203
:100A5000077000F013FA002140F2077000F0E8FA86
:100A60008F2140F6C31000F05FFF00F095FE0021DB
:100A700040F29C5000F083FA30E000000C000020AF
:100A80001000002014000020180000201C0000208E
:100A90002000002024000020280000202C0000203E
:100AA00030000020340000206F0000207100002082
:100AB0000010014000140140790000207A0000205D
:100AC000E800002008010020480E00204C240140CE
:100AD00008000240FFF73BFF00F069FD574800782F
:100AE0000028F7D04FF47A7001F073FA00F07EFB23
:100AF0004FF4FA7001F06DFA40F2145001F03FF833
:100B000040F2DC5001F0FCF9DC2001F062FA002038
:100B10004B49086000214B4803F012F80021494876
:100B200003F010F84FF42F7001F053FA6BE0FFF769
:100B3000DAFCFFF7F9FB002043490860084600682B
:100B400042490968401A42490860424800680968F9
:100B500048433F490968404A1268891A3F4A126867
:100B600002FB010036490968084435490860084617
:100B70000068B0F5487F02DD4FF4487008603048E7
:100B8000006810F5487F02DA35482D4908602C4886
:100B90000068002808DA2A480068404201F08DF910
:100BA00002203049086006E02548006801F0A8F9F5
:100BB00001202C49086026480068274908602A4817
:100BC0000068A02190FBF1F0012802D10020264905
:100BD000086025480068142190FBF1F0401CC4B265
:100BE0002046FFF713FB20480068401C1E490860A0
:100BF00000201E4908701E4908701E4908701E49D1
:100C000008701E49087092E770B504464FF47A7078
:100C100094FBF0F504E04FF47A7001F0DAF96D1E00
:100C2000002DF8DC4FF47A7094FBF0F100FB1140DA
:100C300086B2304601F0CDF970BD00007A00002088
:100C4000FC0000200008004000010020BC0D002036
:100C500004010020F0000020F8000020F400002033
:100C6000E0FCFFFFDC000020E80000208100002005
:100C700080000020830000207C00002085000020F0
:100C80000CB50020019000906C48006840F4803062
:100C90006A49086000BF6948006800F400300090AD
:100CA0000198401C0190009818B90198B0F5A06F08
:100CB000F1D16248006800F4003010B101200090CA
:100CC00001E0002000900098012843D15C480068B2
:100CD00040F010005A4908600846006820F0030000
:100CE00008600846006840F0020008605348406809
:100CF000524948600846406848600846406840F4E9
:100D0000806048600846406820F47C1048600846CF
:100D1000406840F4E81048600846006840F0807081
:100D2000086000BF4548006800F000700028F9D056
:100D30004248406820F00300404948600846406847
:100D400040F00200486000BF3C48406800F00C00E2
:100D50000828F9D10CBD10B5FFF792FF10BD10B5F2
:100D60003648006840F00100344908600846406891
:100D70003449084031494860084600683249084013
:100D80002E4908600846006820F480200860084664
:100D9000406820F4FE0048604FF41F008860FFF7B1
:100DA000DAFF4FF000602949086010BD10B500213E
:100DB00000200022214B5B6803F00C0121B10429C3
:100DC00006D0082928D107E0214B224C236027E0D8
:100DD0001F4B204C236023E0184B5B6803F470101A
:100DE000164B5B6803F48032022303EB904022B978
:100DF000194B4343174C23600DE0104B5B6803F421
:100E0000003323B1144B4343124C236003E0104BD7
:100E10004343104C236003E00D4B0E4C236000BF96
:100E200000BF064B5B68C3F303130C4CE15C094B3A
:100E30001B68CB40074C236010BD0000001002402F
:100E4000002002400000FFF8FFFFF6FE08ED00E082
:100E500000127A002401002000093D002801002032
:100E6000704700BFFEE700BFFEE700BFFEE700BF20
:100E7000FEE77047704770477047000030B589B093
:100E800005460C460121C80201F0B8FC01210420EE
:100E900001F0B4FC4FF47060ADF8200018208DF81C
:100EA000230003208DF8220008A9914801F0EAF9F7
:100EB000ADF81850ADF814400020ADF81A00ADF8A8
:100EC000160005A98B4802F043F87020ADF8040025
:100ED0000120ADF806000020ADF80A00ADF80C00C6
:100EE00001A9844802F071F87020ADF804000120D7
:100EF000ADF806000020ADF80A00ADF80C0001A91D
:100F00007C4802F0A4F87020ADF804000120ADF890
:100F100006000020ADF80A00ADF80C0001A97548E4
:100F200002F0E2F87020ADF804000120ADF80600F0
:100F30000020ADF80A00ADF80C0001A96D4802F0E0
:100F40001EF901216B4802F06BFB0821694802F091
:100F50008BFC0821674802F090FC0821654802F0EC
:100F600099FC0821634802F09EFC0121614802F0CF
:100F70004BFC01215F4802F047FB09B030BD30B5A2
:100F800087B005460C460121022001F044FC0121F6
:100F9000082001F033FC0121084601F02FFC01F08C
:100FA00067F90121544801F03EFA3020ADF81800ED
:100FB00004208DF81B0003208DF81A0006A94F4865
:100FC00001F060F94E4801F0EFFE03A802F0ECFAE0
:100FD000ADF81050ADF80C400020ADF81200ADF89F
:100FE0000E0003A9464801F0B3FF0A231A46032165
:100FF000434802F0BCFB684602F0E9FA0620ADF86F
:10100000080069463E4802F036FA01213C4802F0E9
:10101000C1FD012211463A4802F011FB0020384977
:10102000243108800121364802F0EEFA07B030BDC5
:1010300030B589B005460C460121042001F0EBFBD8
:101040000121082001F0DAFB4FF44070ADF82000D8
:1010500018208DF8230003208DF8220008A92748C6
:1010600001F010F9274801F09FFEADF81850ADF8D7
:1010700014400020ADF81A00ADF8160005A921486B
:1010800001F066FF7020ADF804000120ADF8060005
:101090000020ADF80A000220ADF80C0001A91948A3
:1010A00002F022F87020ADF804000120ADF806002F
:1010B0000020ADF80A000220ADF80C0001A911488B
:1010C00002F05DF801210F4802F0AAFA08210D484C
:1010D00002F0E0FB08210B4802F0E5FB0121094882
:1010E00002F092FB0121074802F08EFA09B030BDF0
:1010F00000080140002C014000081A00000C0140CB
:10110000000400400008004070B504460E462EB1B1
:101110004FF48061FE4801F062F904E04FF4806111
:10112000FB4801F05EF94FF48051F94801F059F99C
:1011300000251BE04FF40051F54801F052F904F08E
:10114000800028B14FF40041F14801F048F904E073
:101150004FF40041EE4801F044F94FF40051EC48DF
:1011600001F03DF96006040E681CC5B2082DE1DBF4
:101170004FF48051E64801F032F94FF48061E448C1
:1011800001F02DF970BD70B504460D4605F1B001B2
:10119000C8B20021FFF7B8FF102141EA1410002166
:1011A000FFF7B2FF04F00F0141F001000021FFF74B
:1011B000ABFF70BD10B500218D20FFF7A5FF00210A
:1011C0001420FFF7A1FF0021AF20FFF79DFF10BD06
:1011D00010B500218D20FFF797FF00211020FFF7A9
:1011E00093FF0021AE20FFF78FFF10BD70B50024E4
:1011F00019E004F1B001C8B20021FFF785FF00211A
:101200000846FFF781FF00211020FFF77DFF002532
:1012100005E001210020FFF777FF681CC5B2802D93
:10122000F7DB601CC4B2082CE3DB70BD2DE9F04194
:1012300007460E46904600250024A8F12000C5B2BE
:101240007F2F02DD0027B01CC6B231463846FFF7BB
:101250009AFF002408E004EB0511AE4A505C01211E
:10126000FFF752FF601CC4B2082CF4DB701CC1B243
:101270003846FFF788FF002409E004EB0511083128
:10128000A44A505C0121FFF73FFF601CC4B2082C48
:10129000F3DBBDE8F08110B50246012000E05043C9
:1012A0000B00A1F10104E1B2F9D110BD2DE9FF5FFE
:1012B000074691461D460E9E4FF0000A002433E07B
:1012C000281B401EC1B20A20FFF7E5FFB9FBF0F072
:1012D0000A21B0FBF1F201FB1208BAF1000F13D1A1
:1012E000681EA04210DDB8F1000F0BD1B34606EB2B
:1012F000DB71491001FB0471C8B220220199FFF78C
:1013000095FF0FE04FF0010AB34606EBDB71491081
:1013100001FB0471C8B208F13001CAB20199FFF7AC
:1013200085FF00BF601CC4B2AC42C9DBBDE8FF9FB3
:101330002DE9F04104460F46154600260EE0AA5D51
:1013400039462046FFF772FF04F10800C4B2782C3A
:1013500002DD0024B81CC7B2701CC6B2A85D00280C
:10136000EDD1BDE8F0812DE9F04781460F4690466A
:101370001D464FF0000A002415E03819C1B2484656
:10138000FFF701FF00260AE005FB0841624A02EB75
:101390004111885D0121FFF7B7FE701CC6B2102E07
:1013A000F2DB601CC4B2AC42E7DBBDE8F0872DE99C
:1013B000F05F06460F4690461C46DDF828A04FF029
:1013C000000BE11704EB5171C910A4EBC10131B955
:1013D0002046E11704EB5171C1F3C70506E0204632
:1013E000E11704EB5171C910491CCDB23D4615E01F
:1013F00029463046FFF7C7FEB1460BE059460BF1D0
:10140000010B1AF801000121FFF77EFE09F101002E
:1014100000F0FF09C145F1DB681CC5B2A542E7DB5E
:10142000BDE8F09F08B50121202001F0E7F9042074
:10143000ADF8000010208DF8030003208DF80200A5
:101440006946364800F01EFF0421344800F0C7FF0B
:101450000121082001F0D2F94BF60240ADF800005E
:1014600010208DF8030003208DF8020069462848FB
:1014700000F008FF4BF60241254800F0B0FF402184
:10148000274800F0ACFF642000F0A3FD4021244871
:1014900000F0A7FFC82000F09CFD4021204800F08C
:1014A0009EFF0021AE20FFF72FFE00210846FFF728
:1014B0002BFE00211020FFF727FE00214020FFF720
:1014C00023FE00218120FFF71FFE0021CF20FFF720
:1014D0001BFE0021A120FFF717FE0021C820FFF707
:1014E00013FE0021A620FFF70FFE0021A820FFF722
:1014F0000BFE00213F20FFF707FE0021D320FFF75E
:1015000003FE00210846FFF7FFFD0021D52009E07A
:10151000000C0140F8440008F802002000140140CB
:1015200000180140FFF7F0FD00218020FFF7ECFDDF
:101530000021D920FFF7E8FD0021F120FFF7E4FDAD
:101540000021DA20FFF7E0FD00211220FFF7DCFD8B
:101550000021DB20FFF7D8FD00214020FFF7D4FD5C
:1015600000212020FFF7D0FD00210220FFF7CCFD55
:1015700000218D20FFF7C8FD00211420FFF7C4FDD6
:101580000021A420FFF7C0FD0021A620FFF7BCFD2D
:101590000021AF20FFF7B8FD0021AF20FFF7B4FD19
:1015A000FFF724FE00210846FFF7EDFD08BD08B552
:1015B0000C2004230022194600901A20FFF776FE23
:1015C00008BD000000B587B001214FF4077001F09D
:1015D00015F94FF4004001F075F8EB20ADF8040068
:1015E00000208DF8070001A9674800F04BFE01209C
:1015F000ADF8040000208DF8070001A9634800F051
:1016000041FE1520ADF8040000208DF8070001A967
:101610005F4800F037FE5F4802F0D4FA00200290E5
:1016200001208DF80C008DF80D004FF4602004901F
:10163000002005900E208DF8180002A9554802F0F0
:10164000E8FA07230A220021524802F07AFB072316
:10165000092201214F4802F074FB072308220221CE
:101660004C4802F06EFB07231A460321494802F05A
:1016700068FB072306220421464802F062FB072389
:1016800005221146434802F05CFB07230422062191
:10169000404802F056FB0723032219463D4802F05A
:1016A00050FB07230E2208213A4802F04AFB072389
:1016B0000D220B21374802F044FB07230C22114670
:1016C000344802F03EFB07230B220D21314802F083
:1016D00038FB072302220E212E4802F032FB07239B
:1016E00001220F212B4802F02CFB0121294802F096
:1016F000C7FA0121274802F0B8FA264802F0D7FAC3
:1017000000BF244802F0D8FA0028FAD1214802F09C
:10171000DDFA00BF1F4802F0DEFA0028FAD10121ED
:101720001C4802F0E2FA07B000BD10B504460723DA
:1017300001222146174802F004FB0121154802F05E
:10174000D4FA00BF0221134802F040FC0028F9D06F
:10175000104802F05DFB10BD2DE9F04107460C4634
:101760000025002608E03846FFF7DFFF0544052086
:1017700000F02FFC701CC6B2A642F4DBB5FBF4F0FF
:1017800080B2BDE8F081000000080140000C01407B
:10179000001001400024014008B50121042001F09F
:1017A0002DF84FF42040ADF8000010208DF8030014
:1017B00003208DF802006946304800F063FD4FF4C5
:1017C00000512F4800F00DFE4FF400412C4800F06E
:1017D00008FE0121202001F011F83F20ADF80000A3
:1017E00048208DF8030003208DF802006946234845
:1017F00000F048FD0121202001F000F84FF2C00068
:10180000ADF8000048208DF8030003208DF8020099
:1018100069461A4800F036FD0121102000F0EEFF65
:101820004020ADF8000048208DF8030003208DF81B
:1018300002006946134800F025FD08BD70B5044656
:101840000D462946204600F0B0FD08B9002070BDC5
:101850000120FCE770B504460D462946204600F0FD
:10186000A4FD48B9142000F0B4FB2946204600F03E
:101870009CFD08B9012070BD0020FCE70014014068
:10188000000801400010014008B50121602000F06F
:10189000B5FF4FF47460ADF8000010208DF8030020
:1018A00003208DF8020069461D4800F0EBFC6946F4
:1018B0001C4800F0E7FC4FF48071194800F091FDDE
:1018C0004FF46061164800F08AFD4021154800F091
:1018D00086FD08BD10B504462CB14FF48071104848
:1018E00000F07DFD04E04FF480710D4800F079FDBB
:1018F00010BD10B50446642C00DD64241021084896
:1019000000F06DFD204600F064FB1021044800F05B
:1019100068FDC4F1640188B200F05BFB10BD0000FB
:1019200000140140001801407FB505460C46012116
:10193000084600F070FFADF80850ADF804400020F4
:10194000ADF80A00ADF8060001A94FF0804001F0A3
:10195000FFFA01221146900701F071FE1C208DF85C
:10196000000000208DF8010003208DF80200012006
:101970008DF80300684601F0AEF90121880701F0F7
:1019800043FE7FBD70B51C4802F0F5F805461B48C4
:1019900000882C1A002C03DA02201949087009E08B
:1019A000002C03DD01201649087003E0002400200C
:1019B0001349087011480580201E01DB014600E034
:1019C0004142782904DD0F48048800200B49088033
:1019D0000C490C80204670BD10B50121880702F02B
:1019E000DCF838B10121880702F0E8F8FFF7CAFFF8
:1019F0000549086010BD000000040040C00D002033
:101A0000B80D0020C20D0020BC0D0020F0B58BB039
:101A100007460D4616461C460121084600F0E1FE29
:101A2000384602F0F7FA15490C700095019600202F
:101A3000029003940490802005904000069080005E
:101A40000790202008900002099000200A90694623
:101A5000384602F081FB0121094802F0A8FB0BB0D7
:101A6000F0BD10B5022002F0DCFB28B1022002F02C
:101A7000ECFB022002F0E9FB10BD0000C40D0020C9
:101A80000800024010B504462146FA4802F058F812
:101A900010BD10B504462146F64802F053F810BDBB
:101AA00010B5F5480068012808D14FF41B70FFF706
:101AB000E9FF4FF41B70FFF7ECFF05E0FA20FFF79A
:101AC000E1FFFA20FFF7E5FF10BD10B54FF4967166
:101AD000E84802F033F810BD10B5E7480068012867
:101AE00008D14FF4AF70FFF7CDFF4FF4AF70FFF7A1
:101AF000D0FF07E04FF4F570FFF7C4FF4FF4F57027
:101B0000FFF7C7FF10BD10B540F25D21D94802F0C4
:101B100015F810BD38B50446D8480068844219D974
:101B20000021D74802F008F80021D54802F006F855
:101B30000021D34802F004F80021D14802F002F855
:101B400007E00C2004230022194600901A20FFF71A
:101B5000ADFBF6E7A1B2CA4801F0EEFFC948008824
:101B600081B2C74801F0EAFFC648008881B2C44884
:101B700001F0E6FFA1B2C24801F0E4FF38BD38B57C
:101B80000446BE480068844219D90021BC4801F0CF
:101B9000D3FF0021BA4801F0D1FF0021B84801F07D
:101BA000CFFF0021B64801F0CDFF07E00C20042351
:101BB0000022194600901A20FFF778FBF6E7A1B241
:101BC000AF4801F0B9FFAF48008881B2AC4801F0DE
:101BD000B5FFAC48008881B2A94801F0B1FFA1B2BD
:101BE000A74801F0AFFF38BD10B50021A44801F0AF
:101BF000A3FF0021A24801F0A1FF0021A04801F0AD
:101C00009FFF00219E4801F09DFF10BD10B59E482A
:101C1000008881B29A4801F08FFF9A48008881B20B
:101C2000974801F08BFF9748008881B2944801F0F3
:101C300087FF9548008881B2914801F083FF40F208
:101C4000DC5000F0C6F910BD10B58F48008881B295
:101C50008B4801F071FF8B48008881B2884801F001
:101C60006DFF8848008881B2854801F069FF864889
:101C7000008881B2824801F065FF4FF4FA7000F0ED
:101C8000A8F910BD38B504460D467C48006884426A
:101C900003D87A480068854219D90021784801F0B4
:101CA0004BFF0021764801F049FF0021744801F004
:101CB00047FF0021724801F045FF07E00C20042394
:101CC0000022194600901A20FFF7F0FAF6E76D4857
:101CD000008881B26A4801F02FFFA1B2684801F084
:101CE0002DFFA9B2664801F02BFF6648008881B23B
:101CF000634801F027FF38BD38B504465F480068E7
:101D0000844219D900215E4801F016FF00215C4889
:101D100001F014FF00215A4801F012FF0021584839
:101D200001F010FF07E00C20042300221946009068
:101D30001A20FFF7BBFAF6E7A1B2514801F0FCFE0A
:101D40005048008881B24E4801F0F8FEA1B24C48DC
:101D500001F0F6FE4B48008881B2494801F0F2FEDE
:101D600038BD10B54948008881B2454801F0E4FE0D
:101D70004448008881B2424801F0E0FE43480088B0
:101D800081B23F4801F0DCFE3E48008881B23C4809
:101D900001F0D8FE10BD10B53A48008881B238482D
:101DA00001F0CAFE3948008881B2354801F0C6FE0C
:101DB0003448008881B2324801F0C2FE33480088BE
:101DC00081B22F4801F0BEFE10BD38B504462B4845
:101DD0000068844219D90021294801F0ADFE002194
:101DE000274801F0ABFE0021254801F0A9FE0021A3
:101DF000234801F0A7FE07E00C2004230022194627
:101E000000901A20FFF752FAF6E7A1B21C4801F041
:101E100093FE1C48008881B2194801F08FFEA1B2E0
:101E2000174801F08DFE1748008881B2144801F070
:101E300089FE38BD38B5044610480068844227D969
:101E400000210F4801F078FE00210D4801F076FED8
:101E500000210B4801F074FE0021094801F072FED8
:101E600007E00C2004230022194600901A20FFF7F7
:101E70001DFAF6E700080040C80D0020DC0D002028
:101E8000002C0140D00D0020CC0D0020D80D0020EA
:101E90002D48008881B22D4801F04EFEA1B22B489A
:101EA00001F04CFE2848008881B2284801F048FE25
:101EB000A1B2264801F046FE38BD38B50446244894
:101EC0000068844211D90021224801F039FE002126
:101ED000204801F037FE07E00C20042300221946B9
:101EE00000901A20FFF7E2F9F6E71748008881B260
:101EF000184801F025FEA1B2164801F023FE38BDB6
:101F000038B5044612480068844211D900211148AE
:101F100001F016FE00210F4801F014FE07E00C202E
:101F200004230022194600901A20FFF7BFF9F6E7B4
:101F3000A1B2084801F004FE0348008881B20548B8
:101F400001F000FE38BD0000D00D0020002C014043
:101F5000DC0D00200008004010B56FF0040000F018
:101F600004FF2E4800682E49B0FBF1F02D4908709F
:101F70000846007800EB4001C1EBC0104FF6FF713E
:101F800001EAC0002849088010BD0146254A1278A0
:101F90004A434FF0E0235A6100229A611A461269BF
:101FA00042F001021A6100BF4FF0E022106900F018
:101FB00001021AB100F48032002AF5D04FF0E0227D
:101FC000126922F001024FF0E0231A6100229A61A7
:101FD00070470146144A12884A434FF0E0235A6181
:101FE00000229A611A46126942F001021A6100BF8A
:101FF0004FF0E022106900F001021AB100F48032C3
:10200000002AF5D04FF0E022126922F001024FF0D1
:10201000E0231A6100229A61704700002401002029
:1020200000127A00E00D0020E20D002030BF704762
:1020300072B6704762B6704710B54FF4806000F01A
:1020400045FE10BD014600BF704700BF494A1288D7
:1020500002F04002002AF9D0C2B2464B1B1D1A8082
:10206000704710B586B00446012144F2040000F028
:10207000C5FB4FF40070ADF8140003208DF8160076
:1020800018208DF8170005A93B4800F0FBF84FF425
:102090008060ADF8140004208DF8170005A93648BB
:1020A00000F0F0F825208DF8000003208DF80100E5
:1020B0008DF8020001208DF80300684600F00BFE49
:1020C00001940020ADF80800ADF80A00ADF80C004E
:1020D000ADF810000C20ADF80E0001A9254800F065
:1020E00034FC012240F22551224800F0C6FC0121B7
:1020F000204800F0B6FC06B010BD10B540F22551E6
:102100001C4800F09FFD10B31A4800F01BFDC4B23C
:102110001A48008800F40040C8B91848008800F444
:10212000804060B10A2C03D000201449088020E0D0
:102130001248008840F400401049088019E00D2C36
:1021400006D10E48008840F480400C49088010E019
:102150000A480088C0F30D0009490C54074800885C
:10216000401C0649088008460088C72801DD002079
:10217000088010BD0038014000080140E80D002033
:10218000640E00200948804709480047FEE7FEE743
:10219000FEE7FEE7FEE7FEE7FEE7FEE7FEE7FEE717
:1021A00004480549054A064B704700005F0D0008CA
:1021B00031010008900F00209015002090110020A0
:1021C0009011002010B50446CC48844208D101216A
:1021D000042000F02DFB0021042000F029FB46E044
:1021E000C748844208D10121082000F021FB0021CA
:1021F000082000F01DFB3AE0C248844208D10121CA
:10220000102000F015FB0021102000F011FB2EE043
:10221000BD48844208D10121202000F009FB0021A3
:10222000202000F005FB22E0B848844208D10121BB
:10223000402000F0FDFA0021402000F0F9FA16E0FD
:10224000B348844208D10121802000F0F1FA002136
:10225000802000F0EDFA0AE0AE48844207D1012167
:10226000801500F0E5FA0021A01500F0E1FA10BD9C
:1022700010B50121084600F0DBFA0021012000F032
:10228000D7FA10BD2DE9F0410246002500260020B6
:1022900000230024002791F803C00CF00F0591F8EB
:1022A00003C00CF0100CBCF1000F03D091F802C079
:1022B0004CEA050591F800C0BCF1000F31D014685C
:1022C00000202BE04FF0010C0CFA00F3B1F800C035
:1022D0000CEA03069E4220D183004FF00F0C0CFA4B
:1022E00003F7BC4305FA03FC4CEA040491F803C06D
:1022F000BCF1280F06D14FF0010C0CFA00FCC2F81B
:1023000014C00AE091F803C0BCF1480F05D14FF0AA
:10231000010C0CFA00FCC2F810C0401C0828D1D3F4
:102320001460B1F800C0BCF1FF0F34DD5468002028
:102330002EE000F1080C4FF0010808FA0CF3B1F898
:1023400000C00CEA03069E4221D183004FF00F0C1F
:102350000CFA03F7BC4305FA03FC4CEA040491F8B9
:1023600003C0BCF1280F05D100F1080C08FA0CF8E5
:10237000C2F8148091F803C0BCF1480F07D100F1F6
:10238000080C4FF0010808FA0CF8C2F81080401C45
:102390000828CED35460BDE8F0814FF6FF7101806C
:1023A000022181700421C1707047024600209368A9
:1023B0000B400BB1012000E0002070470146886807
:1023C00080B2704702460020D3680B400BB1012059
:1023D00000E0002070470146C86880B27047016184
:1023E0007047416170470AB1016100E04161704787
:1023F000C16070474FF480320A438261816182611B
:1024000082698269704702460020434B18684FF684
:102410008073184040EA021008433F4B1860704731
:102420003E49C8617047F0B50A46002300240021E8
:10243000002500F00046B6F1004F02D1364EF1699A
:1024400001E0354E7168C0F3034583B200F44016D5
:10245000B6F5401F08D121F070612F4E766826F046
:1024600070662D4F7E6012E000F48016B6F5801F76
:1024700006D1032606FA05F4A14341F0706106E097
:10248000460D360103FA06F6B14341F0706122B100
:10249000460D360103FA06F6314300F00046B6F168
:1024A000004F02D11C4EF16101E01B4E7160F0BD86
:1024B00030B500228B071C0F0F2303FA04F2164BD2
:1024C00008338C1053F824309343134C08348D1088
:1024D00044F8253023468C1053F824308C07240F01
:1024E00000FA04F423430C4C08348D1044F82530D2
:1024F00030BD0A49DC310860704700000008014027
:10250000000C01400010014000140140001801407F
:10251000001C01400020014000000140000020425A
:10252000DF48006840F00100DD4908600846406867
:10253000DC490840DA49486008460068DA49084042
:10254000D74908600846006820F4802008600846E3
:10255000406820F4FE0048604FF41F008860704718
:10256000CF49096821F48031CD4A116011460968CC
:1025700021F480211160B0F5803F03D0B0F5802FA9
:102580000ED106E0C649096841F48031C44A1160A1
:1025900007E0C349096841F4A021C14A116000E085
:1025A00000BF00BF704710B5014600220023002085
:1025B0004A11012A02D1BA4C236806E0022A02D14C
:1025C000B74C236A01E0B64C636A01F01F02012494
:1025D00094401C400CB1012000E0002010BD38B533
:1025E000002000900024002500BF3120FFF7DBFF12
:1025F00005460098401C00900098B0F5A06F01D0EF
:10260000002DF2D03120FFF7CEFF08B1012400E009
:102610000024204638BD01460020A14A106820F061
:10262000F80040EAC10010607047A0490860704798
:10263000024600209A4B586820F47C1042EA0103BD
:102640001843974B58607047984908667047014691
:102650000020934A506820F0030008435060704700
:102660008F48406800F00C007047014600208C4AFB
:10267000506820F0F0000843506070470146002089
:10268000874A506820F4E060084350607047014674
:102690000020834A506820F4605040EAC100506036
:1026A000704729B17E4A527A02437D4B5A7204E048
:1026B0007B4A527A82437A4B5A7270477B49D831AF
:1026C0000860704701460020754A506820F4404079
:1026D0000843506070470021714A20321170704ADF
:1026E00082F82010012802D004280AD104E0012138
:1026F0006B4A2032117005E00521694A20321170C1
:1027000000E000BF00BF7047694908607047644936
:10271000096A0143624A1162704765494439086099
:10272000704730B500210022002400235C4D6D6805
:1027300005F00C0121B1042905D0082923D105E0B9
:102740005C4D056022E05B4D05601FE0544D6D68F7
:1027500005F47012524D6D6805F48034022505EBC6
:1027600092421CB9544D554305600BE04C4D6D68C9
:1027700005F400351DB1504D5543056002E04D4D47
:102780005543056002E04B4D056000BF00BF444D5E
:102790006D6805F0F0010909484D6B5C0568DD4086
:1027A00045603F4D6D6805F4E061090A434D6B5C7F
:1027B0004568DD4085603A4D6D6805F46051C90A91
:1027C0003E4D6B5C4568DD40C560354D6D6805F478
:1027D0004041890B3A4D6B5CC568B5FBF3F505616B
:1027E00030BD29B12E4A526902432D4B5A6104E093
:1027F0002B4A526982432A4B5A61704729B1284AB1
:1028000092690243264B9A6104E0254A9269824309
:10281000234B9A61704729B1214AD2690243204B68
:10282000DA6104E01E4AD26982431D4BDA617047C7
:1028300029B11B4AD2680243194BDA6004E0184AF6
:10284000D2688243164BDA60704729B1144A126984
:102850000243134B1A6104E0114A12698243104B80
:102860001A61704712494039086070470F49C864BF
:1028700070470B49C87170470948406A40F0807042
:1028800007494862704701460020054A92680A409D
:102890000AB1012000E000207047014988727047AA
:1028A000001002400000FFF8FFFFF6FE0000424269
:1028B0008004424200127A0000093D00EA0D002027
:1028C000FA0D002010B50446FB48844209D10121CD
:1028D0008803FFF7ADFF00214FF48040FFF7A8FF0A
:1028E00032E0F648844209D101214804FFF7ADFFE8
:1028F00000214FF40030FFF7A8FF25E0F0488442A4
:1029000009D101218804FFF7A0FF00214FF48020A6
:10291000FFF79BFF18E0EB48844209D10121C8046E
:10292000FFF793FF00214FF40020FFF78EFF0BE02D
:10293000E548844208D101210805FFF786FF002100
:102940004FF48010FFF781FF10BD2DE9F04786B0EE
:1029500005460E460024A24600BFA1460027B089C6
:1029600000B100BF2F462C8A4CF6FF700440F0885F
:1029700004432C82AC894EF6F3100440B0883189B0
:102980000843718908430443AC81AC8A4FF6FF4089
:102990000440B0890443AC8201A8FFF7C2FEC648D8
:1029A000874202D1DDF810A001E0DDF80CA0A88973
:1029B00000F4004040B10AEBCA0000EB0A10316895
:1029C0004900B0FBF1F807E00AEBCA0000EB0A107F
:1029D00031688900B0FBF1F86420B8FBF0F0040125
:1029E0002009642101FB1089A88900F4004040B14E
:1029F000322000EBC900B0FBF1F000F00700044307
:102A000008E0322000EB09106421B0FBF1F000F087
:102A10000F0004432C8106B0BDE8F0874FF4165137
:102A2000016000218180C18001810C214181002150
:102A30008181704710B502460020108A4FF2FF03D3
:102A400018400B884C8823438C882343CC8823432D
:102A50001843108210BD0021018041808180C18017
:102A6000704721B1828942F40052828104E0828958
:102A70004DF6FF731A4082817047F0B5034600247B
:102A800000260025002040F66A17B94200D100BF99
:102A90001846C1F3421401F01F06012707FA06F594
:102AA000012C01D10C3004E0022C01D1103000E0E7
:102AB00014301AB107682F43076002E00768AF437C
:102AC0000760F0BD1AB1838A0B43838202E0838AD8
:102AD0008B4383827047028A4FF6F0731A4002825A
:102AE000028A0A430282704782894FF2FF731A40BA
:102AF000828182890A438281704721B1828942F0B2
:102B00000202828104E082894FF6FD731A408281BD
:102B10007047028A4FF6DF731A400282028A0A4324
:102B20000282704721B1028A42F48042028204E0AC
:102B3000028A4BF6FF731A4002827047C1F3080203
:102B40008280704701468888C0F3080070478189F9
:102B500041F0010181817047028BD2B20283028B66
:102B600042EA012202837047028B02F47F42028311
:102B7000028B0A430283704721B1828A42F020020D
:102B8000828204E0828A4FF6DF731A4082827047A5
:102B900021B1828A42F01002828204E0828A4FF6DA
:102BA000EF731A408282704721B1828A42F0080294
:102BB000828204E0828A4FF6F7731A40828270475D
:102BC00021B1828942F40042828103E08289C2F30A
:102BD0000E028281704721B1828A42F400628282B1
:102BE00004E0828A4FF2FF731A4082827047828A21
:102BF0004FF6FB731A408282828A0A4382827047B0
:102C000021B1828A42F00202828204E0828A4FF677
:102C1000FD731A408282704702460020B1F5007FA2
:102C200000D100BF13880B400BB1012000E0002051
:102C3000704701F40072B2F5007F00D100BFCA43B3
:102C40000280704770B50246002400230025002052
:102C500040F66A16B14200D100BFC1F3421501F03F
:102C60001F03012606FA03F3012D02D19689334092
:102C700006E0022D02D1168A334001E0968A3340E5
:102C80000C12012606FA04F41688344013B10CB174
:102C9000012000E0002070BD10B50022002340F6A6
:102CA0006A14A14200D100BF0A1201249440A3B2C9
:102CB000DC43048010BD00000038014000440040A7
:102CC00000480040004C00400050004031490143A2
:102CD000314A1160704770B5002100230F22C4787B
:102CE00004B32D4C246804F4E064C4F5E064210AC4
:102CF000C1F10403CA40447804FA03F18478144013
:102D000021430901254C0678A155047804F01F05DC
:102D10000124AC4005786D11AD0005F1E025C5F842
:102D2000004109E0047804F01F050124AC401C4D6B
:102D30000678761145F8264070BD1A4A0A400243CB
:102D4000154B1B1F1A60704739B1134A121D1268C8
:102D50000243114B1B1D1A6006E00F4A121D126838
:102D600082430D4B1B1D1A607047042808D14FF099
:102D7000E021096941F004014FF0E022116107E010
:102D80004FF0E021096921F004014FF0E0221161C8
:102D9000704700000000FA050CED00E000E400E0E0
:102DA00080E100E080FFFF1F10B50446FE4884422A
:102DB00008D10121C014FFF73BFD0021E014FFF70B
:102DC00037FDC4E0B4F1804F08D101210846FFF778
:102DD0003CFD00210120FFF738FDB8E0F3488442B4
:102DE00008D101210220FFF730FD00210220FFF76A
:102DF0002CFDACE0EE48844208D101210420FFF70D
:102E000024FD00210420FFF720FDA0E0E9488442D2
:102E100008D101210820FFF718FD00210820FFF745
:102E200014FD94E0E448844208D101211020FFF70A
:102E30000CFD00211020FFF708FD88E0DF488442E8
:102E400008D101212020FFF700FD00212020FFF7FD
:102E5000FCFC7CE0DA48844208D101214014FFF7F1
:102E6000E7FC00216014FFF7E3FC70E0D5488442E2
:102E700009D10121C804FFF7DBFC00214FF4002039
:102E8000FFF7D6FC63E0D048844209D10121080550
:102E9000FFF7CEFC00214FF48010FFF7C9FC56E08D
:102EA000CA48844209D101214805FFF7C1FC00212D
:102EB0004FF40010FFF7BCFC49E0C548844208D13C
:102EC00001214020FFF7C1FC00214020FFF7BDFC9D
:102ED0003DE0C048844208D101218020FFF7B5FCC5
:102EE00000218020FFF7B1FC31E0BB48844208D1CB
:102EF00001218015FFF7A9FC0021A015FFF7A5FC13
:102F000025E0B648844209D101210804FFF790FC6E
:102F100000214FF48030FFF78BFC18E0B04884426A
:102F200009D101214804FFF783FC00214FF4003050
:102F3000FFF77EFC0BE0AB48844208D101218804F6
:102F4000FFF776FC00214FF48020FFF771FC10BDE5
:102F500000220288944B98420ED0994B98420BD095
:102F6000B0F1804F08D0914B984205D0904B9842D9
:102F700002D0904B984204D14FF68F731A404B8881
:102F80001A438D4B984207D08C4B984204D04FF691
:102F9000FF431A40CB881A4302808B8883850B88B5
:102FA0000385814B98420BD0854B984208D08B4BC0
:102FB000984205D08A4B984202D08A4B984201D160
:102FC0000B7A038601238382704770B500240022A8
:102FD0000023058C4FF6FE7635400584028C8388ED
:102FE000048B4FF68F752C40B51E2C400D882C435A
:102FF000751E2A400D892A434D882A436A4DA842EE
:103000000BD06F4DA84208D0744DA84205D0744D26
:10301000A84202D0734DA84213D14FF6F7752A404B
:103020004D892A434FF6FB752A408D882A434FF677
:10303000FF652B404FF6FF552B408D892B43CD89E3
:103040002B4383800483CD888586028470BD70B550
:10305000002400220023058C4FF6EF7635400584CE
:10306000028C8388048B48F6FF752C404FF6FF4591
:103070002C400D884FF6FF7606EA05252C434FF6C7
:10308000DF752A400D8906EA05152A434D8806EAB0
:1030900005152A43444DA84202D0494DA8421DD1EE
:1030A0004FF67F752A404D894FF6FF7606EA0515E3
:1030B0002A434FF6BF752A408D8806EA05152A4334
:1030C0004FF6FF352B404FF2FF752B408D8906EAF6
:1030D00085052B43CD8906EA85052B438380048330
:1030E000CD880587028470BD70B5002400220023BE
:1030F000058C4FF6FF6635400584028C8388848BEF
:103100004FF68F752C404FF6FC752C400D882C43E4
:103110004FF6FF552A400D894FF6FF7606EA052542
:103120002A434D8806EA05252A431F4DA84202D0AE
:10313000234DA8421DD14FF2FF752A404D894FF60D
:10314000FF7606EA05252A434FF6FF352A408D888B
:1031500006EA05252A434EF6FF752B404DF6FF750E
:103160002B408D8906EA05152B43CD8906EA051506
:103170002B4383808483CD888587028470BD70B59E
:10318000002200230024058C4EF6FF76354005848E
:10319000038C8488828B48F6FF752A404FF6FF45E2
:1031A0002A400D8820E00000002C0140000400406F
:1031B00000080040000C00400010004000140040D7
:1031C00000340140004C01400050014000540140D7
:1031D00000180040001C004000200040004001405A
:1031E00000440140004801404FF6FF7606EA0525FD
:1031F0002A434DF6FF752B400D8906EA05352B4312
:103200004D8806EA05352B43FA4DA84202D0FA4D07
:10321000A84208D14BF6FF752C408D894FF6FF76FA
:1032200006EA85152C4384808283CD88A0F840501F
:10323000038470BD828B4FF2FF331A408283828BEE
:103240004FF6FF7303EA01231A4382837047F0B5F8
:103250000C461546002200210026078C4EF6FF7C06
:1032600007EA0C070784828B018C4FF6FF7707EA89
:10327000043640F6FF473A404FF6FF7707EA052746
:103280003A434FF6FF7707EA03373A43D94FB8423C
:103290000ED0D94FB8420BD0B0F1804F08D0D74FE5
:1032A000B84205D0D64FB84202D0D64FB84206D168
:1032B0004DF6FF77394046F48057394305E047F62D
:1032C000FF57394044F48057394382830184F0BD6D
:1032D000828B4FF6F3731A408283828B0A43828378
:1032E0007047F0B50C461546002200210026078CD9
:1032F0004FF6FF6C07EA0C070784828B018C4FF6B0
:10330000FF7707EA04264FF60C773A404FF6FF772F
:1033100007EA03172F433A43B64FB8420ED0B64FD1
:10332000B8420BD0B0F1804F08D0B44FB84205D0AE
:10333000B34FB84202D0B34FB84206D14FF6FF5751
:10334000394046F48077394305E04FF2FF57394062
:1033500044F48077394382830184F0BD028B4FF2BD
:10336000FF331A400283028B4FF6FF7303EA0123F7
:103370001A4302837047F0B50C461546002200211F
:103380000026078C4FF6EF7C07EA0C070784028BB8
:10339000018C4FF6FF7707EA041640F6FF473A40E4
:1033A0004FF6FF7707EA03373A434FF6FF7707EA0E
:1033B00005273A438F4FB8420ED08F4FB8420BD0FB
:1033C000B0F1804F08D08D4FB84205D08C4FB84235
:1033D00002D08C4FB84206D14FF6DF77394046F025
:1033E0001007394305E04FF65F77394044F0100786
:1033F000394302830184F0BD028B4FF6F3731A4008
:103400000283028B0A4302837047F0B50C461546CF
:1034100000220021068C4FF6FE773E400684028B88
:10342000018C4FF60C7632407E1C06EA03162E43C2
:103430003243704EB0420ED06F4EB0420BD0B0F15E
:10344000804F08D06D4EB04205D06D4EB04202D0D4
:103450006C4EB04206D14FF6FD76314044F0010685
:10346000314305E04FF6F576314044F00106314333
:1034700002830184F0BD70B505460C465D48854267
:103480000ED05D4885420BD0B5F1804F08D05B4827
:10349000854205D05A48854202D05A48854200D11B
:1034A00000E000BF208850B92389A288618828469F
:1034B000FFF7ABFFE1882846FFF79EFF25E0208855
:1034C00004280AD12389A28861882846FFF753FF80
:1034D000E1882846FFF742FF17E0208808280AD134
:1034E0002389A28861882846FFF7FBFEE1882846E9
:1034F000FFF7EEFE09E02389A28861882846FFF7DE
:10350000A6FEE1882846FFF795FE70BD2DE9F04143
:1035100005460C4600260127608808B9022600E00F
:103520000026A088012801D1022700E00127208879
:10353000A0B92389A28861882846FFF766FFE18841
:103540002846FFF759FF23893A4631462846FFF7B8
:1035500012FFE1882846FFF701FF13E02389A288C4
:1035600061882846FFF707FFE1882846FFF7F6FE47
:1035700023893A4631462846FFF747FFE188284627
:10358000FFF73AFFBDE8F0810A884B881A438B8821
:103590001A43CB881A430B891A434B891A438B89E8
:1035A0001A43A0F8442070474FF6FF718180002134
:1035B0000180C180418001727047002101804180FB
:1035C0008180C180018141818181C1817047002159
:1035D00001804180012181800021C18001817047EB
:1035E0000021018041808180C180018141818181F0
:1035F00070470000002C01400034014000040040EE
:1036000000080040000C004021B1028842F0010295
:10361000028004E002884FF6FE731A400280704771
:1036200031B1B0F8442042F40042A0F8442005E053
:10363000B0F84420C2F30E02A0F8442070471AB13B
:1036400083890B43838102E083898B4383817047A5
:103650008182704741EA0203A0F8483070471AB1EE
:1036600083890B43838102E083898B438381704785
:1036700001894FF6F8721140018170470A46002116
:1036800001894FF68F73194011430181704730B59E
:1036900004460D4629462046FFF7F0FF208940F0FA
:1036A0000700208130BD2DE9F04104460D46164645
:1036B0001F46602D06D13B46012231462046FFF7CA
:1036C0005AFE05E03B46012231462046FFF79DFEAB
:1036D00029462046FFF7D2FF208940F007002081CD
:1036E000BDE8F08130B50C4600210189C9B24FF622
:1036F000FF7505EA0325154325432943018130BDA4
:103700002DE9F04105460E461746984600244346EB
:103710003A4631462846FFF7E5FF2C894FF6F87008
:10372000044044F007044FF68F70044044F07004E6
:103730002C81BDE8F081F0B504460D4616461F46C3
:103740003B46324629462046FFF7CCFF208940F40D
:1037500080402081F0BD0185828270470A460021A9
:1037600001884FF68F731940114301807047F0B5FF
:103770000C4615461E460021002200230189028BBB
:10378000038C4FF6F877394021434FF6FC473A4017
:1037900040F201173A434FF6DD773B404FF6FF7793
:1037A00007EA06172F433B43018102830384F0BDE0
:1037B0000A460021018B4FF68F7319401143018394
:1037C00070470A460021018B48F6FF7319404FF6F7
:1037D000FF7303EA02231943018370470A4600215D
:1037E000818B4FF68F7319401143818370470A46CE
:1037F0000021818B48F6FF7319404FF6FF7303EAEF
:10380000022319438183704721B1028842F080026C
:10381000028004E002884FF67F731A4002807047EE
:1038200021B1828842F00402828004E082884FF64F
:10383000FB731A408280704721B1828842F00802EF
:10384000828004E082884FF6F7731A4082807047C6
:1038500021B1828842F00102828004E082884FF622
:10386000FE731A40828070470A460021018B4FF692
:10387000F77319401143018370470A460021018BF9
:103880004FF2FF7319404FF6FF7303EA0223194307
:10389000018370470A460021818B4FF6F773194068
:1038A0001143818370470A460021818B4FF2FF73D9
:1038B00019404FF6FF7303EA0223194381837047CF
:1038C0000A460021018B4FF6FB7319401143018317
:1038D00070470A460021018B4FF6FF3319404FF61F
:1038E000FF7303EA02231943018370470A4600214C
:1038F000818B4FF6FB7319401143818370470A4651
:103900000021818B4FF6FF3319404FF6FF7303EA16
:1039100002231943818370470A460021018B4FF629
:103920007F7319401143018370470A460021018BC0
:10393000C1F30E014FF6FF7303EA0223194301831B
:1039400070470A460021818B4FF67F73194011435F
:10395000818370470A460021818BC1F30E014FF627
:10396000FF7303EA02231943818370470A4600214B
:10397000018C4FF6FD7319401143018470470A46CC
:103980000021018C4FF6F7731940114301847047F1
:103990000A460021018C4FF6DF7319404FF6FF7382
:1039A00003EA02131943018470470A460021018C7F
:1039B0004FF67F7319404FF6FF7303EA0213194362
:1039C000018470470A460021018C4FF6FF531940CD
:1039D0004FF6FF7303EA02231943018470470A4636
:1039E0000021018C4FF2FF7319404FF6FF7303EA79
:1039F00002231943018470470A460021018C4DF6C9
:103A0000FF7319404FF6FF7303EA02331943018431
:103A1000704730B5002301248C40A3B2048C9C4332
:103A20000484048C02FA01F5ADB22C43048430BD49
:103A300030B5002304248C40A3B2048C9C4304843E
:103A4000048C02FA01F5ADB22C43048430BD70B58C
:103A50000346002000241846183001258D40ACB2E2
:103A60001D8CA5431D8409B1082909D100EB610013
:103A7000056825F0700505600568154305600EE0D2
:103A80000D1FC5F34E052844056825F4E045056083
:103A900005684FF6FF7606EA02263543056070BDDD
:103AA00021B1028842F00202028004E002884FF64F
:103AB000FD731A400280704721B1028842F004026F
:103AC000028004E002884FF6FB731A4002807047C0
:103AD00021B1828842F08002828004E082884FF621
:103AE0007F731A408280704702884FF6F7731A403E
:103AF000028002880A430280704782884FF68F73E3
:103B00001A40828082880A438280704702894FF679
:103B1000F8731A40028102890A43028170470289C0
:103B20004FF67F731A40028102890A43028170476F
:103B3000818470478185704781867047018770470F
:103B400081877047A0F84010704702884FF6FF4306
:103B50001A40028002880A43028070470146888E1C
:103B600070470146088F70470146888F70470146AD
:103B7000B1F8400070470146888C70470146088DB7
:103B8000704702460020138A0B400BB1012000E071
:103B900000207047CA430282704730B502460020B9
:103BA00000230024158A05EA0103958905EA01042A
:103BB00013B10CB1012000E0002030BDCA430282E5
:103BC0007047000010B50446FA48844208D101212C
:103BD0004015FEF72DFE00216015FEF729FE17E0C7
:103BE000F548844208D101210015FEF721FE00218D
:103BF0002015FEF71DFE0BE0F048844208D101219C
:103C0000C803FEF715FE00214FF40040FEF710FE3A
:103C100010BD30B50246002000235068E84C20401B
:103C20000D790C6844EA0524204350609068E54C07
:103C30002040D1E902542C434D7944EA4504204305
:103C40009060D06A20F470000C7C641EE4B22343C0
:103C500040EA0350D06230BD002101600171417122
:103C60008160C16001210174704721B1826842F016
:103C70000102826003E0826822F0010282607047E4
:103C800021B1826842F48072826003E0826822F48B
:103C900080728260704710B50023CBB21AB14468BD
:103CA0001C43446002E044689C43446010BD81684A
:103CB00041F0080181607047014600208A6802F0E7
:103CC00008020AB1012000E000207047816841F03D
:103CD000040181607047014600208A6802F00402F6
:103CE0000AB1012000E00020704721B1826842F44F
:103CF000A002826003E0826822F4A0028260704722
:103D0000014600208A6802F480020AB1012000E026
:103D10000020704710B50A4600210023416821F4B5
:103D20006041531E41EA4331416010BD21B14268F8
:103D300042F40062426003E0426822F400624260A2
:103D40007047F0B504460D4600200021092D11DD15
:103D5000E068A5F10A0606EB4607072606FA07F112
:103D60008843A5F10A0606EB460603FA06F1084366
:103D7000E0600CE0206905EB4507072606FA07F12D
:103D8000884305EB450603FA06F108432061072A3C
:103D90000FDA606B561E06EB86071F2606FA07F140
:103DA0008843561E06EB860605FA06F10843606353
:103DB00022E00D2A0FDA206BD61F06EB86071F269E
:103DC00006FA07F18843D61F06EB860605FA06F1C8
:103DD0000843206310E0E06AA2F10D0606EB8607B7
:103DE0001F2606FA07F18843A2F10D0606EB8606A8
:103DF00005FA06F10843E062F0BD21B1826842F4A1
:103E00008012826003E0826822F480128260704730
:103E10000146C86C80B2704766484C3000687047F5
:103E200021B1426842F48062426003E0426822F4B9
:103E300080624260704721B1426842F48052426021
:103E400003E0426822F48052426070470A46002133
:103E5000816821F4E04111438160704721B182689B
:103E600042F40042826003E0826822F400428260F1
:103E7000704721B1826842F40212826003E08268D6
:103E800022F4021282607047014600208A6802F420
:103E900000120AB1012000E000207047F0B504468E
:103EA0001546002000220026092911DDE068A1F155
:103EB0000A0707EB470C072707FA0CF29043A1F11A
:103EC0000A0707EB470703FA07F21043E0600CE02C
:103ED000206901EB410C072707FA0CF2904301EB34
:103EE000410703FA07F210432061A06BC0F30156AB
:103EF000EF1C06F1010CA7EB0C0707EB870C1F2743
:103F000007FA0CF29043EF1C06F1010CA7EB0C072B
:103F100007EB870701FA07F21043A063F0BD10B565
:103F20000A4600210023816B21F44011531E41EA0F
:103F30000351816310BD08B5002300930090009BDE
:103F40000B440093009B1A6008BD08B50246002090
:103F50000090009201F12800009B18440090009806
:103F6000006880B208BD0A4600214168164B19401E
:103F70001143416070474162826270470A460021E6
:103F8000416821F01F0111434160704740B1094968
:103F90000831096841F40001064A0832116007E05F
:103FA00004490831096821F40001024A083211600D
:103FB000704700000024014000280140003C0140FF
:103FC000FFFEF0FFFDF7F1FFFFFD3FFF024600207F
:103FD00013680B400BB1012000E000207047CA437A
:103FE0000260704770B502460020002300240B12C7
:103FF0005568CEB205EA060415681D4015B10CB12E
:10400000012000E0002070BD00220A12D3430360AB
:104010007047000001684FF6FE72114001600021F8
:10402000016041608160C1608D49884208D18C493E
:104030000839496841F00F01894A083A51608AE01D
:1040400087491431884208D185490839496841F0C7
:10405000F001834A083A51607DE081492831884265
:1040600008D17F490839496841F470617C4A083AAF
:10407000516070E07A493C31884208D1784908396A
:10408000496841F47041764A083A516063E07449E6
:104090005031884208D172490839496841F4702189
:1040A0006F4A083A516056E06D496431884208D140
:1040B0006B490839496841F47001694A083A51600E
:1040C00049E067497831884208D16549083949682B
:1040D00041F07061624A083A51603CE061498842AF
:1040E00006D1011F096841F00F01021F116032E083
:1040F0005C491431884208D15A49091F096841F0C6
:10410000F001584A121F116025E0564928318842B3
:1041100008D15449091F096841F47061514A121FBE
:10412000116018E04F493C31884208D14D49091FC0
:10413000096841F470414B4A121F11600BE0494974
:104140005031884207D14749091F096841F470215D
:10415000444A121F1160704710B50022026847F6EA
:10416000F0739A430C6A8B6823430C6923434C69B0
:1041700023438C692343CC6923434C6A23438C6AD1
:1041800023431A430260CB6843600B6883604B682B
:10419000C36010BD0021016041608160C1600161A8
:1041A00041618161C161016241628162704721B1F7
:1041B000026842F00102026004E002684FF6FE73FA
:1041C0001A40026070471AB103680B43036002E0B3
:1041D00003688B430360704741607047014648683D
:1041E00080B2704701460020002201F080531BB1CD
:1041F0001C4B083B1A6802E0194B083B1A6802EA9C
:1042000001030BB1012000E00020704700F0805155
:1042100019B11449091F086002E0114908394860C2
:10422000704701460020002201F080531BB10D4B66
:10423000083B1A6802E00A4B083B1A6802EA0103CD
:104240000BB1012000E00020704700F0805119B14F
:104250000449091F086002E00149083948607047B5
:1042600008000240080402407047704770477047DA
:104270007047754600F028F8AE460500694653467B
:1042800020F00700854618B020B5FDF789FFBDE88E
:1042900020404FF000064FF000074FF000084FF0AD
:1042A000000B21F00701AC46ACE8C009ACE8C0093E
:1042B000ACE8C009ACE8C0098D4670470446AFF3CE
:1042C00000802046FBF79BFF004870472C0F002022
:1042D0000000000000000000002F000000000700A8
:1042E000070000147F147F1400242A7F2A12006222
:1042F00064081323003649552250000005030000CE
:1043000000001C224100000041221C000014083E55
:1043100008140008083E0808000000A0600000081B
:10432000080808080000606000000020100804026F
:10433000003E5149453E0000427F4000004261512D
:104340004946002141454B31001814127F100027C7
:1043500045454539003C4A4949300001710905038A
:1043600000364949493600064949291E00003636BB
:10437000000000005636000000081422410000141E
:1043800014141414000041221408000201510906FB
:1043900000324959513E007C1211127C007F49497C
:1043A0004936003E41414122007F4141221C007FAD
:1043B00049494941007F09090901003E4149497ABB
:1043C000007F0808087F0000417F41000020404135
:1043D0003F01007F08142241007F40404040007FA1
:1043E000020C027F007F0408107F003E4141413EE5
:1043F000007F09090906003E4151215E007F09192D
:1044000029460046494949310001017F0101003F29
:104410004040403F001F2040201F003F4038403FA9
:10442000006314081463000708700807006151490D
:10443000454300007F41410000552A552A550000A0
:1044400041417F000004020102040040404040401E
:10445000000001020400002054545478007F4844B6
:10446000443800384444442000384444487F0038ED
:104470005454541800087E0901020018A4A4A47C16
:10448000007F080404780000447D400000408084E0
:104490007D00007F102844000000417F4000007C28
:1044A00004180478007C0804047800384444443834
:1044B00000FC242424180018242418FC007C080480
:1044C000040800485454542000043F444020003C59
:1044D0004040207C001C2040201C003C4030403CE0
:1044E000004428102844001CA0A0A07C0044645470
:1044F0004C441414141414140000000000000000B4
:104500000000000000000000000000F800000000B3
:10451000000000333000000000100C06100C0600F4
:10452000000000000000000040C07840C07840005B
:10453000043F04043F040400007088FC08300000BD
:10454000001820FF211E0000F008F000E018000015
:1045500000211C031E211E0000F0088870000000CE
:104560001E2123241927211010160E000000000020
:104570000000000000000000000000E0180402003D
:10458000000000071820400000020418E0000000AE
:104590000040201807000000404080F080404000AC
:1045A0000202010F01020200000000F00000000002
:1045B0000101011F010101000000000000000000D6
:1045C00080B070000000000000000000000000004B
:1045D00000010101010101010000000000000000D4
:1045E000003030000000000000000000806018046F
:1045F000006018060100000000E010080810E0004C
:10460000000F102020100F00001010F80000000014
:104610000020203F2020000000700808088870005B
:1046200000302824222130000030088888483000DB
:104630000018202020110E000000C02010F80000FB
:1046400000070424243F240000F808888808080094
:104650000019212020110E0000E0108888180000A9
:10466000000F112020110E0000380808C83808007B
:104670000000003F000000000070880808887000FB
:10468000001C222121221C0000E010080810E0007C
:104690000000312222110F00000000C0C000000005
:1046A000000000303000000000000080000000002A
:1046B0000000806000000000000080402010080022
:1046C00000010204081020004040404040404000EB
:1046D00004040404040404000008102040800000C6
:1046E0000020100804020100007048080808F000CB
:1046F0000000003036010000C030C828E810E0009B
:104700000718272423140B000000C038E000000025
:10471000203C23020227382008F88888887000008F
:10472000203F202020110E00C03008080808380063
:10473000071820202010080008F808080810E000DA
:10474000203F202020100F0008F88888E80810007B
:10475000203F20202320180008F88888E80810004F
:10476000203F200003000000C03008080838000087
:1047700007182020221E020008F808000008F80888
:10478000203F210101213F20000808F8080800000F
:104790000020203F2020000000000808F808080042
:1047A000C08080807F00000008F888C028180800BA
:1047B000203F20012638200008F8080000000000F3
:1047C000203F20202020300008F8F800F8F80800EA
:1047D000203F003F003F200008F830C00008F808E4
:1047E000203F200007183F00E01008080810E000F4
:1047F0000F10202020100F0008F808080808F0000B
:10480000203F210101010000E01008080810E0002D
:104810000F18242438504F0008F8888888887000C2
:10482000203F2000030C3020007088080808380062
:104830000038202121221C00180808F80808180058
:104840000000203F2000000008F808000008F808D9
:10485000001F202020201F000878880000C838088A
:10486000000007380E010000F80800F80008F80002
:10487000033C0700073C030008186880806818089C
:1048800020302C03032C30200838C800C83808001A
:104890000000203F2000000010080808C838080069
:1048A0002038262120201800000000FE020202000D
:1048B0000000007F40404000000C30C000000000BD
:1048C000000000010638C00000020202FE000000E5
:1048D000004040407F00000000000402020204008B
:1048E00000000000000000000000000000000000C8
:1048F00080808080808080800002020400000000B0
:1049000000000000000000000000808080800000A7
:104910000019242222223F2008F800808000000095
:10492000003F112020110E00000000808080000058
:10493000000E112020201100000000808088F80067
:10494000000E112020103F20000080808080000099
:10495000001F222222221300008080F088888818FD
:104960000020203F20200000000080808080800008
:10497000006B94949493600008F80080808000009D
:10498000203F210000203F20008098980000000078
:104990000020203F202000000000008098980000A8
:1049A00000C08080807F000008F8000080808000C8
:1049B000203F24022D302000000808F800000000ED
:1049C0000020203F202000008080808080808000A8
:1049D000203F20003F20003F80800080808000003A
:1049E000203F210000203F200000808080800000C8
:1049F000001F202020201F008080008080000000F9
:104A000080FFA12020110E00000000808080800027
:104A1000000E112020A0FF80808080008080800018
:104A200020203F2120000100000080808080800045
:104A30000033242424241900008080E080800000BA
:104A40000000001F20200000808000000080800007
:104A5000001F202020103F20808080000080808068
:104A600000010E30080601008080008000808080F8
:104A70000F300C030C300F0000808000808080001D
:104A80000020312E0E312000808080000080808048
:104A900080818E70180601000080808080808000F8
:104AA0000021302C2221300000000000807C020216
:104AB00000000000003F404000000000FF00000038
:104AC00000000000FF0000000002027C80000000E7
:104AD0000040403F00000000000601010202040403
:104AE0000000000000000000084B0008000000204B
:104AF000000E00006C010008B44F0008000E0020FA
:104B000090070000C8010008016C0283010A190522
:104B1000884B840304326432C84BBC0208117CA267
:104B20004A04C42008020304060708091BF0100108
:104B30002AFF050215F01B0F04012AFF0502130FBF
:104B400018094040405F55555575041A5F0C09110E
:104B500021080C11200F094989790909090F201F23
:104B6000112FFE02424ACA4A0304134202FE000EFB
:104B700014FF40504C4340404F50505C40FF1BF8E6
:104B800088012AFF050215F81B1F08012A7F200B48
:104B9000109F80E23B808201000916E2A2928A8681
:104BA000828080041840807F172424A4FEA3221B47
:104BB00022CCAA011415080601FF2B0104010511DE
:104BC000FF0202025808101010FF109008C30211D3
:104BD00008080F140444827F01808040432C102871
:104BE0004681A01E307090988F3F0519C8F830108C
:104BF0000917C221000C15F87888ACF4F4D45404D9
:104C00000CFC2D0F080605010C1511303F41000961
:104C10001668A8ECF4DC5C4C40080C131E1909045F
:104C200006030103040818A0000D11E85CD6F0107B
:104C30006060E6A6B03020100B02110F0103121FB6
:104C40001008070C100F1020203108081440C0C0B5
:104C5000C0FFFF601D11080D12101010080C070195
:104C60000302060C18801380C0080A112CD8505675
:104C7000BA6C4E4B508031180904020222223F0FB9
:104C800001010115000D1390884E5AC4F0A8ACBB69
:104C9000A4E0C0293607153F2A2A2B3B08080C122E
:104CA000808040D85080A0E070FEC09F11100A04A0
:104CB000050607080E0407030B13030C2131000936
:104CC00015889898F8F8D8C840280A0808040405F8
:104CD00004070704010115000B1420A0BCD0D07CF0
:104CE00056584880280C0103100A06223F02050D81
:104CF00019CB0111080C1364E494DCC4C0FCD45833
:104D00006C64811511101F030F131F19090501068B
:104D100080000D15406020A0D0F33B28884830204B
:104D2000000D1514151A25331F0102040C08080084
:104D30000B14984A7EA828BC2725E4E0000D140433
:104D4000151C15121F072A22207F0F080E11606004
:104D5000E0FEB28050D078D84880803F1502030131
:104D60001F000913020B0D1211180701000E13800A
:104D7000600C0880B0E87C6EF8484040080C1007D2
:104D800008060502011711313F013F25404042CC82
:104D9000000913FC2424262524243C480840201F15
:104DA00020405F49010A105F1F174424147F942498
:104DB00019060C111424447F000C14808884424589
:104DC00029111109050318094040484848C8487F7F
:104DD000040A1248BF1710088640300F2440807F15
:104DE0000C100204185F3A8201000916E2A2928AAE
:104DF00086828080393E01250210FC0223F86CFF78
:104E0000FE0201FAFF1C891B0218036C1F1F04011C
:104E1000091040791B02241FF9E80A223FF55DF8CA
:104E200008088801011049160718C8C88808FCF846
:104E30002AFFB63A40010910C019155D6070604044
:104E4000260917404A80010910400809198081830A
:104E500086DCE8C080407C7F3F08010110891A038E
:104E6000193F1F6CF8F0100101105917FBF8F81AE0
:104E7000B9C15A04010210FC4AE4181B0F0FE209E1
:104E800019405A01010210036D1F79E1811D0217BB
:104E900081000B14103F3F180C0C04020201000D9E
:104EA000160103070E1C183030307C7F40000B16B3
:104EB00020C040407C4C4040C0C03418F060091A0B
:104EC000C0112C020C3807FA01821D01F1E1210109
:104ED0001CE1F121C10115080C130101E1FF0105DD
:104EE00019716101FF5C3A7F0609131C414540308E
:104EF0000C070008101030303F402018530E0300FC
:104F000009200F3F2020203F38100210FC0222F819
:104F10008A0801FAE8A76B7F881C051D04060604B1
:104F20004D80E07C1FAEC1071B030E3860C08000BF
:104F30000B194040202010180C060301000A19012B
:104F400003070E1C1C381810251870E0C00410044C
:104F500038F042E0051AC0703C18180A607C3C0426
:104F60008484858584010210852915000B1487C56A
:104F7000C4840424141E0E04AA20010210FC2FF87D
:104F800024242221211B051D30383020061010104A
:104F900030703FF91101236358021AD0081A1C041B
:104FA0000310DC052D01020304042009060708098B
:044FB00002040608E9
:0400000508000131BD
:00000001FF
