:020000040800F2
:100000002017002015020008930400088B04000844
:100010008F040008C5020008DF0F00080000000080
:10002000000000000000000000000000FD070008C4
:10003000C902000800000000790700081109000843
:100040002F0200082F0200082F0200082F020008CC
:100050002F0200082F0200082F0200082F020008BC
:100060002F0200082F0200082F0200082F020008AC
:100070002F0200082F0200082F0200082F0200089C
:100080002F0200082F0200082F0200082F0200088C
:100090002F0200082F0200082F0200082F0200087C
:1000A0002F0200082F0200082F0200082F0200086C
:1000B0002F0200082F0200082F0200082F0200085C
:1000C0002F0200082F0200082F0200082F0200084C
:1000D0002F020008F90E00082F0200082F02000866
:1000E0002F0200082F0200082F0200082F0200082C
:1000F0002F0200082F0200082F0200082F0200081C
:100100002F0200082F0200082F0200082F0200080B
:100110002F0200082F0200082F0200082F020008FB
:100120002F0200082F0200082F0200082F020008EB
:1001300000F002F800F05EF80AA090E8000C82449B
:100140008344AAF10107DA4501D100F053F8AFF278
:10015000090EBAE80F0013F0010F18BFFB1A43F0A5
:100160000103184798180000B818000010F8013B68
:100170000A4413F0030408BF10F8014B1D1108BF17
:1001800010F8015B641E05D010F8016B641E01F8C5
:10019000016BF9D1002D15D010F8014B03F00C03C1
:1001A0000C2BA1EB04040ABF10F8013BA4EB831451
:1001B000A4EB032405F1010314F8016B5B1E01F8A5
:1001C000016BF9D5914238BF10F8013BD1D370478C
:1001D0000023002400250026103A28BF78C1FBD850
:1001E000520728BF30C148BF0B6070471FB51FBD05
:1001F00010B510BD00F033F81146FFF7F7FF01F01E
:10020000A7FA00F051F803B4FFF7F2FF03BC00F0C7
:10021000E8FE00000948804709480047FEE7FEE77E
:10022000FEE7FEE7FEE7FEE7FEE7FEE7FEE7FEE7A6
:1002300004480549054A064B7047000015090008A7
:100240003101000820110020201700202013002079
:1002500020130020704770477047704770477546FD
:1002600000F02CF8AE4605006946534620F0070022
:10027000854618B020B5FFF7DBFFBDE820404FF002
:1002800000064FF000074FF000084FF0000B21F080
:100290000701AC46ACE8C009ACE8C009ACE8C0094D
:1002A000ACE8C0098D46704710B50446AFF3008036
:1002B0002046BDE81040FFF7A6BF00000048704789
:1002C000BC10002000BFFEE770472DE9F041024658
:1002D00000250026002000230024002791F803C0F9
:1002E0000CF00F0591F803C00CF0100CBCF1000FDE
:1002F00003D091F802C04CEA050591F800C0BCF1AA
:10030000000F31D0146800202BE04FF0010C0CFAE4
:1003100000F3B1F800C00CEA03069E4220D183002E
:100320004FF00F0C0CFA03F7BC4305FA03FC4CEA40
:10033000040491F803C0BCF1280F06D14FF0010C62
:100340000CFA00FCC2F814C00AE091F803C0BCF13A
:10035000480F05D14FF0010C0CFA00FCC2F810C098
:10036000401C0828D1D31460B1F800C0BCF1FF0FC5
:1003700034DD546800202EE000F1080C4FF0010835
:1003800008FA0CF3B1F800C00CEA03069E4221D132
:1003900083004FF00F0C0CFA03F7BC4305FA03FC83
:1003A0004CEA040491F803C0BCF1280F05D100F118
:1003B000080C08FA0CF8C2F8148091F803C0BCF1DC
:1003C000480F07D100F1080C4FF0010808FA0CF8AB
:1003D000C2F81080401C0828CED35460BDE8F081DC
:1003E000F0B50A46002300240021002500F0004655
:1003F000B6F1004F02D11D4EF16901E01B4E71684C
:10040000C0F3034583B200F44016B6F5401F08D18F
:1004100021F07061154E766826F07066134F7E608D
:1004200012E000F48016B6F5801F06D1032606FA06
:1004300005F4A14341F0706106E0460D360103FA70
:1004400006F6B14341F0706122B1460D360103FA60
:1004500006F6314300F00046B6F1004F02D1034EDC
:10046000F16101E0014E7160F0BD0000000001404B
:100470000246002093680B400BB1012000E00020F1
:100480007047416170470161704700BFFEE700BFE0
:10049000FEE7704702490143024A116070470000BD
:1004A0000000FA050CED00E070B5002419E004F13D
:1004B000B001C8B2002100F027F90021084600F081
:1004C00023F90021102000F01FF9002505E001218B
:1004D000002000F019F9681CC5B2802DF7DB601C04
:1004E000C4B2082CE3DB70BD08B501214FF4947051
:1004F00000F064F94FF4FC70ADF8000010208DF8A6
:10050000030003208DF8020069465648FFF7DDFE20
:100510004FF4FC715348FFF7B6FF0320ADF800001D
:1005200069465148FFF7D1FE03214F48FFF7ABFF63
:100530004FF40040ADF8000069464C48FFF7C5FE97
:100540004FF400414948FFF79EFF10214548FFF74F
:100550009AFF642000F048FF10214248FFF791FF06
:10056000642000F041FF10213E48FFF78CFF00217E
:10057000AE2000F0C9F80021084600F0C5F80021BF
:10058000102000F0C1F80021402000F0BDF800214B
:10059000812000F0B9F80021CF2000F0B5F800214B
:1005A000A12000F0B1F80021C82000F0ADF8002132
:1005B000A62000F0A9F80021A82000F0A5F800214D
:1005C0003F2000F0A1F80021D32000F09DF8002189
:1005D000084600F099F80021D52000F095F8002198
:1005E000802000F091F80021D92000F08DF8002142
:1005F000F12000F089F80021DA2000F085F80021D0
:10060000122000F081F80021DB2000F07DF80021AD
:10061000402000F079F80021202000F075F800213A
:10062000022000F071F800218D2000F06DF800210B
:10063000142000F069F80021A42000F065F80021E2
:10064000A62000F061F80021AF2000F05DF8002145
:10065000AF2000F059F8FFF727FF0021084600F00F
:1006600007F808BD001401400010014000200140BF
:1006700070B504460D4605F1B001C8B2002100F086
:1006800043F8102141EA1410002100F03DF804F075
:100690000F0141F00100002100F036F870BD0000AC
:1006A0002DE9F04180460E4615460027314640466A
:1006B000FFF7DEFF00240AE0124A02EB8511085D15
:1006C000012100F021F8781CC7B2601CC4B2102CC4
:1006D000F2DB701CC1B24046FFF7CAFF00240CE0F9
:1006E0006900491C074A02EB4111085D012100F035
:1006F0000BF8781CC7B2601CC4B2102CF0DBBDE84C
:10070000F08100002200002070B504460E4626B19C
:1007100020211848FFF7B7FE03E020211548FFF716
:10072000B0FE08211348FFF7ACFE002517E040217A
:100730001048FFF7A6FE04F0800020B180210D488C
:10074000FFF7A1FE03E080210A48FFF79AFE40214F
:100750000848FFF798FE6006040E681CC5B2082D15
:10076000E5DB08210348FFF78EFE20210148FFF753
:100770008AFE70BD001401407047000029B1064A8E
:10078000D2690243044BDA6104E0034AD26982432E
:10079000014BDA61704700000010024029B1064A9F
:1007A00012690243044B1A6104E0034A126982434E
:1007B000014B1A61704700000010024029B1064A3F
:1007C00092690243044B9A6104E0034A92698243AE
:1007D000014B9A61704700000010024029B1064A9F
:1007E000D2680243044BDA6004E0034AD2688243D1
:1007F000014BDA607047000000100240704710B5EE
:1008000000F002F810BD00000CB50020019000902F
:100810003348006840F480303149086000BF3048F8
:10082000006800F4003000900198401C019000988E
:1008300018B90198B0F5A06FF1D12948006800F40B
:10084000003010B10120009001E0002000900098DD
:10085000012843D12348006840F010002149086076
:100860000846006820F0030008600846006840F071
:10087000020008601A484068194948600846406804
:1008800048600846406840F4806048600846406818
:1008900020F47C1048600846406840F4E810486046
:1008A0000846006840F08070086000BF0C4800688F
:1008B00000F000700028F9D00948406820F00300DB
:1008C000074948600846406840F00200486000BFA1
:1008D0000348406800F00C000828F9D10CBD000066
:1008E0000010024000200240042808D14FF0E0210F
:1008F000096941F004014FF0E022116107E04FF077
:10090000E021096921F004014FF0E02211617047F4
:100910007047000010B51348006840F0010011490D
:10092000086008464068104908400E49486008467B
:1009300000680E4908400B4908600846006820F42A
:10094000802008600846406820F4FE0048604FF4AC
:100950001F008860FFF753FF4FF0006004490860F4
:1009600010BD0000001002400000FFF8FFFFF6FE7F
:1009700008ED00E021B1028842F08002028004E02C
:1009800002884FF67F731A400280704721B10288B7
:1009900042F00102028004E002884FF6FE731A4022
:1009A0000280704710B504466848844208D101218E
:1009B000C014FFF713FF0021E014FFF70FFFC4E09E
:1009C000B4F1804F08D101210846FFF7E7FE00216E
:1009D0000120FFF7E3FEB8E05D48844208D1012121
:1009E0000220FFF7DBFE00210220FFF7D7FEACE07C
:1009F0005848844208D101210420FFF7CFFE00218E
:100A00000420FFF7CBFEA0E05348844208D1012127
:100A10000820FFF7C3FE00210820FFF7BFFE94E087
:100A20004E48844208D101211020FFF7B7FE002173
:100A30001020FFF7B3FE88E04948844208D1012125
:100A40002020FFF7ABFE00212020FFF7A7FE7CE06F
:100A50004448844208D101214014FFF7BFFE002121
:100A60006014FFF7BBFE70E03F48844209D10121CA
:100A7000C804FFF7B3FE00214FF40020FFF7AEFEDD
:100A800063E03A48844209D101210805FFF7A6FE38
:100A900000214FF48010FFF7A1FE56E03448844255
:100AA00009D101214805FFF799FE00214FF40010FC
:100AB000FFF794FE49E02F48844208D101214020ED
:100AC000FFF76CFE00214020FFF768FE3DE02A485A
:100AD000844208D101218020FFF760FE00218020A0
:100AE000FFF75CFE31E02548844208D101218015E2
:100AF000FFF754FE0021A015FFF750FE25E0204827
:100B0000844209D101210804FFF768FE00214FF457
:100B10008030FFF763FE18E01A48844209D10121B2
:100B20004804FFF75BFE00214FF40030FFF756FE4C
:100B30000BE01548844208D101218804FFF74EFEDE
:100B400000214FF48020FFF749FE10BD002C01402A
:100B50000004004000080040000C0040001000406D
:100B60000014004000340140004C0140005001409E
:100B70000054014000180040001C004000200040CC
:100B800000400140004401400048014070B500248D
:100B900000220023058C4FF6FE7635400584028C3A
:100BA0008388048B4FF68F752C40B51E2C400D8822
:100BB0002C43751E2A400D892A434D882A43144D23
:100BC000A8420BD0134DA84208D0134DA84205D01F
:100BD000124DA84202D0124DA84213D14FF6F7751C
:100BE0002A404D892A434FF6FB752A408D882A43B7
:100BF0004FF6FF652B404FF6FF552B408D892B4359
:100C0000CD892B4383800483CD888586028470BD83
:100C1000002C0140003401400040014000440140EC
:100C2000004801400A460021018B4FF6F773194036
:100C3000114301837047000070B500240022002397
:100C4000058C4FF6EF7635400584028C8388048B43
:100C500048F6FF752C404FF6FF452C400D884FF6A7
:100C6000FF7606EA05252C434FF6DF752A400D89ED
:100C700006EA05152A434D8806EA05152A43154D4F
:100C8000A84202D0144DA8421DD14FF67F752A40CC
:100C90004D894FF6FF7606EA05152A434FF6BF75D4
:100CA0002A408D8806EA05152A434FF6FF352B406A
:100CB0004FF2FF752B408D8906EA85052B43CD89C0
:100CC00006EA85052B4383800483CD88058702844B
:100CD00070BD0000002C0140003401400A46002194
:100CE000018B4FF2FF7319404FF6FF7303EA0223A3
:100CF000194301837047000070B5002400220023CF
:100D0000058C4FF6FF6635400584028C8388848B02
:100D10004FF68F752C404FF6FC752C400D882C43F8
:100D20004FF6FF552A400D894FF6FF7606EA052556
:100D30002A434D8806EA05252A43154DA84202D0CC
:100D4000144DA8421DD14FF2FF752A404D894FF630
:100D5000FF7606EA05252A434FF6FF352A408D889F
:100D600006EA05252A434EF6FF752B404DF6FF7522
:100D70002B408D8906EA05152B43CD8906EA05151A
:100D80002B4383808483CD888587028470BD0000D7
:100D9000002C0140003401400A460021818B4FF6AF
:100DA000F7731940114381837047000070B500222A
:100DB00000230024058C4EF6FF7635400584038C15
:100DC0008488828B48F6FF752A404FF6FF452A40FB
:100DD0000D884FF6FF7606EA05252A434DF6FF7586
:100DE0002B400D8906EA05352B434D8806EA05356B
:100DF0002B430B4DA84202D00A4DA84208D14BF616
:100E0000FF752C408D894FF6FF7606EA85152C4339
:100E100084808283CD88A0F84050038470BD000098
:100E2000002C0140003401400A460021818B4FF222
:100E3000FF7319404FF6FF7303EA022319438183BE
:100E40007047818670470187704781877047A0F897
:100E500040107047002202881D4B98420ED01D4B57
:100E600098420BD0B0F1804F08D01B4B984205D070
:100E70001A4B984202D01A4B984204D14FF68F7306
:100E80001A404B881A43174B984207D0164B98428A
:100E900004D04FF6FF431A40CB881A4302808B8858
:100EA00083850B8803850A4B98420BD0094B9842E7
:100EB00008D00E4B984205D00D4B984202D00D4BF6
:100EC000984201D10B7A0386012383827047000088
:100ED000002C0140003401400004004000080040A4
:100EE000000C004000100040001400400040014091
:100EF000004401400048014010B540F225511D4812
:100F000000F03EF810B31B4800F064F8C4B21A4871
:100F1000008800F40040C8B91748008800F48040F9
:100F200060B10A2C03D000201349088020E0124849
:100F3000008840F400401049088019E00D2C06D1CB
:100F40000D48008840F480400B49088010E00A48B2
:100F50000088C0F30D0009490C5407480088401C64
:100F60000549088008460088C72801DD0020088060
:100F700010BD00000038014020000020F40F0020C8
:100F800070B50246002400230025002040F66A16B2
:100F9000B14200D100BFC1F3421501F01F03012689
:100FA00006FA03F3012D02D19689334006E0022DA3
:100FB00002D1168A334001E0968A33400C12012692
:100FC00006FA04F41688344013B10CB1012000E095
:100FD000002070BD01468888C0F30800704700BF3C
:100FE000FEE7014600BF704710B50221EB48FFF74E
:100FF0003FFA002871D10421E848FFF739FA0028A8
:10100000F8D11021E548FFF733FA0028F2D120216A
:10101000E248FFF72DFA0028ECD14FF48061DF4859
:10102000FFF726FA28B14FF40061DC48FFF720FAF9
:1010300080B9C82000F0FEF94FF48061D748FFF76F
:1010400017FA28B14FF40061D448FFF711FA08B934
:1010500000F016FA4021D148FFF70AFA50B180217A
:10106000CE48FFF705FA28B14FF40071CB48FFF7DF
:10107000FFF9A0B9C82000F0DDF94021C748FFF70B
:10108000F7F950B18021C548FFF7F2F928B14FF4C4
:101090000071C248FFF7ECF908B900F023FA4FF4E9
:1010A0008061BE48FFF7E4F928B14FF40061BB4806
:1010B000FFF7DEF990B9C82000F0BCF94FF4806169
:1010C000B648FFF7D5F928B14FF40061B348FFF7F0
:1010D000CFF928B900F0D4F902E00CE100F034FABD
:1010E0004021AE48FFF7C4F958B18021AB48FFF763
:1010F000BFF930B14FF40071A848FFF7B9F90028E3
:101100007DD1C82000F096F94021A448FFF7B0F93E
:1011100050B18021A148FFF7ABF928B14FF400711D
:101120009E48FFF7A5F910B900F0DCF935E14FF45E
:1011300080519A48FFF79CF978B14FF400519748D5
:10114000FFF796F948B101219548FFF791F920B1D1
:1011500004219348FFF78CF900BBC82000F06AF91E
:101160004FF480518D48FFF783F980B14FF400515F
:101170008A48FFF77DF950B101218948FFF778F9D6
:1011800028B104218648FFF773F90028CED100F07A
:1011900017FA4FF4BE7000F027F9FEE04FF48041DB
:1011A0007E48FFF765F980B14FF400417B48FFF7B7
:1011B0005FF950B102217A48FFF75AF928B10821A6
:1011C0007748FFF755F90028B0D1C82000F032F970
:1011D0004FF480417148FFF74BF978B14FF400416B
:1011E0006E48FFF745F948B102216D48FFF740F915
:1011F00020B108216A48FFF73BF940B900E009E057
:1012000000F01AFA4FF4BE7000F0EEF8C5E000F0FE
:101210009BF9C2E04FF480516048FFF729F978B19B
:101220004FF400515D48FFF723F948B101215C48B4
:10123000FFF71EF920B104215948FFF719F900BB47
:10124000C82000F0F7F84FF480515448FFF710F928
:1012500080B14FF400515148FFF70AF950B1012114
:101260004F48FFF705F928B104214D48FFF700F971
:10127000002805D100F0A4F94FF4BE7000F0B4F8D6
:101280008BE04FF480414548FFF7F2F880B14FF40E
:1012900000414248FFF7ECF850B102214048FFF707
:1012A000E7F828B108213E48FFF7E2F8002874D19A
:1012B000C82000F0BFF84FF480413848FFF7D8F855
:1012C00078B14FF400413548FFF7D2F848B1022118
:1012D0003348FFF7CDF820B108213148FFF7C8F8AF
:1012E00030B900F0A9F94FF4BE7000F07DF854E079
:1012F00000F02AF951E002212848FFF7B9F8012847
:1013000005D004212548FFF7B3F801281CD1C820D7
:1013100000F090F802212148FFF7AAF8012805D033
:1013200004211E48FFF7A4F801280DD100F0A2F90E
:1013300000F0A6F84FF42F7000F056F800F05EF9B8
:101340004FF4FA7000F050F810211448FFF790F8AD
:10135000012805D020211148FFF78AF801281CD167
:10136000C82000F067F810210C48FFF781F8012829
:1013700005D020210948FFF77BF801280DD100F0A6
:1013800079F900F0FFF84FF42F7000F02DF800F01D
:1013900035F94FF4FA7000F027F810BD000C014049
:1013A0000010014010B56FF00400FFF79DFA0A48E5
:1013B00000680A49B0FBF1F0094908700846007856
:1013C00000EB4001C1EBC0104FF6FF7101EAC00015
:1013D0000449088010BD00000400002000127A00BB
:1013E000180000201A0000200146114A12884A43C2
:1013F0004FF0E0235A6100229A611A46126942F0C6
:1014000001021A6100BF4FF0E022106900F00102F2
:101410001AB100F48032002AF5D04FF0E0221269B0
:1014200022F001024FF0E0231A6100229A61704716
:101430001A0000200146114A12784A434FF0E02377
:101440005A6100229A611A46126942F001021A6139
:1014500000BF4FF0E022106900F001021AB100F461
:101460008032002AF5D04FF0E022126922F001020A
:101470004FF0E0231A6100229A61704718000020A3
:1014800010B516480068B0F5FA7F15DA3221144815
:10149000FFF7D7FC0A211248FFF7D5FC322110488C
:1014A000FFF7D3FC0A210E48FFF7D1FC0B48006878
:1014B000401C0A4908600FE05F210948FFF7C1FCA2
:1014C00005210748FFF7BFFC5F210548FFF7BDFC7A
:1014D00005210348FFF7BBFC10BD0000E80F00200A
:1014E0000004004010B516480068B0F5FA7F15DA20
:1014F0000A211448FFF7A5FC37211248FFF7A3FC87
:101500000A211048FFF7A1FC37210E48FFF79FFC86
:101510000B480068401C0A4908600FE00521094893
:10152000FFF78FFC5F210748FFF78DFC0521054879
:10153000FFF78BFC5F210348FFF789FC10BD00001B
:10154000E40F00200004004010B500200A490860A4
:101550000A4908600A210A48FFF773FC1E2108485F
:10156000FFF771FC0A210648FFF76FFC1E210448B3
:10157000FFF76DFC10BD0000E40F0020E80F002015
:101580000004004010B500200A4908600A490860BC
:101590000A210A48FFF755FC5A210848FFF753FC77
:1015A0000A210648FFF751FC5A210448FFF74FFC77
:1015B00010BD0000E40F0020E80F002000040040F0
:1015C00010B500200A4908600A49086046210A4807
:1015D000FFF737FC0A210848FFF735FC0A210648C7
:1015E000FFF733FC46210448FFF731FC10BD000033
:1015F000E40F0020E80F00200004004010B5002098
:101600000A4908600A4908600A210A48FFF719FCDC
:1016100050210848FFF717FC0A210648FFF715FC80
:1016200014210448FFF713FC10BD0000E40F002054
:10163000E80F00200004004010B500200A490860AF
:101640000A4908600A210A48FFF7FBFB46210848BF
:10165000FFF7F9FB46210648FFF7F7FB0A2104488C
:10166000FFF7F5FB10BD0000E40F0020E80F00209D
:101670000004004010B500200A4908600A490860CB
:101680000A210A48FFF7DDFB0A210848FFF7DBFBC8
:101690000A210648FFF7D9FB0A210448FFF7D7FBC8
:1016A00010BD0000E40F0020E80F002000040040FF
:1016B00010B500200A4908600A49086005210A4857
:1016C000FFF7BFFB5F210848FFF7BDFB5F2106481E
:1016D000FFF7BBFB05210448FFF7B9FB10BD000075
:1016E000E40F0020E80F00200004004010B50521A1
:1016F0001648FFF7A6FB5F211448FFF7A4FB5F2104
:101700001248FFF7A4FB05211048FFF79EFB642059
:10171000FFF76AFE05218807FFF799FB5A21480762
:10172000FFF793FB4FF4FA70FFF75EFE4FF4FA7089
:10173000FFF75AFE00214FF08040FFF788FB0021A1
:101740004FF08040FFF781FB10BD00000004004017
:10175000FFF728FE4FF4A060FEF79CFEFEF7C4FEE4
:10176000FEF7A2FE00F094F800F072F800F05AF8CC
:101770004FF4FA60FFF738FEFEF796FE4AE026487F
:101780000068012804D1FFF7B1FF0020224908605A
:1017900040212248FEF76CFE50B180211F48FEF721
:1017A00067FE28B14FF400711C48FEF761FE70BB64
:1017B0004FF480611948FEF75BFE28B14FF40061D9
:1017C0001648FEF755FE10BB10211548FEF750FED7
:1017D00048B120211248FEF74BFE20B140211048AD
:1017E000FEF746FE40B9FFF74BFE4FF4FA60FFF7F5
:1017F000FBFDFFF77BFF0DE0FFF75AFFFFF740FE11
:101800004FF4FA60FFF7F0FDFFF770FF02E0FFE72B
:10181000FFF7EAFBB3E7000000000020000C0140E6
:101820000010014010B5072200210846FEF738FFDE
:10183000082200211220FEF733FF09220021242074
:10184000FEF72EFF0A2200213620FEF729FF10BDE9
:1018500008B501211820FEF7B1FF4FF6F660ADF88C
:10186000000004208DF8030003208DF80200694673
:101870000548FEF72AFD7F20ADF8000069460348C1
:10188000FEF723FD08BD0000000C014000100140E0
:1018900000B589B001211020FEF790FF012104203E
:1018A000FEF78CFF01210846FEF788FF0121022088
:1018B000FEF764FF4D48FFF775F801210846FEF773
:1018C0005DFF4FF08040FFF76DF801214848FEF7BB
:1018D00087FD4FF47070ADF8040018208DF80700F4
:1018E00003208DF8060001A94248FEF7EEFC0C200B
:1018F000ADF8040018208DF8070003208DF80600CD
:1019000001A93D48FEF7E1FC6820ADF80C00472036
:10191000ADF808000020ADF80E00ADF80A0002A9ED
:101920003248FFF797FA02A94FF08040FFF792FA8A
:101930006020ADF814000120ADF816000020ADF8CD
:101940001A00ADF81C0005A92848FFF71FF9082167
:101950002648FFF767F90020ADF81A0005A92348CB
:10196000FFF76AF908212148FFF7B8F90020ADF820
:101970001A0005A91D48FFF7BFF908211B48FFF70A
:101980000BFA0020ADF81A0005A91848FFF70EFA67
:1019900008211648FFF748FA0020ADF81A0005A9FB
:1019A0004FF08040FFF7A8F90821C806FFF7F4F9C7
:1019B0000020ADF81A0005A94FF08040FFF7F6F9B6
:1019C0000821C806FFF730FA01210848FEF7D2FFC8
:1019D00001210648FEF7DAFF01218807FEF7CAFF5A
:1019E00001218807FEF7D2FF09B000BD00040040C6
:1019F000000C1A0000100140000801401C1A0008E9
:101A000000000020F40F00006C010008E41F000833
:101A1000F40F00202C070000D00100081301000182
:101A20005005A24A040001900A01020304060708B7
:101A300009000113F0100122FF050312F000011349
:101A40000F040122FF0502110F1E10094040405FE4
:101A50005555557504125F0C011121000C11200F12
:101A6000094989790909090F201F200800FE02424F
:101A70004ACA4A030004114202FE20000E12FF402F
:101A8000504C4340404F50505C40FFA013F8880139
:101A900022FF050213F8C0131F0801227F20031044
:101AA0009F80E233808201040913E2A2928A868237
:101AB0008080020005140040807F19100C00002473
:101AC00024A4FEA3220022CCAA05123E2407080665
:101AD00001FF00013EF00604FF0202029E357C5326
:101AE0009008C3F20840000F110444827F018080F7
:101AF00040432C10284681A010040202C25832FE36
:101B0000C7061302A0527F04061240A00410112041
:101B10001808EAACA8A8AFA8A8ACEA082818E212EE
:101B20003E5F1202BC04041112221E7E2540417D3C
:101B300021830111A04804804030380616FF43106D
:101B400007FC4444444546050B12447C3F331807C8
:101B50002221200610FCDE18051060028C441AF2C7
:101B60003C0612F882040D1204047E018047300FF7
:101B700010270047C62007404042CC0090010406D1
:101B800012FF10111610FE080D133F1028603F10B1
:101B900010010E3040F00020062322003E22010AF0
:101BA000143E0010080106404949497F04021241D1
:101BB000FF191B0C0A1014155694543414040460B5
:101BC00003153E100701010141817F060B13050338
:101BD00040293F11FB0A12FF401C060242817F0090
:101BE000010321201D09030511C1200660F807101B
:101BF00090FC031110D0FF1D4204080B11FF404060
:101C0000415E4040704E4140057F002900080A14A3
:101C1000104837E424240404FC00080B1300011DC1
:101C2000111F115D81403F401F0CC0FC042C04902B
:101C30007F9003050111401B7C03C304098F0C1323
:101C400060030C3040800039C03E8001051D410416
:101C50000D1180034C0540201F2043050D14A005E5
:101C60003D17060C0415E21CE09D03200680402071
:101C7000100C7731FF0A13803F11C30C0913C434D1
:101C8000858684F48484C1051F300F04050F140277
:101C90004C450551412602080A14FC802DC4050C50
:101CA00007100400FF0408078005000D122010E84B
:101CB00024272424E424342C20C41C0480601F7BAB
:101CC000061C04097F09850602177F7F0C09122470
:101CD0002425262424243C9F041006FF403C03FFB7
:101CE000410C04117F098960040C0D1380FC96E5FA
:101CF00084FC0008C8494AC85F03227FF911861D89
:101D0000480400044F404078C0200C965A327E317F
:101D100059951222FE00040D11400719791FFF008A
:101D200046062E040A040D1440050C0A142494CC13
:101D3000A596C48C142440050C0A12201008FC42FD
:101D4000240815224006053D803DC003200400FE06
:101D500092010D12FF072DC0051006407E42427E03
:101D6000020F12427E410815BD1724FCBF21080D49
:101D70001240030C0D508F80844C55252525554C61
:101D8000808040072C0B080888C8380C0B0808E82E
:101D900067080D1180051E01C208124101227F054E
:101DA0000D1580032D630501135E3D60099DBF077E
:101DB0000D11C0073C0520FF202004091D02040E60
:101DC00010A8C0070C091710301F0888601F80403A
:101DD000082EF81F092004887F88070D124109107A
:101DE00005FF000804C51D3B0A0D13C1031C0704B1
:101DF0000484E41C073C030C051124A46424C006DD
:101E0000250015642C0442827F47080E1602040840
:101E10002D9C0605134019C16241010D1442082E84
:101E2000FE7A0541050914802DC008327F830D120A
:101E30001F0A0C0E1114A4442434AD6624940444E7
:101E4000A414C0051C0409080880031404FD090932
:101E5000E40F12090880051C044458C064090C05ED
:101E600011C050484620071DBB092DC2083DFE0386
:101E70000D1200040D42C00A0D3C80093DFB071DF8
:101E8000050C0F121413FE080C1011818141412121
:101E9000110D030D11214141818180081C06D0FFE5
:101EA00090502061060C04114C502020031B0403A9
:101EB000420C0911414458414E60584740040D3EC0
:101EC000C0092D410C0C07131222C202C2323E0C73
:101ED00029001DA4041E0CBD070C0615000F304080
:101EE000F840043DFE050D1300061DBD061C04212F
:101EF0001549440941060D1100044C060888780F65
:101F000088FF030A10C82010081088864144221157
:101F1000810C0413102241600C0D3CC0042DB6034B
:101F2000340708084820D817C50D1100041A1041BD
:101F30000C081188402116081621C0081E803C0894
:101F40006D400D021388A07E7C81040D119F07490E
:101F5000000C091014E4AFA4A4A4AFE4FF034900EB
:101F60000C0911894B2A1A0E1A2A4BA0081D7A094E
:101F700021013D820E0D13800B1C042060207D0B7F
:101F80001E10800807121020C01406FE0222DA0676
:101F9000050F13898E400D1D5A042C041008874626
:101FA000090F134080000A1C0788C4334847446265
:101FB0000C0D1481081DBF05200820603E201F1253
:101FC000124A0D12020F1D00041F4040240B1D0079
:101FD000040D13C0067E04400F0E110420050140BD
:041FE00040E10100DB
:0400000508000215D8
:00000001FF
