:020000040800F2
:10000000000A00203D050008110300081303000842
:10001000170300081B0300081F030008000000006E
:1000200000000000000000000000000023030008A2
:10003000250300080000000027030008290300082A
:100040005705000857050008570500085705000820
:100050005705000857050008570500085705000810
:10006000132F0008092F0008FF2E0008570500086D
:1000700057050008570500085705000857050008F0
:1000800057050008570500085705000857050008E0
:10009000570500085705000857050008F52E000809
:1000A00057050008570500085705000857050008C0
:1000B000DB310008253C0008B9430008570500085B
:1000C00057050008570500085705000857050008A0
:1000D00057050008BF2B0008570500085705000802
:1000E0005705000857050008570500085705000880
:1000F0005705000857050008570500085705000870
:100100005705000857050008A332000857050008E6
:10011000570500085705000857050008570500084F
:10012000CD2E0008570500085705000857050008A0
:10013000570500085705000857050008570500082F
:10014000570500085705000857050008570500081F
:10015000570500085705000857050008570500080F
:1001600057050008570500085705000857050008FF
:1001700057050008570500085705000857050008EF
:10018000570500085705000800F002F800F06DF868
:100190000AA090E8000C82448344AAF10107DA45E2
:1001A00001D100F062F8AFF2090EBAE80F0013F0C7
:1001B000010F18BFFB1A43F001031847F452000067
:1001C000145300000A444FF0000C10F8013B13F0E8
:1001D000070408BF10F8014B1D1108BF10F8015BA0
:1001E000641E05D010F8016B641E01F8016BF9D193
:1001F00013F0080F1EBF10F8014BAD1C0C1B09D1EA
:100200006D1E58BF01F801CBFAD505E014F8016B5B
:1002100001F8016B6D1EF9D59142D6D370470000ED
:100220000023002400250026103A28BF78C1FBD8FF
:10023000520728BF30C148BF0B607047642904F0E3
:100240009F86752904F09C86782904F0D586632959
:1002500005F02980732905F02E80002070471FB516
:1002600005F093F81FBD10B510BD05F057F8114605
:10027000FFF7F5FF00F008F805F075F803B4FFF795
:10028000F2FF03BC02F038FC08B54FF4A06000F0A8
:1002900075F94FF4165002F03CFC542002F0AAFB12
:1002A0006821642003F04EFB02F096FE6821642072
:1002B00003F0FCFA02F0C8FC8C20114B114A00211B
:1002C0000090114802F0A0FD0E484C3800F0B3FA3F
:1002D00003F0F4FB00BF0D48C08940F6543188425A
:1002E000F9DB03F0EFFC42F2CF01632002F048FF9C
:1002F00042F2CF01632002F0A7FF00BFFEE700003B
:10030000C00100204C20014010640240A4010020E4
:10031000704700BFFEE700BFFEE700BFFEE700BF7B
:10032000FEE7704770477047704700000CB500202B
:10033000019000907648006840F48030744908606D
:1003400000BF7348006800F4003000900198401C22
:100350000190009818B90198B0F5A04FF1D16C4800
:10036000006800F4003010B10120009001E000208E
:1003700000900098012846D165484030006840F060
:1003800080506349403108606248006840F4404052
:10039000604908605E48083000685D4908310860BF
:1003A0000846006840F4004008600846006840F4D1
:1003B000A05008605848091F0860081F006840F0F6
:1003C0008070091F086000BF5148006800F000708D
:1003D0000028F9D040F20570504908604C480830B8
:1003E000006820F003004A490831086008460068A8
:1003F00040F00200086000BF45480830006800F087
:100400000C000828F8D10CBD10B54548006840F430
:100410007000434908603E48006840F001003C49D4
:10042000086000203A4908310860394800683D49B1
:100430000840374908603C48091D0860081F0068EB
:1004400020F48020091F0860002031490C31086029
:10045000FFF76CFF4FF0006031498039086010BD34
:1004600070B500200022022300240221284D083507
:100470002D6805F00C0020B1042806D0082834D1DE
:1004800007E02A4D2A4E356033E02A4D284E35606C
:100490002FE01F4D2D1D2D68C5F380541C4D2D1DC3
:1004A0002D6805F03F0154B1224DB5FBF1F5184E12
:1004B000361D3668C6F3881605FB06F209E01B4DAB
:1004C000B5FBF1F5124E361D3668C6F3881605FBEE
:1004D00006F20F4D2D1D2D68C5F301456D1C6B00F7
:1004E000B2FBF3F5124E356003E0104D104E35604F
:1004F00000BF00BF064D08352D68C5F303150E4E2D
:10050000705D0B4D2D68C540094E356070BD000013
:10051000003802400070004019544007003C02407F
:1005200088ED00E0FFFFF6FE103000240024F40008
:100530000000002040787D01040000200948804729
:1005400009480047FEE7FEE7FEE7FEE7FEE7FEE7B5
:10055000FEE7FEE7FEE7FEE704480549054A064BCD
:100560007047000009040008890100080004002009
:10057000000A002000060020000600203249014346
:10058000324A1160704770B5002100230F22C478F1
:100590001CB32E4C246804F4E064C4F5E064C4F396
:1005A0000721C1F10404E3B20A4144789C40E1B25E
:1005B0008478144021430C07210E254C05786155A1
:1005C000047804F01F050124AC4005786D11AD00DE
:1005D00005F1E025C5F8004109E0047804F01F05A5
:1005E0000124AC401B4D0678761145F8264070BDBD
:1005F000194A0A400243154B1B1F1A60704739B154
:10060000124A121D12680243104B1B1D1A6006E0AD
:100610000E4A121D126882430C4B1B1D1A60704754
:10062000042808D14FF0E021096941F004014FF09E
:10063000E022116107E04FF0E021096921F0040197
:100640004FF0E022116170470000FA050CED00E068
:1006500000E400E080E100E080FFFF1F10B5012111
:10066000080201F05CF800214FF4807001F057F8A7
:1006700010BD30B50246002000235068F84C2040E1
:100680000D790C6844EA0524204350609068F54CCD
:100690002040D1E903542C438D682C434D7944EA22
:1006A000450420439060D06A20F470000C7D641EE5
:1006B000E4B2234340EA0350D06230BD0021016020
:1006C000017141718160C160016101210175704753
:1006D0000021E54A1168E54A1140D0E900231A4398
:1006E00083681A43C3681A431143E14AC2F80413EA
:1006F00070470021016041608160C160704721B195
:10070000826842F00102826003E0826822F0010206
:10071000826070470A4600214168D64B1940114358
:10072000416070474162826270470A460021416819
:1007300021F01F0111434160704738B1CA4909686F
:1007400041F40001CA4AC2F8041306E0C649096828
:1007500021F40001C64AC2F80413704738B1C249F7
:10076000096841F48001C24AC2F8041306E0BE4998
:10077000096821F48001BE4AC2F804137047F0B53D
:1007800004460D4600200021092D11DDE068A5F189
:100790000A0606EB4607072606FA07F18843A5F185
:1007A0000A0606EB460603FA06F10843E0600CE091
:1007B000206905EB4507072606FA07F1884305EB94
:1007C000450603FA06F108432061072A0FDA606B39
:1007D000561E06EB86071F2606FA07F18843561EAB
:1007E00006EB860605FA06F10843606322E00D2A4F
:1007F0000FDA206BD61F06EB86071F2606FA07F1D5
:100800008843D61F06EB860605FA06F108432063E7
:1008100010E0E06AA2F10D0606EB86071F2606FA35
:1008200007F18843A2F10D0606EB860605FA06F1EC
:100830000843E062F0BD816841F08041816070470B
:10084000014600208A6802F080420AB1012000E0DF
:100850000020704721B1826842F48062826003E028
:10086000826822F480628260704721B1826842F01F
:100870000202826003E0826822F002028260704716
:1008800010B50A4600210023416821F46041531E3F
:1008900041EA4331416010BD21B1426842F4006237
:1008A000426003E0426822F4006242607047014601
:1008B000C86C80B270476C48001D0068704721B159
:1008C000826842F48072826003E0826822F480725F
:1008D0008260704721B1826842F40072826003E056
:1008E000826822F400728260704738B15E490968FC
:1008F00041F400515E4AC2F8041306E05A490968FF
:1009000021F400515A4AC2F804137047F0B5044666
:100910001546002000220026092911DDE068A1F11A
:100920000A0707EB470C072707FA0CF29043A1F1DF
:100930000A0707EB470703FA07F21043E0600CE0F1
:10094000206901EB410C072707FA0CF2904301EBF9
:10095000410703FA07F210432061A06BC0F3015670
:10096000EF1C06F1010CA7EB0C0707EB870C1F2708
:1009700007FA0CF29043EF1C06F1010CA7EB0C07F1
:1009800007EB870701FA07F21043A063F0BD10B52B
:100990000A4600210023816B21F44011531E41EAD5
:1009A0000351816310BD08B5002300930090009BA4
:1009B0000B440093009B1A6008BD0A460021816821
:1009C00021F470211143816070470A46002181683B
:1009D00021F44011114381607047816841F4800126
:1009E00081607047014600208A6802F480020AB1E3
:1009F000012000E00020704721B1426842F480628B
:100A0000426003E0426822F480624260704721B194
:100A1000426842F48052426003E0426822F480520D
:100A20004260704708B5024600200090009201F134
:100A30002800009B184400900098006880B208BD10
:100A400010B50B460021D9B2012404FA01F11AB104
:100A500044680C43446002E044688C43446010BD29
:100A6000FFFEFFFCFDF7FFC004230140E030FCFF68
:100A700000200140FFFD3FFF0246002013680B40AD
:100A80000BB1012000E000207047CA4302607047AC
:100A900070B502460020002300240B125568012681
:100AA0008E4005EA060415681D4015B10CB1012001
:100AB00000E0002070BD00220A12D343036070479B
:100AC000016821F001010160002101604160816045
:100AD000C160016121214161DB49884204D13D218E
:100AE000D94A103A91608CE0D7491831884205D133
:100AF0004FF47461D44A103A916082E0D2493031A7
:100B0000884205D14FF47411CF4A103A916078E0D1
:100B1000CD494831884205D14FF07461CA4A103A34
:100B200091606EE0C8496031884204D1C749C64A25
:100B3000103AD16065E0C4497831884204D1C44993
:100B4000C14A103AD1605CE0BF499031884204D17B
:100B5000C049BD4A103AD16053E0BB49A831884230
:100B600005D14FF03D51B84A103AD16049E0BA4939
:100B7000884204D13D21B84A083A116041E0B649A3
:100B80001831884205D14FF47461B34A083A1160B4
:100B900037E0B1493031884205D14FF47411AE4A83
:100BA000083A11602DE0AC494831884205D14FF038
:100BB0007461A94A083A116023E0A749603188426C
:100BC00004D1A249A44A121F11601AE0A249783147
:100BD000884204D19E49A04A121F116011E09E492B
:100BE0009031884204D19B499B4A121F116008E052
:100BF0009949A831884204D14FF03D51964A121FBD
:100C00001160704710B500220268944B1A40CC68FE
:100C10000B6823434C6923438C692343CC692343EA
:100C20000C6A23434C6A23438C6A23434C6B234353
:100C30008C6B23431A430260426922F00702D1E918
:100C40000B3423431A4342610B6943604B68836052
:100C50008B68C36010BD0021016041608160C1608C
:100C6000016141618161C161016241628162C16270
:100C7000016341638163704721B1026842F0010260
:100C8000026003E0026822F001020260704721B1B5
:100C9000026842F40042026003E0026822F400426B
:100CA0000260704721B1026842F02002026003E056
:100CB000026822F0200202607047416070470146DE
:100CC000486880B2704722B1036843F40023036090
:100CD00003E0036823F4002303600161704721B13E
:100CE000026842F48022026003E0026822F480225B
:100CF000026070470AB1016100E0C16070470146BF
:100D000000200A6802F400220AB1012000E000205D
:100D10007047014600200A6802F001020AB1012072
:100D200000E000207047014600204A6902F03800C8
:100D3000704730B503460A4600200024464DAB42BA
:100D400002D24149103901E04349103902F00055FF
:100D50000DB14C6800E00C68414D2C4004EA0205DE
:100D60000DB1012000E0002030BD02463A4B9A420E
:100D700002D23548103801E03748103801F00053EE
:100D80001BB1374B0B40C36002E0354B0B40836017
:100D9000704710B501F080034BB122B1436943F0B5
:100DA0008003436103E0436923F0800343618029AA
:100DB0000BD02AB1036801F01E042343036004E052
:100DC000036801F01E04A343036010BD70B5024622
:100DD000002000240025204EB24202D21A4B103BC4
:100DE00001E01D4B103B1F4E0E4036B11E2606EA99
:100DF000D124166806EA040502E0566906F080056B
:100E000001F000560EB15C6800E01C68144E3440DE
:100E100004EA010616B10DB1012000E0002070BD0A
:100E200002460D4B9A4202D20748103801E00A48A8
:100E3000103801F000531BB1094B0B40C36002E0B6
:100E4000074B0B4083607047106002403D0000205C
:100E5000400F002000003D20106402403F801CF045
:100E60007D0F7D0F3C0F3C0F002041490860091D9C
:100E70000860091D0860091D08603E483C4914319E
:100E80000860704700213A498279002A3AD00A4620
:100E9000126803689A430B461A600A1D12680368B9
:100EA0009A430B1D1A60027911440A6803681A43B9
:100EB0000A602F4A0832126803689A432C4B0833A1
:100EC0001A601A1D126803689A43294B0C331A6082
:100ED0004279102A0ED11A1F126803681A43244B54
:100EE00008331A601A1D126803681A43204B0C332A
:100EF0001A600DE01E49427911440A6803681A43DA
:100F00000A6005E0027911440A6803689A430A609E
:100F100070470021016001710C2141710021817134
:100F200070471349103109680143114A10321160AA
:100F30007047014600200E4A143212680A400AB176
:100F4000012000E000207047094914310860704713
:100F500001460020064A143212680A400AB10120F4
:100F600000E000207047024914310860704700001B
:100F7000003C0140FFFF7F0010B5044698488442C2
:100F800008D10121084600F086FB0021012000F075
:100F900082FB76E09348844208D10121022000F0D0
:100FA0007AFB0021022000F076FB6AE08E48844242
:100FB00008D10121042000F06EFB0021042000F084
:100FC0006AFB5EE08948844208D10121082000F0D4
:100FD00062FB0021082000F05EFB52E0844884425E
:100FE00008D10121102000F056FB0021102000F054
:100FF00052FB46E07F48844208D10121202000F0C6
:101000004AFB0021202000F046FB3AE07A48844267
:1010100008D10121402000F03EFB0021402000F0DB
:101020003AFB2EE07548844208D10121802000F06F
:1010300032FB0021802000F02EFB22E07048844229
:1010400008D10121801500F026FB0021A01500F039
:1010500022FB16E06B48844208D10121401500F0C4
:101060001AFB0021601500F016FB0AE06648844276
:1010700007D10121001500F00EFB0021201500F022
:101080000AFB10BDF0B50A4600210023002400BF72
:101090003DE0012505FA01F3156805EA03049C42C9
:1010A00034D105684F000326BE40B543056015796D
:1010B0004E00B5400668354305601579012D02D014
:1010C0001579022D16D185684F000326BE40B54321
:1010D000856055794E00B540866835438560456822
:1010E00001268E40B5434560456896798E40B6B27C
:1010F00035434560C5684F000326BE40B543C56013
:10110000D5794E00B540C6683543C560491C1029E5
:10111000BFD3F0BD4FF6FF71016000210171417135
:101120008171C171704708B54FF480320092009A06
:101130000A430092009AC261C161009AC261C26909
:101140000092C269009208BD0246002013690B405C
:101150000BB1012000E0002070470146086980B211
:1011600070470246002053690B400BB1012000E09C
:10117000002070470146486980B27047018370477C
:10118000418370470AB1018300E0418370474161A8
:10119000704742694A4042617047F0B5002300241D
:1011A0004D07ED0E02FA05F3CE1000F1200555F8BB
:1011B00026504E07F70E0F26BE40B543CF1000F164
:1011C000200646F82750CE1000F1200555F826508D
:1011D00045EA0304CE1000F1200545F82640F0BD95
:1011E000000002400004024000080240000C0240DF
:1011F000001002400014024000180240001C02408F
:10120000002002400024024000280240F948006803
:1012100040F00100F74908600020F64908310860F5
:10122000F4480068F4490840F2490860F348091D91
:101230000860F348EF4984310860F0481038091D10
:101240000860EC48006820F48020EA49086000202B
:10125000E8490C310860E7498C310860704700218B
:10126000E44A921C117011460870704710B501468F
:101270000022002300204A11012A02D1DD4C2368FC
:1012800008E0022A03D1DB4C7034236802E0D94C19
:101290007434236801F01F02012494401C400CB1F7
:1012A000012000E0002010BD38B50020009000248F
:1012B000002500BF3120FFF7D9FF05460098401CEC
:1012C00000900098B0F5A04F01D0002DF2D0312051
:1012D000FFF7CCFF08B1012400E00024204638BD10
:1012E00001460020C34A106820F0F80040EAC1001F
:1012F00010607047C349086070470021BD4A7032D2
:1013000011701170012802D004280AD104E00121D3
:10131000B84A7032117005E00521B64A703211707A
:1013200000E000BF00BF7047B7490860704770B564
:10133000049C41EA82150126C6EB530645EA0645A0
:10134000054345EA0465AB4E361D356070BDAD49B9
:1013500008667047820142EA0172A64B84331A6024
:101360007047A8498866704710B5830143EA016356
:1013700043EA02739F4C8834236010BDA14908677B
:101380007047A049C864704702460020994B083353
:10139000186820F0EC6042EA01031843954B0833CB
:1013A0001860704702460020924B0833186820F0FE
:1013B000784042EA010318438E4B083318607047A7
:1013C000014600208B4A0832106820F003000843D1
:1013D0001060704787480830006800F00C007047C4
:1013E00001460020834A0832106820F0F0000843CC
:1013F00010607047014600207E4A0832106820F4D1
:10140000E05008431060704701460020794A0832D6
:10141000106820F4604040EAC10010607047F0B5E9
:10142000002100220024022500260223714F0837E4
:101430003F6807F00C0121B1042905D0082937D1F4
:1014400005E0724F076036E0714F076033E0694F87
:101450003F1D3F68C7F38056664F3F1D3F6807F04A
:101460003F036EB16A4FB7FBF3F7DFF888C10CF1A9
:10147000040CDCF800C0CCF3881C07FB0CF40CE077
:10148000624FB7FBF3F7DFF86CC10CF1040CDCF82A
:1014900000C0CCF3881C07FB0CF4564F3F1D3F687F
:1014A000C7F301477F1C7D00B4FBF5F7076002E03E
:1014B000564F076000BF00BF4E4F08373F6807F028
:1014C000F0010909534F7A5C0768D7404760494FDC
:1014D00008373F6807F4E051890A4E4F7A5C476845
:1014E000D7408760434F08373F6807F46041490B96
:1014F000484F7A5C4768D740C760F0BD002100F4D0
:101500004072B2F5407F0AD13A4A0832116821F49C
:10151000F811414A02401143364A08321160354AF7
:1015200070321268C0F30B031A43324B70331A60E7
:10153000704735494439086070473349403908607D
:10154000704736490860704701460020294A8C32AE
:10155000106820F01F004A1E1043264A8C3210608B
:10156000704701460020234A8C32106820F4F8505E
:101570004A1E40EA02201F4A8C3210607047014622
:1015800000201C4A8C32106820F440100843106080
:10159000704701460020174A8C32106820F4400042
:1015A00008431060704701460020124A8C321068D0
:1015B00020F44030084310607047194908607047B4
:1015C00039B10C4A3032126802430A4B30331A6088
:1015D00006E0084A303212688243064B30331A6004
:1015E0007047F9B1034A343212680243014B343375
:1015F0001A601CE000380240FFFFF6EA10300024B9
:101600000030002000004742800E47420024F400D2
:1016100040787D0114000020FFFCFF0F5C01474271
:10162000E01147428F4A126882438E4B1A6070471E
:1016300039B18C4A121D126802438A4B1B1D1A6075
:1016400006E0884A121D12688243864B1B1D1A60F1
:10165000704739B1834A0C3212680243814B0C3314
:101660001A6006E07F4A0C32126882437D4B0C33CD
:101670001A60704739B17B4A103212680243794BC5
:1016800010331A6006E0774A103212688243754BB5
:1016900010331A60704739B1724A243A1268024313
:1016A000704B243B1A6006E06E4A243A126882436B
:1016B0006C4B243B1A60704739B16A4A203A126871
:1016C0000243684B203B1A6006E0664A203A1268E3
:1016D0008243644B203B1A60704739B1614A1C3A1F
:1016E000126802435F4B1C3B1A6006E05D4A1C3ADD
:1016F000126882435B4B1C3B1A60704739B1594AF0
:10170000143A12680243574B143B1A6006E0554ADC
:10171000143A12688243534B143B1A60704739B134
:10172000504A103A126802434E4B103B1A6006E0D2
:101730004C4A103A126882434A4B103B1A60704779
:1017400039B1484A1C3212680243464B1C331A60B6
:1017500006E0444A1C3212688243424B1C331A6032
:10176000704739B13F4A2032126802433D4B203363
:101770001A6006E03B4A203212688243394B20331C
:101780001A60704739B1374A243212680243354B28
:1017900024331A6006E0334A243212688243314B04
:1017A00024331A60704739B12E4A2C321268024332
:1017B0002C4B2C331A6006E02A4A2C3212688243E2
:1017C000284B2C331A60704739B1264A30321268E0
:1017D0000243244B30331A6006E0224A303212684A
:1017E0008243204B30331A607047012808D11D49CD
:1017F0003C31096841F008011A4A3C32116007E0A7
:1018000018493C31096821F00801164A3C32116040
:10181000704739B1134A273A12780243114B273BDC
:101820001A7006E00F4A273A127882430D4B273B85
:101830001A7070470B484030006840F080700949CA
:1018400040310860704701460020064A283A126875
:101850000A400AB1012000E0002070470149263902
:10186000087070473438024010B501218803FFF733
:1018700056FF00214FF48040FFF751FF10BD1C4977
:10188000086070471B490862704730B500228B071B
:101890001C0F0F2303FA04F2154B08338C1053F876
:1018A00024309343124C08348D1044F825302346DD
:1018B0008C1053F824308C07240F00FA04F42343CF
:1018C0000B4C08348D1044F8253030BD0949DC310B
:1018D00008607047084908607047002004492031BB
:1018E000096801F4807109B1012000E0002070470F
:1018F00000380140000027420004274210B504468A
:10190000FE48844208D101210846FFF708FF002164
:101910000120FFF704FF9DE0B4F1804F08D10121C1
:101920000846FFF7EBFE00210120FFF7E7FE91E0FC
:10193000F348844208D101210220FFF7DFFE002195
:101940000220FFF7DBFE85E0EE48844208D101214A
:101950000420FFF7D3FE00210420FFF7CFFE79E03B
:10196000E948844208D101210820FFF7C7FE002181
:101970000820FFF7C3FE6DE0E448844208D101214E
:101980001020FFF7BBFE00211020FFF7B7FE61E03B
:10199000DF48844208D101212020FFF7AFFE00215B
:1019A0002020FFF7ABFE55E0DA48844208D1012140
:1019B0000220FFF7B4FE00210220FFF7B0FE49E04D
:1019C000D548844209D101210804FFF7A8FE00216F
:1019D0004FF48030FFF7A3FE3CE0D048844209D1A9
:1019E00001214804FFF79BFE00214FF40030FFF770
:1019F00096FE2FE0CA48844209D101218804FFF7EE
:101A00008EFE00214FF48020FFF789FE22E0C548BA
:101A1000844208D101214020FFF770FE00214020C0
:101A2000FFF76CFE16E0C048844208D101218020F7
:101A3000FFF764FE00218020FFF760FE0AE0BB484C
:101A4000844207D101218015FFF758FE0021A0151F
:101A5000FFF754FE10BD00220288A84B98420ED01A
:101A6000AC4B98420BD0B0F1804F08D0A44B9842B9
:101A700005D0A44B984202D0A34B984204D14FF614
:101A80008F731A404B881A43A04B984207D0A04B43
:101A9000984204D04FF6FF431A400B891A43028044
:101AA0004B68C3620B880385944B984202D0994BD4
:101AB000984201D18B7A03860123838270474FF0CD
:101AC000FF314160002101800181418081727047B6
:101AD0000185828270470A46002101884FF68F7384
:101AE000194011430180704741627047C1627047DD
:101AF0000146486A70470146088D704721B1028847
:101B000042F00202028004E002884FF6FD731A40A0
:101B10000280704721B1028842F00402028004E092
:101B200002884FF6FB731A400280704721B1028889
:101B300042F08002028004E002884FF67F731A4070
:101B40000280704702884FF6F7731A4002800288BD
:101B50000A430280704702884FF6FF431A40028012
:101B600002880A430280704721B1028842F00102D4
:101B7000028004E002884FF6FE731A40028070472C
:101B800070B5002400220023058C4FF6FE76354008
:101B90000584028C8388048B4FF68F752C40B51E0C
:101BA0002C400D882C43751E2A408D892A434D8870
:101BB0002A43524DA84202D0564DA84213D14FF6A7
:101BC000F7752A40CD892A434FF6FB752A408D8848
:101BD0002A434FF6FF652B404FF6FF552B400D8AE9
:101BE0002B434D8A2B43838004838D684563028495
:101BF00070BD70B5002400220023058C4FF6EF76EF
:101C000035400584028C8388048B48F6FF752C4090
:101C10004FF6FF452C400D884FF6FF7606EA052566
:101C20002C434FF6DF752A408D8906EA05152A43B5
:101C30004D8806EA05152A43304DA84202D0354D9D
:101C4000A8421DD14FF67F752A40CD894FF6FF7609
:101C500006EA05152A434FF6BF752A408D8806EA25
:101C600005152A434FF6FF352B404FF2FF752B40E9
:101C70000D8A06EA85052B434D8A06EA85052B4326
:101C8000838004838D688563028470BD70B50024F1
:101C900000220023058C4FF6FF6635400584028C38
:101CA0008388848B4FF68F752C404FF6FC752C4043
:101CB0000D882C434FF6FF552A408D894FF6FF764D
:101CC00006EA05252A434D8806EA05252A430B4DD9
:101CD000A84202D00F4DA84238D14FF2FF752A40DA
:101CE000CD894FF6FF7606EA05252A434FF6FF35E4
:101CF0002A408D8806EA05252A4319E000000140A4
:101D00000004004000080040000C004000100040AB
:101D10000014004000040140004001400044014024
:101D20000048014000180040001C00400020004016
:101D30004EF6FF752B404DF6FF752B400D8A06EAD7
:101D400005152B434D8A06EA05152B4383808483B2
:101D50008D68C563028470BD70B500220023002425
:101D6000058C4EF6FF7635400584038C8488828B83
:101D700048F6FF752A404FF6FF452A400D884FF67A
:101D8000FF7606EA05252A434DF6FF752B408D891F
:101D900006EA05352B434D8806EA05352B43FE4DF3
:101DA000A84202D0FD4DA84208D14BF6FF752C4049
:101DB0000D8A4FF6FF7606EA85152C4384808283D0
:101DC0008D680564038470BD00210180418081809D
:101DD00081608181C18101824182704770B5034673
:101DE000002000241846183001258D40ACB21D8C0F
:101DF000A5431D8409B108290AD100EB61000568DB
:101E00004FF68F76354005600568154305600FE095
:101E10000D1FC5F34E052844056848F6FF7635408A
:101E2000056005684FF6FF7606EA02263543056031
:101E300070BD4163704781637047C163704701643F
:101E400070470A460021018B4FF68F7319401143EA
:101E5000018370470A460021018B48F6FF73194041
:101E60004FF6FF7303EA02231943018370470A46C2
:101E70000021818B4FF68F73194011438183704786
:101E80000A460021818B48F6FF7319404FF6FF7315
:101E900003EA02231943818370470A460021018B1C
:101EA0004FF6F77319401143018370470A4600212A
:101EB000018B4FF2FF7319404FF6FF7303EA0223C1
:101EC0001943018370470A460021818B4FF6F7734F
:101ED00019401143818370470A460021818B4FF2DC
:101EE000FF7319404FF6FF7303EA022319438183FE
:101EF00070470A460021018B4FF6FB7319401143CE
:101F0000018370470A460021018B4FF6FF331940C9
:101F10004FF6FF7303EA02231943018370470A4611
:101F20000021818B4FF6FB73194011438183704769
:101F30000A460021818B4FF6FF3319404FF6FF739D
:101F400003EA02231943818370470A460021018B6B
:101F50004FF67F7319401143018370470A460021F1
:101F6000018BC1F30E014FF6FF7303EA02231943FD
:101F7000018370470A460021818B4FF67F73194019
:101F80001143818370470A460021818BC1F30E0102
:101F90004FF6FF7303EA02231943818370470A4611
:101FA0000021018C4FF6FD731940114301847047E5
:101FB0000A460021018C4FF6F77319401143018442
:101FC00070470A460021018C4FF6DF7319404FF627
:101FD000FF7303EA02131943018470470A46002184
:101FE000018C4FF67F7319404FF6FF7303EA02131B
:101FF0001943018470470A460021018C4FF6FF53B4
:1020000019404FF6FF7303EA022319430184704716
:102010000A460021018C4FF2FF7319404FF6FF73FF
:1020200003EA02231943018470470A460021018C08
:102030004DF6FF7319404FF6FF7303EA023319435D
:102040000184704730B5002301248C40A3B2048C76
:102050009C430484048C02FA01F5ADB22C43048441
:1020600030BD30B5002304248C40A3B2048C9C43C3
:102070000484048C02FA01F5ADB22C43048430BD13
:10208000828B4FF2FF331A408283828B4FF6FF73AD
:1020900003EA01231A4382837047F0B50C461546C4
:1020A000002100220026078C4EF6FF7C07EA0C0771
:1020B0000784818B028C4FF6FF7707EA043640F6DF
:1020C000FF4739404FF6FF7707EA052739434FF6B8
:1020D000FF7707EA0337394345F6FF773A4046F47E
:1020E00080573A4381830284F0BD828B4FF6F373AD
:1020F0001A408283828B0A4382837047F0B50C4674
:102100001546002100220026078C4FF6FF6C07EAD7
:102110000C070784818B028C4FF6FF7707EA0426B1
:102120004FF60C7739404FF6FF7707EA03172F4336
:1021300039434FF2FF573A4046F480773A43818360
:102140000284F0BD028B4FF2FF331A400283028BF0
:102150004FF6FF7303EA01231A4302837047F0B579
:102160000C461546002100220026078C4FF6EF7C16
:1021700007EA0C070784018B028C4FF6FF7707EA0A
:10218000041640F6FF4739404FF6FF7707EA03375A
:1021900039434FF6FF7703E000000140000401409F
:1021A00007EA052739434FF65F773A4046F01007B4
:1021B0003A4301830284F0BD028B4FF6F3731A4059
:1021C0000283028B0A4302837047F0B50C46154622
:1021D00000210022068C4FF6FE773E400684018BDC
:1021E000028C4FF60C7631407E1C06EA03162E4315
:1021F00031434FF6F576324044F001063243018315
:102200000284F0BD70B505460C46208850B923897C
:10221000A28861882846FFF7D8FFE1882846FFF7A3
:10222000CBFF25E0208804280AD12389A288618871
:102230002846FFF794FFE1882846FFF783FF17E061
:10224000208808280AD12389A28861882846FFF7B8
:1022500055FFE1882846FFF748FF09E02389A28857
:1022600061882846FFF719FFE1882846FFF708FF35
:1022700070BD002101804180012181800021C18049
:10228000018170472DE9F04105460C4600260127E3
:10229000608808B9022600E00026A088012801D144
:1022A000022700E001272088A0B92389A28861883D
:1022B0002846FFF78AFFE1882846FFF77DFF23893C
:1022C0003A4631462846FFF74AFFE1882846FFF79D
:1022D00039FF13E02389A28861882846FFF73FFF72
:1022E000E1882846FFF72EFF23893A4631462846E3
:1022F000FFF76BFFE1882846FFF75EFFBDE8F0813E
:102300000146486B70470146886B70470146C86BB1
:1023100070470146086C70470A884B881A438B88BF
:102320001A43CB881A430B891A434B891A438B896A
:102330001A43A0F844207047002101804180818029
:10234000C180018141818181704731B1B0F8442061
:1023500042F40042A0F8442005E0B0F84420C2F363
:102360000E02A0F84420704721B1828842F0040296
:10237000828004E082884FF6FB731A4082807047A7
:1023800021B1828842F00102828004E082884FF607
:10239000FE731A40828070471AB183890B43838190
:1023A00002E083898B4383817047818270470246B4
:1023B0000020138A0B400BB1012000E00020704781
:1023C000CA430282704730B5024600200023002431
:1023D000158A05EA0103958905EA010413B10CB1D8
:1023E000012000E0002030BDCA430282704741EA6C
:1023F0000203A0F8483070471AB183890B438381E8
:1024000002E083898B438381704721B1828842F047
:102410000802828004E082884FF6F7731A408280B7
:10242000704701894FF6F8721140018170470A46E2
:10243000002101894FF68F731940114301817047C4
:1024400030B504460D4629462046FFF7F0FF2089A7
:1024500040F00700208130BD2DE9F04104460D46D3
:1024600016461F46602D06D13B46012231462046C6
:10247000FFF775FE05E03B46012231462046FFF797
:10248000A4FE29462046FFF7D2FF208940F007002E
:102490002081BDE8F08130B50C4600210189C9B228
:1024A0004FF6FF7505EA03251543254329430181AE
:1024B00030BD2DE9F04105460E46174698460024EA
:1024C00043463A4631462846FFF7E5FF2C894FF64A
:1024D000F870044044F007044FF68F70044044F055
:1024E00070042C81BDE8F081F0B504460D46164617
:1024F0001F463B46324629462046FFF7CCFF20893F
:1025000040F480402081F0BD82884FF68F731A40DE
:10251000828082880A438280704702894FF6F8736E
:102520001A40028102890A430281704702894FF6EC
:102530007F731A40028102890A4302817047F0B515
:102540000C4615461E460021002200230189028BFD
:10255000038C4FF6F877394021434FF6FC473A4059
:1025600040F201173A434FF6DD773B404FF6FF77D5
:1025700007EA06172F433B43018102830384F0BD22
:1025800021B1828842F08002828004E082884FF686
:102590007F731A4082807047A0F850107047000087
:1025A00010B50446FA48844208D101211020FFF7F3
:1025B000B6F800211020FFF7B2F857E0F548844242
:1025C00009D101214804FFF799F800214FF40030A8
:1025D000FFF794F84AE0F048844209D101218804C9
:1025E000FFF78CF800214FF48020FFF787F83DE0DB
:1025F000EA48844209D10121C804FFF77FF800218D
:102600004FF40020FFF77AF830E0E548844209D122
:1026100001210805FFF772F800214FF48010FFF741
:102620006DF823E0DF48844208D101212020FFF724
:1026300076F800212020FFF772F817E0DA4884428C
:1026400009D101218807FFF759F800214FF0804098
:10265000FFF754F80AE0D548844207D1012140052C
:10266000FFF74CF800216005FFF748F810BD2DE991
:10267000FF4705460E460024A14600BFA046B0898C
:1026800000B100BF2C8A24F44054F08804432C820B
:10269000AC8941F20C608443B08831890843718968
:1026A00008430443AC81AC8A24F44074B0890443E9
:1026B000AC826846FEF7B3FEB548854202D0B94801
:1026C000854202D1DDF80C9001E0DDF80890A88980
:1026D00000F4004040B109EBC90000EB091031687B
:1026E0004900B0FBF1F707E009EBC90000EB091066
:1026F00031688900B0FBF1F76420B7FBF0F004010A
:102700002009642101FB1078A88900F4004040B141
:10271000322000EBC800B0FBF1F000F007000443EA
:1027200008E0322000EB08106421B0FBF1F000F06B
:102730000F0004432C81BDE8FF874FF41651016060
:1027400000218180C18001810C2141810021818192
:10275000704710B502460020108A20F470600B8884
:102760004C8823438C882343CC882343184310820E
:1027700010BD0021018041808180C180704721B15E
:10278000828942F40052828104E082894DF6FF730F
:102790001A4082817047028B02F47F420283028BCF
:1027A0000A430283704721B1828942F40042828148
:1027B00003E08289C2F30E028281704721B1828ACE
:1027C00042F40062828204E0828A4FF2FF731A4070
:1027D00082827047C1F30802828070470146888870
:1027E000C0F308007047028A4FF6F0731A40028265
:1027F000028A0A430282704721B1828942F00202B2
:10280000828104E082894FF6FD731A40828170470D
:1028100082894FF2FF731A40828182890A43828142
:102820007047028A4FF6DF731A400282028A0A4317
:102830000282704721B1028A42F48042028204E09F
:10284000028A4BF6FF731A4002827047818941F079
:1028500001018181704721B1828A42F0080282829F
:1028600004E0828A4FF6F7731A4082827047028B27
:10287000D2B20283028B42EA01220283704721B165
:10288000828A42F02002828204E0828A4FF6DF735D
:102890001A408282704721B1828A42F010028282FD
:1028A00004E0828A4FF6EF731A4082827047828A70
:1028B0004FF6FB731A408282828A0A4382827047F3
:1028C00021B1828A42F00202828204E0828A4FF6BB
:1028D000FD731A40828270471AB1838A0B43838248
:1028E00002E0838A8B4383827047F0B5034600245D
:1028F00000260025002040F66A17B94200D100BF2B
:102900001846C1F3421401F01F06012707FA06F525
:10291000012C01D10C3004E0022C01D1103000E078
:1029200014301AB107682F43076002E00768AF430D
:102930000760F0BD02460020B1F5007F00D100BF66
:1029400013880B400BB1012000E00020704701F418
:102950000072B2F5007F00D100BFCA430280704709
:1029600070B50246002400230025002040F66A16B8
:10297000B14200D100BFC1F3421501F01F0301268F
:1029800006FA03F3012D13D19689334017E00000B6
:10299000001001400044004000480040004C00404E
:1029A000005000400014014000780040007C0040CE
:1029B000022D02D1168A334001E0968A33400C1270
:1029C000012606FA04F41688344013B10CB1012034
:1029D00000E0002070BD10B50022002340F66A140C
:1029E000A14200D100BF0A1201249440A3B2DC43EB
:1029F000048010BD10B504466FF00400FDF710FE12
:102A0000E11704EB5171C1F3C701394A1170104647
:102A1000007800EB4001C1EBC0104FF6FF7101EAF6
:102A2000C0003449088010BD0146314A12784A433B
:102A30004FF0E0235A6100229A611A46126942F06F
:102A400001021A6100BF4FF0E022106900F001029C
:102A50001AB100F48032002AF5D04FF0E02212695A
:102A600022F001024FF0E0231A6100229A617047C0
:102A70000146204A12884A434FF0E0235A6100225F
:102A80009A611A46126942F001021A6100BF4FF0C2
:102A9000E022106900F001021AB100F48032002A2D
:102AA000F5D04FF0E022126922F001024FF0E0234E
:102AB0001A6100229A61704770B504464FF407709E
:102AC00094FBF0F0C6B24FF4077094FBF0F100FBFA
:102AD000114085B205E04FF40770FFF7C9FF701E83
:102AE000C6B2002EF7D115B12846FFF7C1FF70BD61
:102AF000240000202600002000BF704700BF4E4A7F
:102B0000128802F04002002AF9D0C2B24A4B9A80E1
:102B1000704710B588B0044601210846FEF750FD05
:102B200001211020FEF7A6FD072209214348FEF7E8
:102B300034FB07220A214148FEF72FFB4FF4C06007
:102B4000069002208DF81C008DF81D0000208DF8E5
:102B50001E0001208DF81F0006A93848FEF792FAE2
:102B600002940020ADF80C00ADF80E00ADF8100096
:102B7000ADF814000C20ADF8120002A92E48FFF7A2
:102B800076FD01212C48FFF7FAFD40212A48FFF786
:102B9000DEFE012240F225512748FFF7A6FE252040
:102BA0008DF8040003208DF805008DF80600012043
:102BB0008DF8070001A8FDF7E6FC08B010BD10B5C0
:102BC00040F225511C48FFF7CBFE10B31A48FFF71F
:102BD00005FEC4B21A48008800F40040C8B918487D
:102BE000008800F4804060B10A2C03D00020144912
:102BF000088020E01248008840F400401049088016
:102C000019E00D2C06D10E48008840F480400C4994
:102C1000088010E00A480088C0F30D0009490C54F0
:102C200007480088401C0649088008460088C728D5
:102C300001DD0020088010BD0010014000000240AE
:102C40002C000020D802002000B58DB00121072003
:102C5000FEF7B6FC01210802FEF70CFDFF200B90E9
:102C600003208DF8300000208DF833000BA9624856
:102C7000FEF708FA03200B900BA96048FEF702FA52
:102C80003F200B900BA95E48FEF7FCF901210802DA
:102C9000FEF745FD00214FF48070FEF740FD002057
:102CA00007904FF4A0600A904FF480400990800094
:102CB000089007A8FDF70CFD0020019001208DF879
:102CC00008008DF809000020039005900E208DF873
:102CD000180001A94B48FDF7CCFC062301220C216A
:102CE0004848FDF74CFD062302220E214548FDF71A
:102CF00046FD0623032208214248FDF740FD062336
:102D0000042205213F48FDF73AFD0623052209214B
:102D10003C48FDF734FD06231A460B213948FDF7E0
:102D20002EFD0623072202213648FDF728FD062343
:102D300008220D213348FDF722FD06230922042134
:102D40003048FDF71CFD06230A220F212D48FDF710
:102D500016FD06230B2200212A48FDF710FD06234D
:102D60000C2201212748FDF70AFD06230D2203212D
:102D70002448FDF704FD06230E220A212148FDF711
:102D8000FEFC01211F48FDF7A5FD01211D48FDF7AF
:102D900096FD01211B48FDF7B2FC0DB000BD10B53A
:102DA000044601231A4621461648FDF7E8FC15485B
:102DB000FDF741FD00BF02211248FDF75DFE00282E
:102DC000F9D01048FDF773FD10BD2DE9F04107461D
:102DD0000C460025002608E03846FFF7E0FF0544D2
:102DE0000520FFF769FE701CC6B2A642F4DBB5FBF6
:102DF000F4F080B2BDE8F08100000240000402401F
:102E000000080240002001402DE9F04190B0044646
:102E10000D4616461F46DDF858803448844204D9D2
:102E200001218805FEF7CCFB03E001214805FEF7F0
:102E3000C7FB2046FDF744FE00BF2046FDF769FFB3
:102E40000028FAD10195029603970490CDF81480DA
:102E500006904FF480600790400008908000099031
:102E600040110A9000020B9000200C9003200D905E
:102E700000200E900F9001A92046FDF7C3FE1021FF
:102E80001A481030FDF771FF012210211748103049
:102E9000FDF77FFF38208DF8000001208DF801003C
:102EA0008DF802008DF803006846FDF76CFB00BF4B
:102EB0000E481030FDF72DFF0028F9D101210B48F5
:102EC0001030FDF7D9FE10B0BDE8F08110B508490B
:102ED00006481030FDF72DFF012806D100F008FE4E
:102EE000034902481030FDF740FF10BD0064024066
:102EF0002080001010B52020FEF735F810BD10B569
:102F00001020FEF730F810BD10B50820FEF72BF8A2
:102F100010BD10B50420FEF726F810BD0EB5012136
:102F20008803FEF7A7FB02210320FEF7AEFC032176
:102F30000846FEF7AAFC04210320FEF7A6FC0521A3
:102F40000320FEF7A2FC3C20009000208DF8040036
:102F500008208DF8050001208DF806006846FDF771
:102F600091FF08208DF8080001208DF8090000204D
:102F70008DF80A0001208DF80B0002A8FDF703FB75
:102F800009208DF8080001208DF809008DF80A004D
:102F90008DF80B0002A8FDF7F6FA0A208DF808005C
:102FA00001208DF8090002208DF80A0001208DF81B
:102FB0000B0002A8FDF7E7FA17208DF808000120A2
:102FC0008DF8090003208DF80A0001208DF80B0010
:102FD00002A8FDF7D8FA0EBD1CB501210520FEF7A9
:102FE000EFFA4FF4F040009001208DF8040000202B
:102FF0008DF8060003208DF8050002208DF80700EB
:1030000069465648FEF73EF84FF4FC40009069468A
:103010005348FEF737F81CBD70B504460D46002C2A
:1030200017DD00204F49086001204F49C1F8B00268
:1030300000204C490831086001204B49C1F8B80212
:1030400021464A48FEF7F5FE21464948FEF7F1FEC3
:1030500016E001204349086000204349C1F8B0024E
:10306000012040490831086000203F49C1F8B802FA
:1030700061423E48FEF7DDFE61423D48FEF7D9FE63
:10308000002D17DD01203B49086000203A49C1F8B6
:10309000B002012037490831086000203649C1F8E4
:1030A000B80229463148FEF7C8FE29462F48FEF7E8
:1030B000C6FE16E000202F49086001202E49C1F805
:1030C000B00200202B490831086001202A49C1F8CC
:1030D000B80269422548FEF7B0FE69422348FEF770
:1030E000AEFE70BDA0B100211E4A11601E4AC2F89A
:1030F000B0121C4A08321160121D11601D4A116085
:10310000121D1160121D11601B4AC2F8B81206E0B0
:103110000021184A083A1160174AC2F8A8127047ED
:1031200010B50446012013490839086000201249EF
:10313000C1F8A80221461148FEF77BFE10BD10B56C
:103140000120FFF7CFFF0520FFF7B6FC10BD0146B9
:10315000002901DA484270470846FCE700000240B7
:1031600000080240AC02404200004042000800401B
:1031700000040040AC0241420000414200180040FF
:103180007FB505460C4601210846FEF762FA029516
:10319000A0B2ADF804000020ADF80600ADF80C00B8
:1031A00001A94FF08040FEF756FC0122114690071E
:1031B000FFF7F2F81C208DF8000002208DF80100C6
:1031C00001208DF802008DF803006846FDF7DBF959
:1031D00001218807FEF7C8FC7FBD10B50024F84820
:1031E000C08A40F67461884226DA0F20F5490870DB
:1031F000F348C08A40F62821884203DBF048008B60
:10320000884215DAEE48018BC08A00F5967081423B
:1032100003DD0120EC49087011E0E948C18A008B08
:1032200000F5967081420ADD0220E749087006E049
:103230000020E549087002E01E20E24908700121E3
:103240008807FFF7D1F810BD7FB505460C46012170
:103250000820FEF7FEF90295A0B2ADF804000020A8
:10326000ADF80600ADF80C0001A9D848FEF7F3FB55
:1032700001221146D548FFF78FF832208DF8000063
:1032800002208DF8010003208DF8020001208DF846
:1032900003006846FDF777F90121CC48FEF764FC8E
:1032A0007FBD10B5CA480068002805DDC848006821
:1032B000401EC7490860F4E2C648006800280ADDDD
:1032C000C4480068401EC3490860C34801680068DC
:1032D000FFF7A2FEE5E2C148006800280CDDBF4808
:1032E0000068401EBD490860BD4800684142BC48B6
:1032F0000068FFF791FED4E2BA480078002871D048
:10330000B9480078072822D2DFE800F004E0FBEF9C
:103310009322F100AA48408BB0F5FA6F05DA6FF0FE
:1033200027012820FFF778FE11E06FF01D01084605
:10333000FFF772FE4FF49670A54908601E20A6495B
:1033400008608C20A34908600520A7490870F6E0B2
:103350009B49098840F6B83291421DDD9849498859
:10336000974A1288881A002801DB014600E0414292
:10337000FA2911DA9248408B40F24C41884207DA30
:103380001E214842FFF748FE6420914908604FE043
:103390000420954908704BE08948408B40F24C412D
:1033A000884207DA1E214842FFF736FE642088492A
:1033B00008603DE082480088B0F57A7F04DB8048F1
:1033C0004088B0F57A7F1CDA7D48808940F6C411C8
:1033D000884208DD1E210A20FFF71EFE96207C4948
:1033E000086025E0ACE07648C08940F6C411884208
:1033F0001EDD0A211E20FFF70FFE9620744908608B
:1034000016E046207249086019210846FFF704FEBD
:103410003920704908606FF00E006F4908600A207B
:103420006E49086000206E49086005206E490870EA
:1034300085E063498988B1F52F6F10DD604989887F
:103440005F4AD288881A002801DB014600E0414229
:10345000B1F5FA7F03DA01206349087035E0584876
:103460008088B0F57A7F13DA8220594908601E21DE
:103470004842FFF7D1FD642056490860192056499B
:1034800008608220554908601E205549086019E0EF
:103490004B48C088B0F57A7F14DA82204C49086026
:1034A0006FF01D011E20FFF7B7FD64204949086039
:1034B0001920494908608220484908606FF01D00C2
:1034C0004749086005204849087038E0002108464F
:1034D000FFF7A2FD3C20FFF723FE32203C490860A5
:1034E0000620414908702AE001E018E009E00F20B9
:1034F000FFF716FE32203649086002203A4908706C
:103500001DE05A210846FFF787FD6320FFF708FEFC
:1035100048202F4908600320334908700FE000203D
:10352000FFF7E0FD14210846FFF776FD5A202849F1
:10353000086000202B4908702B49087000BFB0E1DB
:103540001F48008829490988884219DD1C48808A5B
:10355000B0F5AF6F03DD01202249087002E00020C2
:10356000204908701648408820494988884203DD70
:103570000C201F4908704CE001201D49087048E0EC
:103580000F48408819494988884203DD0D201849B1
:1035900008703EE002201749087035E008481549D8
:1035A000097830F811101148124A127830F81200D8
:1035B000814221DD0F4800780D49087028E00000A5
:1035C000A40100203400002032000020000C004044
:1035D0003C00002040000020540000204400002057
:1035E00058000020370000203600002094530008C7
:1035F00030000020350000200020FE490870FE4801
:103600000078401CFC490870FB4800780B28C5DB9B
:1036100000BFF84800780E2812D2DFE800F0122F21
:1036200056626D86919D18244BA8073DF34801789A
:10363000143100781430FFF7EFFC0120F0490870D6
:1036400095E0EE4801780078FFF7E6FC8FE06FF038
:1036500045014620FFF7E0FC1920EA4908600020F8
:10366000E749087083E046214842FFF7D5FC19205E
:10367000E44908600020E249087078E0DF480178FA
:10368000193100780F30FFF7C7FC0620DD490860CC
:103690000020DB4908706AE0D84801780F310078D3
:1036A0001930FFF7B9FC0620D64908600020D4493C
:1036B00008705CE046214842FFF7AEFC1E20D1496D
:1036C00008600020CE49087051E06FF045014620A7
:1036D000FFF7A2FC0A20CB4908600020C849087007
:1036E00045E046214842FFF797FC0A20C54908609B
:1036F0000020C34908703AE0C348408940F2DC51D9
:10370000884203DD0120C149087002E00020BF4962
:1037100008706FF045014620FFF77EFC1420B94980
:1037200008600020B649087021E046214842FFF7B2
:1037300073FC1420B34908600020B149087016E0FA
:103740006FF045014620FFF767FC1720AD49086080
:103750000020AB4908700AE046214842FFF75CFCB4
:103760001720A84908600020A549087000BF00BFC5
:10377000A748007820B1012803D002281ED115E007
:103780001CE04620A34908605F20A34908606FF051
:103790002C00A24908603C20A149086005209949F5
:1037A000086000210846FFF737FC07E0052095492F
:1037B000086032210846FFF72FFC00BF00BF994880
:1037C000006840F60B010840032828D005DC68B1EA
:1037D00001284FD0022863D137E008280FD0B0F578
:1037E000006F14D0A0F6080070BB00E058E037214D
:1037F0000846FFF711FC04208249086050E041218F
:103800002D20FFF709FC04207E49086048E02D21A7
:103810004120FFF701FC04207A49086040E00021C4
:103820000846FFF7F9FB50207A49086055207A498D
:1038300008606FF02C00794908606FF03600784915
:10384000086005206F4908602AE000210846FFF75C
:10385000E3FB4B206F49086046206F4908606FF01A
:103860002C006E49086037206D49086005206549C5
:10387000086015E000210846FFF7CEFB4B206549A4
:1038800008604620644908606FF02C0063490860B6
:103890006FF036006249086005205A49086000BF91
:1038A00000BF01216048FEF79FFD10BD30B58BB011
:1038B00004460D4601214020FDF7CBFE01210220E8
:1038C000FDF77EFE09220E215848FDF766FC4FF4F5
:1038D0008040099002208DF8280003208DF82900EF
:1038E00000208DF82A0001208DF82B0009A94F48EF
:1038F000FDF7C8FBA8B2ADF818000020ADF81A001B
:103900000794ADF8200006A94948FEF7A4F8602006
:10391000ADF804000120ADF806000020ADF810005D
:1039200001A94348FEF72CF908214148FEF7B5FAF2
:1039300001213F48FEF7FAF801213D48FEF714F94E
:103940000BB030BD30B58BB004460D4601210420CC
:10395000FDF77FFE01210220FDF77BFE0121022001
:10396000FDF72EFE022206213048FDF716FC02224A
:1039700004212E48FDF711FC022208212B48FDF7F7
:103980000CFC022209212948FDF707FC4FF4547072
:10399000099002208DF8280003208DF829000020CE
:1039A0008DF82A0001208DF82B0009A91F48FDF78A
:1039B00069FBA8B2ADF818000020ADF81A00079412
:1039C000ADF8200006A91B48FEF745F806A91A48DD
:1039D000FEF741F86020ADF804000120ADF80600C4
:1039E0000020ADF8100001A91248FEF7C9F801A99E
:1039F000114823E030000020350000203400002072
:103A0000380000203C000020A401002037000020E6
:103A1000320000204000002044000020540000201C
:103A200058000020100C0240000C0040000402402E
:103A3000001800400008004000040040FEF7A0F815
:103A400001A91C48FEF722F901A91A48FEF784F9DA
:103A500008211848FEF721FA08211748FEF71DFA39
:103A600008211448FEF72FFA08211248FEF734FA0D
:103A700000211048FEF7DDF900210F48FEF7D9F9C3
:103A800000210C48FEF7D9F900210A48FEF7D7F9C2
:103A900001210848FEF74AF801210748FEF746F8D9
:103AA00001210448FEF760F801210348FEF75CF8A5
:103AB0000BB030BD00080040000400401CB50121DF
:103AC0000820FDF77DFD40F60B00009000208DF8EA
:103AD00004008DF8060003208DF8050002208DF803
:103AE000070069460148FDF7CDFA1CBD000C0240F5
:103AF00030B5002200230020002121E014E0C1EBBA
:103B0000C104114D05EB840434F81040002C09DB8E
:103B1000C1EBC10405EB840434F810401444A2B294
:103B20005C1CE3B24C1CE1B20A29E8DB92FBF3F423
:103B3000064D25F81040002200230021441CE0B26D
:103B40000E28DBDB30BD0000C0010020A4010020F6
:103B500000B589B001210220FDF77BFD0121042081
:103B6000FDF72EFDC020079002208DF820000320D5
:103B70008DF8210001208DF822008DF8230007A97F
:103B80006C48FDF77FFA022206216A48FDF705FB23
:103B9000022207216748FDF700FB04A8FDF78FFF0D
:103BA0000020ADF81000ADF812004FF4C8400590A9
:103BB0000020ADF8180004A95F48FDF74CFF002372
:103BC0001A4601215C48FEF7BAFC01A8FEF751FB3A
:103BD0000620ADF80C0001A95748FEF713FB1D2085
:103BE0008DF8000001208DF8010003208DF80200FF
:103BF00001208DF803006846FCF7C5FC01214E4802
:103C0000FEF7DEFB012211464B48FEF7C5FB4FF4E1
:103C1000485049492431086001214748FDF7A4FF75
:103C200009B000BD10B545480078401C43490870F4
:103C300008460078052802DD0020FFF753FA01212D
:103C40003D48FEF7D1FB10BD10B53B48FDF750FFD6
:103C500080B210BD10B504E06FF013011420FFF71F
:103C6000DBF937480088B0F5FA6FF5DB1E2108460E
:103C7000FFF7D2F94FF47A70FEF71EFF6FF00901DB
:103C80000846FFF7C9F94FF4FA70FEF715FFC82090
:103C9000FFF746FA40F6C410FEF70EFF40F2F310AD
:103CA000FFF73EFA32210846FFF7B6F94FF47A7073
:103CB000FEF702FF0020FFF733FA28211E20FFF74E
:103CC000ABF910BD10B50A210846FFF7A5F94FF46E
:103CD000FA70FEF7F1FE00210846FFF79DF91E205D
:103CE000FFF71EFA4FF46170FEF7E6FE6320FFF760
:103CF00017FA5A210846FFF78FF94FF47A70FEF74A
:103D0000DBFE0020FFF7EEF94FF44870FEF7D4FE1B
:103D1000FFF715FA1E214842FFF77EF94FF4C870ED
:103D2000FEF7CAFEFFF70BFA14210846FFF774F9F5
:103D300010BD000000080240000400405C000020AC
:103D40005E00002010B58CB004461E230BAA03A908
:103D5000204600F0A9FE0090009810B101200CB0A0
:103D600010BD9DF82C00044400200B900EE040484C
:103D70009DF82C2050F8221003A800F0FDFD00B99A
:103D800008E09DF82C00401CC0B20B909DF82C0060
:103D90000728ECD300BF9DF82C00072863D2DFE88A
:103DA00000F004053C5E6564630000BF31A001F0D3
:103DB0008BF831A001F088F83FA001F085F84EA003
:103DC00001F082F85CA001F07FF86BA001F07CF8B4
:103DD00079A001F079F886A001F076F88BA001F0C7
:103DE00073F890A001F070F894A001F06DF899A01C
:103DF00001F06AF89EA001F067F8A4A001F064F851
:103E0000B0A001F061F8BDA001F05EF8C8A001F01B
:103E10005BF8D4A001F058F89AE216A001F054F82B
:103E2000E0A001F051F800200B900EE0ED48006892
:103E30009DF82C2000EBC2004168EBA001F044F893
:103E40009DF82C00401CC0B20B90E648007D9DF808
:103E50002C108842EADC07A001F036F878E205A0D1
:103E600001F032F8C4E171E245E219E2ECE1000050
:103E7000600000200D0A00002D2D2D2D2D2D2D2D43
:103E80002D2D2D2D2D2D2D2D2D2D2D2D2D2D2D2D62
:103E900055534D4152542056332E312D2D2D2D2D5D
:103EA0002D2D2D2D2D2D2D2D2D2D2D2D2D2D2D2D42
:103EB0002D2D2D200D0A00002020202055534D418E
:103EC0005254CAC7D3C9414C49454E54454BBFAA69
:103ED000B7A2B5C4D2BBB8F6C1E9C7C9B5C4B4AEC0
:103EE000BFDAB5F7CAD4BBA5BDBBD7E9BCFE2CCDA4
:103EF000A8B9FD200D0A0000CBFC2CC4E3BFC9D239
:103F0000D4CDA8B9FDB4AEBFDAD6FACAD6B5F7D3C8
:103F1000C3B3CCD0F2C0EFC3E6B5C4C8CEBACEBAF4
:103F2000AFCAFD2CB2A2D6B4D0D02ED2F2B4CB2CD4
:103F3000C4E3BFC90D0A0000D2D4CBE6D2E2B8FC7C
:103F4000B8C4BAAFCAFDB5C4CAE4C8EBB2CECAFDA4
:103F500028D6A7B3D6CAFDD7D62831302F3136BDE3
:103F6000F8D6C629A1A2D7D6B7FBB4AEA1A2BAAFE4
:103F7000CAFDC8EB0D0A0000BFDAB5D8D6B7B5C880
:103F8000D7F7CEAAB2CECAFD292CB5A5B8F6BAAFDE
:103F9000CAFDD7EEB6E0D6A7B3D63130B8F6CAE43C
:103FA000C8EBB2CECAFD2CB2A2D6A7B3D6BAAFCA5E
:103FB000FDB7B5200D0A0000BBD8D6B5CFD4CABE18
:103FC0002ED0C2D4F6B2CECAFDCFD4CABEBDF8D66A
:103FD000C6C9E8D6C3B9A6C4DC2CD0C2D4F6BDF895
:103FE000D6C6D7AABBBBB9A6C4DC2E0D0A000000FA
:103FF000BCBCCAF5D6A7B3D63A7777772E6F706573
:104000006E6564762E636F6D0D0A000055534D4149
:104010005254D3D037B8F6CFB5CDB3C3FCC1EE3AC6
:104020000D0A00003F3A202020202020BBF1C8A12B
:10403000B0EFD6FAD0C5CFA20D0A000068656C704B
:104040003A202020BBF1C8A1B0EFD6FAD0C5CFA24C
:104050000D0A00006C6973743A202020BFC9D3C3D5
:10406000B5C4BAAFCAFDC1D0B1ED0D0A0A00000057
:1040700069643A2020202020BFC9D3C3BAAFCAFD4B
:10408000B5C44944C1D0B1ED0D0A0A006865783A5B
:1040900020202020B2CECAFD3136BDF8D6C6CFD4FE
:1040A000CABE2CBAF3B8FABFD5B8F12BCAFDD7D621
:1040B000BCB4D6B4D0D0BDF8D6C6D7AABBBB0D0A07
:1040C0000A0000006465633A20202020B2CECAFDB9
:1040D0003130BDF8D6C6CFD4CABE2CBAF3B8FABFB9
:1040E000D5B8F12BCAFDD7D6BCB4D6B4D0D0BDF864
:1040F000D6C6D7AABBBB0D0A0A00000072756E7443
:10410000696D653A312CBFAAC6F4BAAFCAFDD4CBEB
:10411000D0D0BCC6CAB13B302CB9D8B1D5BAAFCA21
:10412000FDD4CBD0D0BCC6CAB13B0D0A0A000000FA
:10413000C7EBB0B4D5D5B3CCD0F2B1E0D0B4B8F1C0
:10414000CABDCAE4C8EBBAAFCAFDC3FBBCB0B2CEAD
:10415000CAFDB2A2D2D4BBD8B3B5BCFCBDE1CAF88B
:104160002E0D0A002D2D2D2D2D2D2D2D2D2D2D2DEE
:104170002D2D2D2D2D2D2D2D2D2D2D2D2D2D414C3C
:1041800049454E54454B2D2D2D2D2D2D2D2D2D2DAD
:104190002D2D2D2D2D2D2D2D2D2D2D2D2D2D2D205C
:1041A0000D0A00002D2D2D2D2D2D2D2D2D2D2D2DDC
:1041B0002D2D2D2D2D2D2D2D2D2D2D2D2DBAAFCA83
:1041C000FDC7E5B5A52D2D2D2D2D2D2D2D2D2D2DFD
:1041D0002D2D2D2D2D2D2D2D2D2D2D2D2D2D2D2D0F
:1041E000200D0A00AC00002025730D0A000000001D
:1041F000EEA000F069FE00200B901AE0FB49096870
:104200009DF82C2001EBC20101AB02AA486803A96A
:1042100000F070FCF54800689DF82C1050F8312033
:1042200003A9F3A000F050FE9DF82C00401CC0B282
:104230000B90EE48007D9DF82C108842DEDCAFF23A
:10424000CC3000F041FE83E0AFF2D83000F03CFE0D
:104250000BAA03A9204600F029FD9DF82C00C8B93F
:10426000694603A800F0BBFB0B909DF82C0020B919
:10427000E4A0009900F028FE0EE09DF82C00042830
:1042800001D002206BE5E2A000F01EFE0120D7491C
:10429000C87501E0022062E5DCA000F015FE57E0E1
:1042A000DAA000F011FE0BAA03A9204600F0FEFCE4
:1042B0009DF82C00C8B9694603A800F090FB0B904C
:1042C0009DF82C0020B9D7A0009900F0FDFD0EE06C
:1042D0009DF82C00042801D0022040E5D4A000F075
:1042E000F3FD0020C149C87501E0022037E5C7A0F1
:1042F00000F0EAFD2CE0C5A000F0E6FD0BAA03A942
:10430000204600F0D3FC9DF82C00C8B9694603A8EC
:1043100000F065FB0B909DF82C0078B9B34900982C
:1043200081F8EC00084690F8EC0018B1C5A000F048
:10433000CBFD07E0CAA000F0C7FD03E002200EE5B8
:1043400002200CE5B1A000F0BFFD01E0012006E570
:1043500000BF002003E510B50121C848FEF730F882
:104360004FF6FF71C548FDF7C1FB0021C348FDF7BB
:10437000BBFB00209D49C1F8F00010BD10B5012124
:10438000BE48FEF714F8012808D19848D0F8F0008C
:104390004FF6FF7108449549C1F8F000B748FDF7A2
:1043A000A7FB9249D1F8F01008449049C1F8F000F9
:1043B0000846D0F8F00010BD10B50121AF48FEF757
:1043C00002F801280AD18949086980470021AB48D1
:1043D000FDF78AFB6421A948FDF788FB0121A74866
:1043E000FEF702F810BD7FB504460D4601210420FA
:1043F000FDF72FF9ADF800500020ADF80200019450
:10440000ADF8080069469D48FDF725FB01221146DD
:104410009A48FDF7C1FF01219848FDF7A5FB1E2032
:104420008DF80C0003208DF80D008DF80E00012092
:104430008DF80F0003A8FCF7A6F87FBD10B5044661
:1044400004EBC40000EB04100122C2EB800081B237
:104450004FF47A70FFF7C7FF01206449C87510BD9B
:1044600030B595B0054613AB12AA09A9284600F04D
:1044700041FB044614B1204615B030BD0020149015
:1044800026E05A4909689DF8502001EBC20113ABA0
:1044900011AA486801A900F02DFB04460CB1204682
:1044A000EAE709A901A800F067FA60B99DF844009D
:1044B0009DF84810884201DD0220DDE79DF850009C
:1044C0004A4988750AE09DF85000401CC0B214901B
:1044D0004648007D9DF850108842D2DC00BF43481A
:1044E000007D9DF85010884201D10420C4E714A932
:1044F000284600F04CFC04460CB12046BCE79DF871
:1045000050003A4948750020B6E72DE9F0419AB0CD
:104510003648847D007DA04202DC1AB0BDE8F081FF
:104520003249096801EBC40106AB07AA486808A92B
:1045300000F0E0FA08A952A000F0C6FC0026B9E09D
:104540002A48008B0121B1400840D8B122214EA059
:1045500000F0BAFC304600F00DFC24492431471825
:1045600039464AA000F0B0FC222147A000F0ACFC84
:10457000304600F0FFFB1D492431084410A941F8E2
:1045800026008DE0304600F0F5FB1849243108582C
:1045900010A941F826001548C07D30B910A850F880
:1045A00026103BA000F090FC7AE073E02D2D2D2D1D
:1045B0002D2D2D2D2D2D2D2D2D2D2D2D2D2D2D2D2B
:1045C0002D2D2D2D2DBAAFCAFD204944202D2D2D86
:1045D0002D2D2D2D2D2D2D2D2D2D2D2D2D2D2D2D0B
:1045E0002D2D2D2D2D2D2D2D200D0A00AC00002060
:1045F00025732069642069733A0D0A3058253038D4
:10460000580D0A004845583A305825580D0A000000
:104610003136BDF8D6C6B2CECAFDCFD4CABE210D42
:104620000A0000004445433A256C750D0A0000005D
:104630003130BDF8D6C6B2CECAFDCFD4CABE210D28
:104640000A00000052756E2054696D652043616C4C
:1046500063756C6174696F6E204F4E0D0A00000027
:1046600052756E2054696D652043616C63756C6191
:1046700074696F6E204F46460D0A00000008004026
:104680000D0A257328000000256300002573000033
:10469000256C750010A850F8261095A000F014FCA9
:1046A0009DF81C00401EB04202D093A000F00CFC0C
:1046B000701CC6B29DF81C008642FFF641AF8FA069
:1046C00000F002FCFFF747FE8D48407D0B280DD21D
:1046D000DFE800F0060D151E27323F4E5F7287009F
:1046E0008749096851F834008047054690E0844ABC
:1046F000126852F8341010988847054688E0804BBD
:104700001B6853F83420DDE91001904705467FE02F
:104710007B4F3F6857F8343010A807C898470546C4
:1047200076E0DFF8DCC1DCF800C05CF8347010A87B
:104730000FC8B84705466BE01498DFF8C4C1009075
:10474000DCF800C05CF8347010A80FC8B847054604
:104750005EE0DDE91401DFF8A8C1CDE90001DCF875
:1047600000C05CF8347010A80FC8B84705464FE089
:10477000DDE914121698DFF888C1CDE90012029025
:10478000DCF800C05CF8347010A80FC8B8470546C4
:104790003EE0DDE91423DDE91610DFF864C1CDE960
:1047A0000023CDE90210DCF800C05CF8347010A8DA
:1047B0000FC8B84705462BE0DDE91523DDE91710E2
:1047C000CDE90123CDE903101498DFF834C100903E
:1047D000DCF800C05CF8347010A80FC8B847054674
:1047E00016E0DDE91623DDE91810CDE90223CDE955
:1047F0000410DDE91401DFF808C1CDE90001DCF89F
:1048000000C05CF8347010A80FC8B847054600BF58
:1048100000BFFFF7B3FD9DF8180001280CD1384800
:10482000C07D20B9294637A000F04EFB07E029469D
:1048300036A000F049FB02E033A000F045FB304811
:1048400090F8EC0088B12E48D0F8F0000A21B0FBB7
:10485000F1F201FB12072A48D0F8F000B0FBF1F8A2
:104860003A4641462CA000F02FFB00BF55E670B53C
:104870003148008800F40040002833D02E480578E5
:1048800000202E4948551E4881682C488847044618
:104890001CB91B49C868804721E02848FFF752FA35
:1048A0000546012D00D02C46CCB1012C06D0022C9F
:1048B00008D0032C0AD0042C10D10BE020A000F06B
:1048C00003FB0BE021A000F0FFFA07E022A000F0BC
:1048D000FBFA03E023A000F0F7FA00BF00BF0020BE
:1048E0001549088070BD014608687047016070472F
:1048F00030582558000000002C000000290000005E
:10490000AC0000203D256C753B0D0A003D3058255C
:10491000583B0D0A0000000046756E6374696F6EA7
:104920002052756E2054696D653A25642E253164D8
:104930006D730D0A000000002C000020D80200203A
:10494000BAAFCAFDB4EDCEF3210D0A00B2CECAFD56
:10495000B4EDCEF3210D0A00B2CECAFDCCABB6E069
:10496000210D0A00CEB4D5D2B5BDC6A5C5E4B5C4E7
:10497000BAAFCAFD210D0A0002460AE010780B7892
:10498000984201D001207047107800B902E0521C13
:10499000491CF3E700BF0020F5E706E002780A7043
:1049A000027802B902E0401C491CF7E700BF7047DB
:1049B0000146002005E00A7802B903E0421CD0B2AB
:1049C000491CF8E700BF704710B50246012000E01F
:1049D00050430B00A1F10104E1B2F9D110BD2DE962
:1049E000F04307460E4600254FF00A083C460020DB
:1049F00030601FE02078392802DC207830280ADA7D
:104A00002078462802DC2078412804DA20785828CB
:104A100009D1012D07D12078412801DB4FF0100882
:104A2000681CC5B205E0207800B904E00120BDE8AB
:104A3000F083641CDEE700BF3C46B8F1100F0FD1D5
:104A4000032D01DA0220F2E72078302806D16078C1
:104A5000582803D1A41CA81EC5B204E00320E6E731
:104A60000DB90420E3E71BE00DB1681EC5B2207844
:104A7000392806DC2078302803DB2078A0F13009C3
:104A800002E02078A0F1370929464046FFF79CFF55
:104A9000316809FB00103060641C207800B900E028
:104AA000E2E700BF0020C2E710B504460020107006
:104AB0000BE020780870641C491C1078401C1070B2
:104AC0001078984201DB012010BD2078202802D008
:104AD00020780028EDD10020087000BFF4E70146DF
:104AE000491C00E0491C0878202801D10029F9D18F
:104AF000087870472DE9FF4F85B08046894600272A
:104B0000002004900390012002904FF0000B00253C
:104B100044461DE02078202816D005F07F000528A7
:104B200012DA0DB945F0800505F07F00042803D1A5
:104B300020782A2800D00EE0207805F07F010DF8BB
:104B40000100681CC5B202E0852D00D103E0641CA1
:104B500020780028DED100BF8DB1002005F07F0154
:104B60000DF80100CBA16846FFF706FF18B9002138
:104B70000898017002E001210898017000254FF0AB
:104B8000000A444614E0641C0AF1010000F0FF0A28
:104B90002078202802D020782A2809D12046FFF743
:104BA0009EFF0646282E03D02A2E01D0CDF810A055
:104BB0002078282802D020780028E4D144460498A0
:104BC00010B10498401C04444FF0000A002654E041
:104BD000207810B94FF0010A50E02078282803D13E
:104BE00016B9781CC7B213E02078292808D13EB93D
:104BF00017B1781EC7B201E04FF0010A47B93DE096
:104C00002078222804D10EB9012000E000200646B9
:104C100047B9207820282FD0207889F8000009F1A2
:104C2000010929E020782C2804D101200290681C79
:104C3000C5B214E02078202811D0207828280ED082
:104C40004DB9BBF1050F06DA20780DF80B000BF11A
:104C5000010000F0FF0B0298401CC0B20290012F2F
:104C60000AD10298022807D10298401CC0B20290D3
:104C70000398401CC0B20390641CA9E700BF0398CE
:104C8000012809D100200DF80B0082A16846FFF72A
:104C900073FE08B90020039007990398087000205C
:104CA00089F80000504609B0BDE8F08FF0B5034622
:104CB0001546002000220026002455E01F782C2FE6
:104CC00001D104B901221F78292F01D01F780FB913
:104CD00004B94AE0002E34D11F78302F02DB1F7850
:104CE000392F11DD1F78612F02DB1F78662F0BDD56
:104CF0001F78412F02DB1F78462F05DD1F78582FC4
:104D000002D01F78782F0CD102B12EE01F78612FCE
:104D100003DB1F78203F0F7001E01F780F70491CE4
:104D20001FE01F78222F04D102B11EE001260124CA
:104D300017E01F78202F14D01F782C2F11D0FF26BA
:104D400013E01F78222F00D1002402B10DE044B1FE
:104D50001F785C2F02D15B1C471CF8B21F780F70C4
:104D6000491C471CF8B25B1CA8E700BF00270F7066
:104D70002E70F0BD02460020002105E0474B5B5C31
:104D80000344D8B24B1CD9B29142F7DB70472DE9EE
:104D9000F043B5B005460F460024002604E000218C
:104DA0003E488155701CC6B20A2EF8DB06E06D1C29
:104DB000287818B9012035B0BDE8F0832878282874
:104DC000F5D16D1C61E034AA69462846FFF76EFFF5
:104DD000064635449DF8D00020B1012827D0FF2891
:104DE0004CD149E09DF8000000B333A96846FFF7B5
:104DF000F6FD06460EB10220DDE72046FFF7BAFFBA
:104E000026490A31339A0A50A1F12400008B01216E
:104E1000A140884321491A39088304211F480155BC
:104E2000601CC4B20A2C01DD0320C4E726E06846FA
:104E3000FFF7BEFD401C00F0FF082046FFF79AFF79
:104E400016490A3100EB010949466846FFF7A5FDFE
:104E500012481A38018B0120A040014388B20F4943
:104E60001A3908830D4800F80480601CC4B20A2C6B
:104E700001DD03209FE701E002209CE700BF2878C6
:104E8000292801D0287800B900E09CE700BF3C70D9
:104E9000002090E7766F696400000000C6000020E3
:104EA000044A1070044A11707047044A1070044A92
:104EB0001170704730000020A00100203100002058
:104EC000A1010020704700000FB4044910B503AAE7
:104ED000029800F0F5F910BC5DF814FB28000020E2
:104EE00070B5044685690068C10601D5302600E02A
:104EF0002026C00707D070BDD4E901213046904775
:104F0000206A401C20626D1EF6D570BD70B5044647
:104F100085690078C00707D170BDD4E90121202040
:104F20009047206A401C20626D1EF6D570BD70B59A
:104F30000C460546012A05D02878800600D5EA6986
:104F4000002302E0012305E05B1C934202D2E05CF7
:104F50000028F9D1A869E618C01AA861286A18447F
:104F600028622846FFF7BCFF04E0D5E9012114F8C8
:104F7000010B9047B442F8D32846FFF7C7FF70BD36
:104F80002DE9F0410646002410687529314616A522
:104F900010D0AFF30080002802DA404213A507E0EA
:104FA00031688A0701D512A502E0490704D511A589
:104FB000012401E0AFF3008000210A2206F124075A
:104FC00009E0B0FBF2FCB0FBF2F302FB1C00303056
:104FD00078541846491C0028F3D123462A46304607
:104FE000BDE8F04100F0FCB8000000002D0000001A
:104FF0002B0000002000000070B504460D4621463D
:105000001068AFF300802188090502D50F4A7A4461
:1050100002E00E4A7A440E32002104F1240305E036
:1050200000F00F060009965D5E54491C0028F7D178
:1050300020780023000704D5702D02D009B1022387
:1050400011322046BDE8704000F0CAB89803000055
:105050002DE9F05F894604464FF0000ADFF874B18D
:10506000FB44C0F820A02046E1688847002874D09F
:10507000252806D0D4E901219047206A401C2062EF
:10508000F1E700265F462046E1688847202805466C
:1050900007DB312D05D2781910F8200C08B1064332
:1050A000F1E7B00701D526F00406C4F81CA00027DC
:1050B000C4F818A02A2D09D0284600F05FF938B3AB
:1050C00004EB8708303DC8F8185019E059F8041B64
:1050D000204604EB87029161E1688847012F05466D
:1050E00018D1E069002820DA26F020061DE0D8F863
:1050F000180000EB800005EB40003038C8F81800BD
:105100002046E1688847054600F038F90028EED1CE
:10511000012F0AD02E2D08D12046E16888477F1C38
:105120000546022F46F02006C4DBA069002803DAFA
:10513000404246F00106A061F00701D026F01006BB
:105140006C2D0BD0682D09D04C2D39D06A2D35D05F
:10515000742D35D07A2D33D016E038E0E1682F4633
:1051600020468847B842054609D16C2F26D04FF417
:105170008060E168064320468847054604E06C2FBE
:105180001AD04FF4807006430DB3A5F141001928E1
:1051900002D8203546F400664A4629462046266055
:1051A0004E46FBF74BF880B101280BD0F61D26F0D8
:1051B000070000F1080956E74020E4E78020D8E71F
:1051C0000020D6E706F104094DE7284652E7206A99
:1051D000BDE8F09F6E03000070477047704770474E
:1051E0002DE9F0470D4699469246044600F1240801
:1051F0000168880604D5E06921F01001216000E013
:105200000120A84201DD471B00E00027A1697A19AF
:1052100002EB0900081AA0612078C00602D42046DB
:10522000FFF75EFE002608E0D4E901211AF8060027
:105230009047206A401C761C20624E45F4DB2078A3
:10524000C0060AD52046FFF74BFE06E0D4E901214F
:1052500030209047206A401C2062381EA7F10107C9
:10526000F4DC07E0D4E9012118F805009047206A32
:10527000401C2062281EA5F10105F3DC2046FFF743
:1052800045FE2078000602D50220BDE8F087012007
:10529000FBE710B5436913B1AFF3008001E0FFF7FE
:1052A00046FE012010BD127800F124010A70002290
:1052B0004A700122EDE711684FF0FF32E9E7000084
:1052C000074B70B50D467B4400F011F804462846A4
:1052D00000F020F810B14FF0FF3070BD204670BDD7
:1052E00033D8FFFF01694A1C02610878704700B596
:1052F0008FB0CDE901310021059105497944CDE90F
:10530000031011466846FFF7A3FE0FB000BD000072
:10531000E5FFFFFF007B00F080007047754600F05E
:1053200029F8AE4605006946534620F00700854639
:1053300018B020B5FBF710F9BDE820404FF000068B
:105340004FF000074FF000084FF0000B21F007016D
:10535000AC46ACE8C009ACE8C009ACE8C009ACE8B0
:10536000C0098D4670470446AFF300802046FAF727
:1053700085FF000000487047A003002030380A284D
:1053800001D201207047002070474FF04070E1EEDD
:10539000100A704778057805140514057805780516
:1053A0007805780514051405140530313233343589
:1053B0003637383941424344454640305800303151
:1053C000323334353637383961626364656640306C
:1053D0007800040000080000000000000002000146
:1053E000000010003F000000646563006964000075
:1053F00072756E74696D650068656C700000000000
:105400006C6973740000000068657800766F6964E9
:10541000206368616E6765312875382067672C7571
:105420003820676731290000766F696420636861FE
:105430006E67652875382067672C75382067673177
:1054400029000000766F69642077726974655F6176
:105450006464722875333220616464722C7533324F
:105460002076616C2900000075333220726561641A
:105470005F6164647228753332206164647229004C
:10548000766F69642064656C61795F6D732875312E
:1054900036206E6D73290000766F69642064656C38
:1054A00061795F757328753332206E75732900003A
:1054B000D054000800000020A4010000C40100082E
:1054C00040550008A40100205C08000020020008EC
:1054D00011847A030A680901020304060708090C0B
:1054E000A910B14A052D012613E4531B08F8041135
:1054F00012541B08EC081A08081AE8081AF00413DA
:10550000E7481B0868101AED081A440813B92A1B4B
:105510000880081A29081A980813A14E1B082808A1
:105520001AAB081A0C08227C14203D441B086104A5
:10553000130B451B086F380A27068A01BA000000C2
:040000050800018965
:00000001FF
